:060000000219FD020335A8
:03000B0002008070
:030013000203489D
:03001B000200B030
:03002B00020303CA
:03005B0002035746
:0300730002032263
:10008000C0D075D01018B8CF0408208507B2858677
:100090008AD0D03253A4DFD285C2A98F8E7589AAA7
:1000A000C289C28B758A00D2A8D2AAC228D0D03207
:1000B000C2A8C28E85588BC0D075D008C0E0C0F0F1
:1000C000C2CAA9CCAACDD2CAC3E99559F9EA955AB0
:1000D0007049C3E9955B4043955B503FB8103C784D
:1000E00000A9577D00E2FEC39DC399402E99EC33D1
:1000F000FC08E2FDC39EC399402199EC33FC08E261
:10010000FEC39DC399401499EC33FC08E2FDC39EE5
:10011000C399400799EC33FC088002806AE2FEC371
:100120009DC399406299EB33FB08E2FDC39EC399DE
:10013000405599EB33FB08E2FEC39DC399404899B3
:10014000EB33FB08E2FDC39EC399403B99EB33FBC5
:1001500008E2FEC39DC399402E99EB33FB08E2FDF4
:10016000C39EC399402199EB33FB08E2FEC39DC3B4
:1001700099401499EB33FB08E2FDC39EC3994007F5
:1001800099EB33FB08801E0530E53070021530C353
:10019000E5309432400AD225755C00755D0041F36C
:1001A00075310A41F3E2FEC39DC39940DA99EA33FF
:1001B000FA08E2FDC39EC39940CD99EA33FA08E2FA
:1001C000FEC39DC39940C099EA33FA08E2FDC39E7D
:1001D000C39940B399EA33FA08EBC46B6C6A3027D1
:1001E00001F4540F70A1C3EBF4FA9460FBECF454E7
:1001F0000F9400FC5018EA7C007B00600CC3135085
:1002000007B55C05055D8006E4F55C755D00302290
:100210001BC3EB94D0F5F0EC94074003ABF0FC303B
:100220002101B39226C3EB33FBEC33FCEB54F04CCF
:10023000C475F00584FAEC13FCEB132AFBEC3400D4
:10024000FC30E3047BFF7C07201C27301124EC707A
:100250000C798187F0C3EB95F05002ABF0E5376085
:100260001175F028A42BFBEC3400FC30E3047BFF79
:100270007C07EB54F84CC423F97007EB7004D225CB
:100280008005753200C225E53060021530C3E54DAA
:10029000FD954E4002AD4EC3ED995008ED75F00846
:1002A000A4FBACF0C3EC13F45403FAEB13F4F9C35E
:1002B000E99432FBEA9400FC5005E4FBFC800DC39A
:1002C000EB9550EC95514004AB50AC5189FB8AFC46
:1002D0008BE98CEA75310A302719302816758E01A2
:1002E0007589A2D28543A420780085648AC28DD204
:1002F000A980097800758A00D2A8D2AAD0F0D0E0EF
:10030000D0D032C0E0C2CF053CD223E5317004D258
:100310002580021531302507E5320460020532D010
:10032000E032C2AF53E67F53917F7592FA7593FF27
:10033000C218D2AF32C0E0E58A85588BC0D075D0E4
:1003400008F208D0D0D0E032C2AAD28EC2CA85CC80
:100350005985CD5AD2CA32327A007901801E7A008C
:10036000790580187A00790A80127A007964800C05
:100370007A0079C880067A0079FA8000090A800933
:10038000781874FFD5E0FDD8F9D9F5DAF3227A426E
:100390007B3580247A2D7B4D801E7A267B5C8018ED
:1003A0007A197B8C80127A147BAF800C7A427B1E88
:1003B00080067A2D7B2C8000E5547001227902E4BE
:1003C000C293D5E0FDD292D5E0FDC292D5E0FDD238
:1003D00093D5E0FDE920E002D29030E002D294E52E
:1003E00054D5E0FDE920E002C29030E002C29474EE
:1003F00096D5E0FDD9C9EA78C8D8FED5E0F9DBBDCD
:10040000C29322718E7194719A2271B2718E22718F
:100410009A7194718E2271B271AC2279998754B815
:100420000104718E8017B8020471948010B803041F
:10043000719A8009B8040471A0800271A679988726
:100440005422901A70E493F4601D7C3E901A74E478
:1004500093A3FB6012E493FA600471B88006EBF991
:100460007A00717CA3DCE82278A5E6F954037000D9
:10047000E9540C7000E954307000E954C070002257
:10048000C290C292C294C291C293C29575D5FF2206
:10049000201E32A84F20102A78FFE53B6024E54358
:1004A000602074FF301102747F8543F084853BF037
:1004B000A4F8C5F06004754EFF22C3E8954F5002C2
:1004C000A84F884E22C3E54294A0E5439400E54E30
:1004D0005003148001046002F54E2210230122050E
:1004E00067E5675407600122E56720E335E5526060
:1004F000267553FFE5BE601FE5BDC39552401875D4
:1005000053C8940440117553969404400A7553647B
:1005100094044003755332202401228538657566A2
:100520000C22E552600FC3E54D9553600840041559
:100530004D8002054D302473E5675438B40829C353
:10054000E53994785003E4800475F00984A213928D
:10055000E7A21492E6A21592E5C213C214C215F5E1
:100560006575660E75E89022B4180A75658875661B
:100570000875E89022B4280A7565AA75660A75E8B8
:10058000902278A6B6010DE5BE7003E48018E5BDA3
:1005900094148012E5BE700AE5BDC394EB5007E4E5
:1005A0008004E5BD2414F56575660275E890227532
:1005B00042007543F022C2AFC2CAA8CCA9CDAA3C62
:1005C00030CF010AD2CAD2AFC3EA13FAE913F9E86D
:1005D00013F8201014C3E8953D883DF8E9953E894D
:1005E0003E547FF9301E36C1D0AB3DAC3EAD3F88A6
:1005F0003D893E8A3FC3E89BE99CEA9D547F6008A1
:100600007542FF7543FFC19FAE40AF418B408C41A7
:10061000C3E89EF8E99FF9AA42AB438011AA42AB16
:1006200043C3EB9404404894044013201126C3EBC9
:1006300013FDEA13FCC3ED13FDEC13FC804AEBC47D
:1006400023FCEAC423541F4CFC7D00C3E913F9E8E2
:1006500013F88034EBC423FC541FFDEC54E0FCEA97
:10066000C423541F4CFCC3E913F9E813F88019EBB9
:10067000C4FCEAC4540F4CFC7D00C3E913F9E81331
:10068000F8C3E913F9E813F8C3EA9CFAEB9DFBEA17
:1006900028F542EB39F54350067542FF7543FFC319
:1006A000E54394025002D21EE543C4FA540FFBEA1C
:1006B00054F0FAE542C4540F4AFAC3EA9402FAEB42
:1006C0009400FB40057048EA70457A017B00803F4A
:1006D000AA42AB43EBC4FCEAC4540F4CFCC3EA9CF3
:1006E000FAEB9400FBE80303543F2AFAEB3400FBD7
:1006F0008A428B43C394024002C21EEBC4FE7B00BD
:10070000EAC4540F4EC39402FA400270027A0120E8
:100710002806301808120AF130180280FB85499229
:10072000854A93D21843E6807892E6FFC3E49AF8AC
:10073000E49BF9C3E833F8E933F9201E7F30100455
:100740007F038015C3E5389482400E0F941E40014C
:100750000FC3EF940640027F05E8FAE9FBD3E913E3
:10076000FDE813FC8C478D488849894AC3EF940300
:10077000602BEF20E00CE82CF8E93DF9ECFAEDFBFA
:10078000800BE8D338F8E939F97AFF7BFFC3EF949F
:1007900003400A8A4B8B4C884589468050884B8998
:1007A0004C8A458B46301045754BF0754CFF7547AC
:1007B000F07548FF7549F0754AFF8031E8FAD313A8
:1007C000FC8C478849C3EF9403601EEF20E007E8E4
:1007D0002CF8ECFA8007E8282401F87AFFC3EF949C
:1007E0000340068A4B88458004884B8A45202806AA
:1007F000301808120AF130180280FB753502D21841
:1008000043E68030112DA842A943C3E913F9E81348
:10081000F8301004E92440F9C2AF53E67F75910027
:10082000C3E498F594E499F595759104D21843E6DC
:1008300080D2AF2275F000301D0E75F04080097532
:10084000F040301D0375F000D2197544007A027B28
:1008500002201E1D301102C2193010067A367B3676
:10086000800F7B28E543700104FAC3942840027A84
:1008700028201811E544600D301003D53504D21A34
:1008800080671207FE0544E59B5440B5F00DE53442
:1008900060BB2019B8DADAC21A804E20100B20197A
:1008A000110AC3EA9B40CA80A40AC3EA9B40011A0A
:1008B00080BFC21953E67F759100301E11759400F8
:1008C0007595F0759104D21843E68002084DE54312
:1008D0007EFFC3334009C3334005C3334001FEC329
:1008E000E49E759400F59580DAC2AF53E67F8545A6
:1008F00092854693759100854B94854C957591042E
:10090000D21843E680D2AF201018301A17201114E5
:10091000201D1120190EC2AF12048015811581020D
:100920001261053422E53875F007A430190405F08A
:10093000D213A2F013A2F113A2F213F538C39478E4
:100940005003753878C3E53895394003853839C385
:10095000E538953A400BD214C290C292C29475D534
:10096000FF20280530180751F130180280FB854719
:1009700092854893D21843E6802220120FC2AFC25C
:1009800093D29175D5CFD2AF759F2022C2AFC293BB
:10099000D29575D5FCD2AF759F202220120FC2AF21
:1009A000C29475D5F3D291D2AF759F3022C2AFC237
:1009B0009075D5F3D295D2AF759F102220120FC239
:1009C000AFC291D29575D5F3D2AF759F1022C2AF49
:1009D000C295D29175D5F3D2AF759F302220120FF8
:1009E000C2AFC29275D5FCD295D2AF759F2022C2FC
:1009F000AFC29275D5CFD291D2AF759F202220126F
:100A00000FC2AFC295D29375D5FCD2AF759F30227D
:100A1000C2AFC291D29375D5CFD2AF759F102220AD
:100A2000120FC2AFC29075D5CFD293D2AF759F10BF
:100A300022C2AFC29475D5FCD293D2AF759F30223B
:100A40007432A28540032085F750033085F2D5E04B
:100A5000F3922722E55C700122F8C39406500FC27E
:100A6000AF12048012041B120370D2AF807CC3E566
:100A70005D9406407BB80704C221806EB80804D29A
:100A8000218067B80904C2228060B80A04D222809B
:100A900059B80D0A75650075660ED224804CB80EE3
:100AA0000A7565FF75660EC224803FB8140C7988FC
:100AB000E714A2E09221C22A8030B8150D7988E7A8
:100AC00014A2E0B39221D22A8020B80C1DE4A22106
:100AD00092E0A22292E1047988F77555A57556F146
:100AE000B166755500755600D2AF755C00755D0036
:100AF00022C0D075D010BE0039E566702EC2AFE5B9
:100B000042854327D2AFA23813F9A2391329FAE557
:100B10002703C2E7F903C2E739FBE527232354FC87
:100B2000FCC3EA9CF526EB9400F5270E201803D0B1
:100B3000D022BE0124E5667010E527705DE52670C1
:100B40001175270F7526FF8009856526856627752F
:100B500066000E201803D0D022BE0215E526C4651B
:100B6000266527F478D0A65E91170E201803D0D002
:100B700022BE030BE52691170E201803D0D022BE0B
:100B8000040CE526C491170E201803D0D022E527C7
:100B90009117087E00D0D0D2282220E71620E61D2B
:100BA00020E52720E43420E34120E25020E15CE509
:100BB00026809FA23733F52675270F8095A23733FD
:100BC000A23633F52675270D8088A23733A2363337
:100BD000A23533F52675270B6152E52654F0C23C49
:100BE0004527C4F5267527096152E526A23813A2C8
:100BF0003913A23A13F5267527076152E526A23864
:100C000013A23913F5267527056152E526A238137C
:100C1000F5267527036152540F23900C1E73813EF5
:100C20008148815581668170817D8187819B81A802
:100C300081BC81C381D481DE81F581FFA11308A627
:100C40006008A65E08A65E2208A65E08A65F08A643
:100C50005E08A65E2286F0E55FB5F002E560F60864
:100C6000A66008A65E2208A65E08A66008A65E2208
:100C700008A65F08A65E08A65E08A65E2208A65F14
:100C800008A65F08A65E2286F0E55FB5F002E56083
:100C9000F608A65E08A65F08A65E2208A65E08A65D
:100CA0005E08A65F08A65E2286F0E55FB5F002E565
:100CB00060F608A65F08A65E08A65E2208A6600881
:100CC000A65F2286F0E55FB5F002E560F608A65F54
:100CD00008A65F2208A65E08A65F08A65F2286F027
:100CE000E55FB5F002E560F608A65E08A65E08A618
:100CF0005E08A65E2208A65F08A65E08A65F22869A
:100D0000F0E55FB5F002E560F608A65E08A65E08AD
:100D1000A65F2208A65E08A65E08A65E08A65F2259
:100D2000901A0D7820B1A6E520B4550AA3B1A6E526
:100D300020B4AA0280127555A57556F1D12DB16661
:100D4000755500755600801D901A0378807B0AB196
:100D5000A6A308DBFA901A0F788C7B1CB1A6A30817
:100D6000DBFA901A2B22C2AFB1E9D10BB1C6901AAF
:100D7000007400B1ABA37415B1ABA374D0B1AB9048
:100D80001A0378807B0AB1AAA308DBFA901A0F78BD
:100D90008C7B1CB1AAA308DBFAB1FCD11EB1DA909E
:100DA0001A2B12037022E493F622E6438F01538F2D
:100DB000FDFFC3E583941C400122EF8555B785569E
:100DC000B7F0538FFE22438F02438F018555B785BD
:100DD00056B7901A0DF0538FFC22901A0D7455B12E
:100DE000AB901A0E74AAB1AB227A3079D0782090E9
:100DF0001A40B1A6E520F709A3DAF7227A3079D0B4
:100E0000901A40E7B1AB09A3DAF9227A8C7900781D
:100E100020901A70B1A6E520F309A3DAF7227A8CA4
:100E20007900901A70E3B1AB09A3DAF922788076E1
:100E3000FF0876150876010876FF0876050876FF24
:100E40000876090876180876010876FF08080876FB
:100E5000FF0876FF0876FF0876FF0876FF0876FF22
:100E60000876040876FF0876FF0876FF0876FF0804
:100E700076FF0876280876500876040876FF08760C
:100E8000020876FF0876FF0876FF0876000876FFEE
:100E90000876FF0876FF08760008760008760208D4
:100EA0007600227888E614A2E19222A2E0922178CC
:100EB00084745096500276507886740D965002765F
:100EC0000D863B789CE6753AFFB40203753AA0B4F0
:100ED0000303753A8275520078A0E6F9600F78A690
:100EE000B601047453800274282409D9FCF55278A1
:100EF000988654788DE62323F95403F551E954FC80
:100F0000F550B6FF037550FF2275550075560075F4
:100F100097DE7597AD7581B043FF8075EF0675A9B3
:100F2000001204807580FF75F1F075A4007580FFD4
:100F300075D4FF75900075F23F75A53F75900075EB
:100F4000D5FF75A60175A72075F30175CC0175A7AE
:100F50000075E34075E202120480E4F8F6D8FDD192
:100F60002DB120D1A3C2AF12036A12044212046849
:100F700012036AC2AF75550075560012048075A938
:100F80001375A71075C10075A700780979007A005C
:100F900030850CDAFBD9F9D8F712040A021C0030AC
:100FA000290E120403120376120376120376C22965
:100FB000758851758E017589AA758C00758D0075BF
:100FC000C80475910475D84075D90875F782759E67
:100FD0000775960275DA4275DB42759B80759D0038
:100FE00078A6B6010575D11C800375D10C75BCB906
:100FF00075BB1075E88075B201120358514075E455
:10100000D530270375E45DC213C214C215C228C2CD
:101010002475A82D75E68075B803D2AF758E0C7552
:101020005880755710755B50755EF7755FE7756092
:10103000D67564E17561EB7562CA7563A975300A8E
:1010400012036AE530602B7558C0755708755B2828
:10105000755EFF755FF77560EF7564E17561FB752F
:1010600062EB7563DA75300A12036AE530600302D9
:101070000F73C0D075D010AF8ED0D0D22975370085
:10108000C2AF1203ACD2AFC3E532940A40F9C2AF8B
:101090001203B2D2AFE4F542F543F55CF55DF533EA
:1010A000F53CC3E53C945E4033753C000533789ACB
:1010B000E67814146012782814600D7864146008BF
:1010C00078C8146003753300C3E53398400E1533B8
:1010D0007804C2AF12048012041BD2AF202806127B
:1010E0000AF11204DB30250CE5317003020F731294
:1010F0000A5480AE12036A2025A878A7B6010820FA
:101100002405120416809BC2AF120480E4752200ED
:101110007523007538007539007566007984874F2E
:10112000854F4E854F4D854F5375A71075C130754E
:10113000A70075A903C3E55833F558C3E55B33F53C
:101140005BC3E55733F557E55EC561F55EE55FC501
:1011500062F55FE560C563F56075643CA22192129B
:10116000302204A2269212D210D2117534007536A4
:101170000C1209FE120A1F1205AF1205B61205AFB6
:101180001205B61205AFD2AF12083F120925120997
:101190007A1205B612083412049012092512099B1E
:1011A0001205B612083F1209251209BC1205B61223
:1011B00008341209251209DD1205B612083F12097A
:1011C000251209FE1205B6120834120925120A1F4B
:1011D0001205B61204DB301135301014854F4D85E1
:1011E0004F4EC3E5349418500530259C8078C210CA
:1011F000201D1BE53614600AF53630258B20228829
:101200008064C211754DFF7553FFD21C218875375C
:1012100000D21B30251320220C79A4E76007C3E518
:101220003294035041E531603D202209C3E54394E7
:10123000F050332188201D1220120520260580EC55
:101240002026E9D21D854F4E21AF854F4EC3E54381
:101250009440400BC21DA2269212D2117536122163
:1012600088201B020537C2AF120480752200752347
:101270000075A91375A71075C10075A700D3E558AF
:1012800013F558C3E55B13F55BC3E55713F557E555
:101290005EC561F55EE55FC562F55FE560C563F556
:1012A000607564E1202520D215C3E537940350060C
:1012B00012036A021107D2AF202A02C224C2AF125F
:1012C000040FD2AF021072D2AF202A02C2247537A7
:0F12D0000078A4E66006D291D293D295021095D1
:1019FD00020F090015D0FF1501FF05FF091801FFA2
:101A0D0055AAFFFFFFFFFFFF04FFFFFFFFFF285059
:0F1A1D0004FF02FFFFFF00FFFFFF00000200FFBA
:101A400023415F485F3530232020202020202020A4
:101A500023424C48454C492445464D3842323123B7
:101A6000426C75656A617920282E3029202020205B
:101A7000023A042034420D00452D0D0034420D0081
:0B1A80004E27D300452DD0193419006B
:101C0000C2AFC2D37597DE7597AD7581C075A90057
:101C100043FF80752438752503B1DB7529A5752A26
:101C2000F143F12053A4DFD28575D4FF75E3407DE5
:101C3000FA780379E67C10752200752300901DE880
:101C40007B0675249875250130850281482085081A
:101C5000D8FBD9F9DCF781BA308508D8FBD9F9DC93
:101C6000F781BAB19BE493A3C39A6004DDC381BA40
:101C7000DBDBB18D600281317B08E493FAA3B16EA6
:101C8000DBF87A30B16E752200752300B18DEAFC65
:101C9000EBFDC3ED94FE400EB18D8A278B28ED300D
:101CA000E0048A828B83B18D7AC270D8C3ED94FE32
:101CB000601950CEBD0029EC600F7520007521FF22
:101CC000752900752A000200008100A827A92808AC
:101CD00009D804D90281DDB191EAF281D10D81A642
:101CE000C3ED94035051EDA2E092007AC5C3E582A2
:101CF0009400E583941C508C200010438F02438F86
:101D0000018529B7852AB7F0300027A827A9280818
:101D100009438F01538FFDD804D902A132C3E58353
:101D2000941C4003A3A117E28529B7852AB7F0A325
:101D3000A117538FFC81827AC1BD030CE493A3FAEF
:101D4000B152DCF8B14A81828184AA22AB23B16E00
:101D5000EBFAEA6222752608C3E52313F523E52290
:101D600013F52250066323A0632201D526EAB1DBD6
:101D7000B1DB75260AEAF4200102D285300102C2E5
:101D800085B1DBC3134002C201D526EB22B191EA33
:101D9000FB208502A191308502A196752608AE240C
:101DA000AF25C3EF13FFEE13FEB1DFB1DBC3EA13C0
:101DB0003085024480FA30E703632201C3E5231330
:101DC000F523E52213F52250066323A0632201D5F3
:101DD00026D9E52265236523F52222AE24AF250E00
:101DE0000FDEFEDFFCD20122424C48656C693437BD
:061DF0003164E8B20601B7
:00000001FF
