:06000000022FFD020325A2
:03000B0002008070
:03001300020338AD
:03001B000200B030
:03002B000202F3DB
:03005B0002034756
:0300730002031273
:10008000C0D075D01018B8CF0408208507B2858677
:100090008AD0D03253A4DFD285C2A98F8E7589AAA7
:1000A000C289C28B758A00D2A8D2AAC228D0D03207
:1000B000C2A8C28E85588BC0D075D008C0E0C0F0F1
:1000C000C2CAA9CEAACFD2CAC3E99559F9EA955AAC
:1000D0007049C3E9955B4043955B503FB8103C784D
:1000E00000A9577D00E2FEC39DC399402E99EC33D1
:1000F000FC08E2FDC39EC399402199EC33FC08E261
:10010000FEC39DC399401499EC33FC08E2FDC39EE5
:10011000C399400799EC33FC088002806AE2FEC371
:100120009DC399406299EB33FB08E2FDC39EC399DE
:10013000405599EB33FB08E2FEC39DC399404899B3
:10014000EB33FB08E2FDC39EC399403B99EB33FBC5
:1001500008E2FEC39DC399402E99EB33FB08E2FDF4
:10016000C39EC399402199EB33FB08E2FEC39DC3B4
:1001700099401499EB33FB08E2FDC39EC3994007F5
:1001800099EB33FB08801E0530E53070021530C353
:10019000E5309432400AD225755C00755D0041E37C
:1001A00075310A41E3E2FEC39DC39940DA99EA330F
:1001B000FA08E2FDC39EC39940CD99EA33FA08E2FA
:1001C000FEC39DC39940C099EA33FA08E2FDC39E7D
:1001D000C39940B399EA33FA08EBC46B6C6A3027D1
:1001E00001F4540F70A1C3EBF4FA9460FBECF454E7
:1001F0000F9400FC5018EA7C007B00600CC3135085
:1002000007B55C05055D8006E4F55C755D00302290
:100210001BC3EB94D0F5F0EC94074003ABF0FC303B
:100220002101B39226C3EB33FBEC33FCEB54F04CCF
:10023000C475F00584FAEC13FCEB132AFBEC3400D4
:10024000FC30E3047BFF7C07201C27301124EC707A
:100250000C798187F0C3EB95F05002ABF0E5376085
:100260001175F028A42BFBEC3400FC30E3047BFF79
:100270007C07EB54F84CC423F97007EB7004D225CB
:100280008005753200C225E53060021530C3E54DAA
:10029000FD954E4002AD4EC3ED995002EDF9E9F4E3
:1002A000F97A00C3E99432FBEA9400FC5005E4FBC0
:1002B000FC800DC3EB9550EC95514004AB50AC5114
:1002C00089EA8BFC75310A302719302816758E01A2
:1002D0007589A2D28543A420780085648AC28DD214
:1002E000A980097800758A00D2A8D2AAD0F0D0E0FF
:1002F000D0D032C0E0C2CF053CD223E5317004D269
:100300002580021531302507E5320460020532D020
:10031000E032C2AF53E67F53917F7592FA7593FF37
:10032000C218D2AF32C0E0E58A85588BC0D075D0F4
:1003300008F208D0D0D0E032C2AAD28EC2CA85CE8E
:100340005985CF5AD2CA32327A007901801E7A009A
:10035000790580187A00790A80127A007964800C15
:100360007A0079C880067A0079FA8000090A800943
:10037000781874FFD5E0FDD8F9D9F5DAF3227A427E
:100380007B3580247A2D7B4D801E7A267B5C8018FD
:100390007A197B8C80127A147BAF800C7A427B1E98
:1003A00080067A2D7B2C8000E5547001227902E4CE
:1003B000C292D5E0FDD293D5E0FDC293D5E0FDD247
:1003C00092D5E0FDE920E002D29130E002D295E53D
:1003D00054D5E0FDE920E002C29130E002C29574FC
:1003E00096D5E0FDD9C9EA78C8D8FED5E0F9DBBDDD
:1003F000C29222717E7184718A2271A2717E2271F1
:100400008A7184717E2271A2719C2279998754B875
:100410000104717E8017B8020471848010B803044F
:10042000718A8009B8040471908002719679988766
:100430005422903070E493F4601D7C3E903074E45C
:1004400093A3FB6012E493FA600471A88006EBF9B1
:100450007A00716CA3DCE82278A5E6F954037000F9
:10046000E9540C7000E954307000E954C070002267
:10047000C291C293C295C290C292C29475D5FF2216
:10048000201E32A84F20102A78FFE53B6024E54368
:10049000602074FF301102747F8543F084853BF047
:1004A000A4F8C5F06004754EFF22C3E8954F5002D2
:1004B000A84F884E22C3E54294A0E5439400E54E40
:1004C0005003148001046002F54E2210230122051E
:1004D00067E5675407600122E56720E335E5526070
:1004E000267553FFE5BE601FE5BDC39552401875E4
:1004F00053C8940440117553969404400A7553648C
:1005000094044003755332202401228538657566B2
:100510000C22E552600FC3E54D9553600840041569
:100520004D8002054D30246EE5675438B40829C368
:10053000E53994785003E4800475F00984A213929D
:10054000E7A21492E6A21592E5C213C214C215F5F1
:100550006575660E75E89522B4180A756588756626
:100560000875E89522B4280A7565AA75660A75E8C3
:100570009522E5BE7003E48018E5BD94148012E571
:10058000BE700AE5BDC394EB5007E48004E5BD24CA
:1005900014F56575660275E895227542007543F09D
:1005A00022C2AFC2CAA8CEA9CFAA3C30CF010AD27C
:1005B000CAD2AFC3EA13FAE913F9E813F82010140A
:1005C000C3E8953D883DF8E9953E893E547FF93072
:1005D0001E36C1BBAB3DAC3EAD3F883D893E8A3F38
:1005E000C3E89BE99CEA9D547F60087542FF754310
:1005F000FFC18AAE40AF418B408C41C3E89EF8E911
:100600009FF9AA42AB438011AA42AB43C3EB9404C7
:10061000404894044013201126C3EB13FDEA13FC59
:10062000C3ED13FDEC13FC804AEBC423FCEAC423A6
:10063000541F4CFC7D00C3E913F9E813F88034EB38
:10064000C423FC541FFDEC54E0FCEAC423541F4CAB
:10065000FCC3E913F9E813F88019EBC4FCEAC454AD
:100660000F4CFC7D00C3E913F9E813F8C3E913F953
:10067000E813F8C3EA9CFAEB9DFBEA28F542EB3954
:10068000F54350067542FF7543FFC3E5439402509E
:1006900002D21EE543C4FA540FFBEA54F0FAE542D5
:1006A000C4540F4AFAC3EA9402FAEB9400FB4005E3
:1006B0007048EA70457A017B00803FAA42AB43EB69
:1006C000C4FCEAC4540F4CFCC3EA9CFAEB9400FB54
:1006D000E80303543F2AFAEB3400FB8A428B43C3FE
:1006E00094024002C21EEBC4FE7B00EAC4540F4ECB
:1006F000C39402FA400270027A01202806301808DA
:10070000120ADC30180280FB854992854A93D21880
:1007100043E6807892E6FFC3E49AF8E49BF9C3E8E5
:1007200033F8E933F9201E7F3010047F038015C3AE
:10073000E5389482400E0F941E40010FC3EF9406DB
:1007400040027F05E8FAE9FBD3E913FDE813FC8CCE
:10075000478D488849894AC3EF9403602BEF20E016
:100760000CE82CF8E93DF9ECFAEDFB800BE8D33806
:10077000F8E939F97AFF7BFFC3EF9403400A8A4B0B
:100780008B4C884589468050884B894C8A458B46DE
:10079000301045754BF0754CFF7547F07548FF7587
:1007A00049F0754AFF8031E8FAD313FC8C47884939
:1007B000C3EF9403601EEF20E007E82CF8ECFA800A
:1007C00007E8282401F87AFFC3EF940340068A4B18
:1007D00088458004884B8A45202806301808120A6C
:1007E000DC30180280FB753502D21843E6803011E8
:1007F0002DA842A943C3E913F9E813F8301004E91E
:100800002440F9C2AF53E67F759100C3E498F59494
:10081000E499F595759104D21843E680D2AF22751C
:10082000F000301D0E75F040800975F040301D035A
:1008300075F000D2197544007A027B02201E1D302B
:100840001102C2193010067A367B36800F7B28E5FC
:1008500043700104FAC3942840027A28201811E555
:1008600044600D301003D53504D21A80671207E9B1
:100870000544E59B5440B5F00DE53460BB2019B844
:10088000DADAC21A804E20100B2019110AC3EA9B33
:1008900040CA80A40AC3EA9B40011A80BFC2195310
:1008A000E67F759100301E117594007595F0759175
:1008B00004D21843E680020838E5437EFFC3334084
:1008C00009C3334005C3334001FEC3E49E75940061
:1008D000F59580DAC2AF53E67F85459285469375DC
:1008E0009100854B94854C95759104D21843E68010
:1008F000D2AF201018301A17201114201D11201902
:100900000EC2AF1204701581158102123605342211
:10091000E53875F007A430190405F0D213A2F013DE
:10092000A2F113A2F213F538C39478500375387806
:10093000C3E53895394003853839C3E538953A40E1
:100940000BD214C291C293C29575D5FF20280530F1
:10095000180751DC30180280FB854792854893D2F6
:100960001843E6802220120FC2AFC292D29075D5F2
:10097000CFD2AF759F1022C2AFC292D29475D5FC70
:10098000D2AF759F102220120FC2AFC29575D5F35A
:10099000D290D2AF759F1122C2AFC29175D5F3D25A
:1009A00094D2AF759F122220120FC2AFC290D29480
:1009B00075D5F3D2AF759F1222C2AFC294D2907593
:1009C000D5F3D2AF759F112220120FC2AFC293751B
:1009D000D5FCD294D2AF759F1022C2AFC29375D509
:1009E000CFD290D2AF759F102220120FC2AFC29407
:1009F000D29275D5FCD2AF759F1122C2AFC290D2F0
:100A00009275D5CFD2AF759F122220120FC2AFC2FE
:100A10009175D5CFD292D2AF759F1222C2AFC29537
:100A200075D5FCD292D2AF759F11227432A2854047
:100A3000032085F750033085F2D5E0F3922722E5B5
:100A40005C700122F8C39406500FC2AF12047012FA
:100A5000040B120360D2AF807CC3E55D9406407B3B
:100A6000B80704C221806EB80804D2218067B80993
:100A700004C2228060B80A04D2228059B80D0A75D7
:100A8000650075660ED224804CB80E0A7565FF7538
:100A9000660EC224803FB8140C7988E714A2E09255
:100AA00021C22A8030B8150D7988E714A2E0B392EC
:100AB00021D22A8020B80C1DE4A22192E0A2229229
:100AC000E1047988F77555A57556F1B15175550052
:100AD000755600D2AF755C00755D0022C0D075D030
:100AE00010BE0039E566702EC2AFE542854327D2BD
:100AF000AFA23813F9A2391329FAE52703C2E7F99F
:100B000003C2E739FBE527232354FCFCC3EA9CF529
:100B100026EB9400F5270E201803D0D022BE012426
:100B2000E5667010E527705DE526701175270F7575
:100B300026FF80098565268566277566000E2018C4
:100B400003D0D022BE0215E526C465266527F478B9
:100B5000D0A65E91020E201803D0D022BE030BE572
:100B60002691020E201803D0D022BE040CE526C424
:100B700091020E201803D0D022E5279102087E00B2
:100B8000D0D0D2282220E71620E61D20E52720E439
:100B90003420E34120E25020E15CE526809FA2372B
:100BA00033F52675270F8095A23733A23633F52605
:100BB00075270D8088A23733A23633A23533F52648
:100BC00075270B613DE52654F0C23C4527C4F52648
:100BD000752709613DE526A23813A23913A23A13FD
:100BE000F526752707613DE526A23813A23913F5CE
:100BF00026752705613DE526A23813F526752703DE
:100C0000613D540F23900C09738129813381408108
:100C100051815B816881728186819381A781AE81D8
:100C2000BF81C981E081EA81FE08A66008A65E084E
:100C3000A65E2208A65E08A65F08A65E08A65E223B
:100C400086F0E55FB5F002E560F608A66008A65EEE
:100C50002208A65E08A66008A65E2208A65F08A66F
:100C60005E08A65E08A65E2208A65F08A65F08A624
:100C70005E2286F0E55FB5F002E560F608A65E0844
:100C8000A65F08A65E2208A65E08A65E08A65F0804
:100C9000A65E2286F0E55FB5F002E560F608A65F85
:100CA00008A65E08A65E2208A66008A65F2286F057
:100CB000E55FB5F002E560F608A65F08A65F2208CA
:100CC000A65E08A65F08A65F2286F0E55FB5F00283
:100CD000E560F608A65E08A65E08A65E08A65E2287
:100CE00008A65F08A65E08A65F2286F0E55FB5F05D
:100CF00002E560F608A65E08A65E08A65F2208A6C2
:100D00005E08A65E08A65E08A65F2290300D7820D9
:100D1000B191E520B4550AA3B191E520B4AA0280AF
:100D2000127555A57556F1D118B151755500755606
:100D300000801D90300378807B0AB191A308DBFA14
:100D400090300F788C7B1CB191A308DBFA90302B8C
:100D500022C2AFB1D4B1F6B1B19030007400B196F7
:100D6000A37415B196A374D0B19690300378807BAC
:100D70000AB195A308DBFA90300F788C7B1CB195F3
:100D8000A308DBFAB1E7D109B1C590302B1203609B
:100D900022E493F622E6438F01538FFDFFC3E583E0
:100DA00094F0400122EF8555B78556B7F0538FFE7A
:100DB00022438F02438F018555B78556B790300D7A
:100DC000F0538FFC2290300D7455B19690300E7414
:100DD000AAB196227A3079D07820903040B191E54E
:100DE00020F709A3DAF7227A3079D0903040E7B1C2
:100DF0009609A3DAF9227A8C79007820903070B1C4
:100E000091E520F309A3DAF7227A8C79009030700B
:100E1000E3B19609A3DAF922788076FF08761508FF
:100E200076010876FF0876050876FF0876090876C9
:100E3000600876010876FF08080876FF0876FF0844
:100E400076FF0876FF0876FF0876FF0876040876B6
:100E5000FF0876FF0876FF0876FF0876FF087628F9
:100E60000876500876040876FF0876020876FF08B0
:100E700076FF0876FF0876000876FF0876FF08768A
:100E8000FF08760008760008760208760022788847
:100E9000E614A2E19222A2E0922178847450965046
:100EA0000276507886740D965002760D863B789CBB
:100EB000E6753AFFB40203753AA0B40303753A82AB
:100EC00075520078A0E6F9600A74538002742824F1
:100ED00009D9FCF55278988654788DE6755100F55D
:100EE00050B6FF037550FF22755500755600759773
:100EF000DE7597AD7581B075EF0675A900120470A7
:100F00007580FF75F1E175A4007580FF75D4FF75DC
:100F1000900075F23F75A53F75900075D5FF75A6D9
:100F20000175A72075F30175A70075E34075E2020E
:100F3000120470E4F8F6D8FDD118B10BD18EC2AF0F
:100F400012035A12043212045812035AC2AF7555D2
:100F50000075560012047075A91375A71075C100AD
:100F600075A700780979007A0030850CDAFBD9F989
:100F7000D8F71203FA02F00030290E1203F312031D
:100F800066120366120366C229758851758E017553
:100F900089AA758C00758D0075C80475910475D883
:100FA0004075D90875F780759E0775960175DB4207
:100FB00075DA42759B80759D00759D4075AF1875FB
:100FC000B90A75DF2F75BB1075E88575B22012035D
:100FD00048512B75E4D530270375E45DC213C21464
:100FE000C215C228C22475A82D75E68075B803D233
:100FF000AF758E0C755880755710755B50755EF720
:10100000755FE77560D67564E17561EB7562CA75E9
:1010100063A975300A12035AE530602B7558C07504
:101020005708755B28755EFF755FF77560EF75642F
:10103000E17561FB7562EB7563DA75300A12035A6C
:10104000E5306003020F4CC0D075D010AF8ED0D009
:10105000D229753700C2AF12039CD2AFC3E53294D8
:101060000A40F9C2AF1203A2D2AFE4F542F543F54C
:101070005CF55DF533F53CC3E53C945E4033753C6F
:10108000000533789AE67814146012782814600DFD
:10109000786414600878C8146003753300C3E533BE
:1010A00098400E15337804C2AF12047012040BD2AC
:1010B000AF202806120ADC1204CB30250CE5317073
:1010C00003020F4C120A3F80AE12035A2025A87863
:1010D000A7B60108202405120406809BC2AF1204A3
:1010E00070E4752200752300753800753900756647
:1010F000007984874F854F4E854F4D854F5375A797
:101100001075C11075A70075A903C3E55833F558CC
:10111000C3E55B33F55BC3E55733F557E55EC56162
:10112000F55EE55FC562F55FE560C563F560756412
:101130003CA2219212302204A2269212D210D21185
:1011400075340075360C1209E9120A0A12059A1252
:1011500005A112059A1205A112059AD2AF12082A0A
:101160001209101209651205A112081F120480123B
:1011700009101209861205A112082A120910120973
:10118000A71205A112081F1209101209C81205A101
:1011900012082A1209101209E91205A112081F12D9
:1011A0000910120A0A1205A11204CB3011353010B1
:1011B00014854F4D854F4EC3E534941850053025A6
:1011C0009C8078C210201D1BE53614600AF536306D
:1011D000258B2022888064C211754DFF7553FFD284
:1011E0001C215D753700D21B30251320220C79A4F9
:1011F000E76007C3E53294035041E531603D2022AA
:1012000009C3E54394F05033215D201D12201205DF
:1012100020260580EC2026E9D21D854F4E218485AD
:101220004F4EC3E5439440400BC21DA2269212D2FA
:1012300011753612215D201B020537C2AF120470F2
:1012400075220075230075A91375A71075C1007567
:10125000A700D3E55813F558C3E55B13F55BC3E569
:101260005713F557E55EC561F55EE55FC562F55F4D
:10127000E560C563F5607564E1202520D215C3E5FE
:10128000379403500612035A0210DCD2AF202A0210
:10129000C224C2AF1203FFD2AF021047D2AF202A3E
:1012A00002C22475370078A4E66006D290D292D2AA
:0412B0009402106A2A
:102FFD00020EE80015D0FF1501FF05FF096001FF66
:10300D0055AAFFFFFFFFFFFF04FFFFFFFFFF285043
:0F301D0004FF02FFFFFF00FFFFFF00000200FFA4
:1030400023425F585F35302320202020202020207D
:1030500023424C48454C492445464D38423531239E
:10306000426C75656A617920282E30292020202045
:10307000023A042034420D00452D0D0034420D006B
:0B3080004E27D300452DD01934190055
:10F00000C2AFC2D37597DE7597AD7581C075A90083
:10F0100075243875250331D87529A5752AF143F172
:10F020002053A4DFD28575D4FF75E3407DFA7803C1
:10F0300079E67C1075220075230090F1E57B06755A
:10F0400024987525013085020145208508D8FBD913
:10F05000F9DCF701B7308508D8FBD9F9DCF701B73F
:10F060003198E493A3C39A6004DDC301B7DBDB31BD
:10F070008A6002012E7B08E493FAA3316BDBF87AF5
:10F0800030316B752200752300318AEAFCEBFDC339
:10F09000ED94FE400E318A8A278B28ED30E0048AF9
:10F0A000828B83318A7AC270D8C3ED94FE60195086
:10F0B000CEBD0029EC600F7520007521FF75290079
:10F0C000752A000200000100A827A9280809D80411
:10F0D000D90201DA318EEAF201CE0D01A3C3ED941B
:10F0E000035051EDA2E092007AC5C3E5829400E599
:10F0F0008394F0508C200010438F02438F018529A8
:10F10000B7852AB7F0300027A827A9280809438F18
:10F1100001538FFDD804D902212FC3E58394F04019
:10F1200003A32114E28529B7852AB7F0A32114533C
:10F130008FFC017F7AC1BD030CE493A3FA314FDC4D
:10F14000F83147017F0181AA22AB23316BEBFAEA48
:10F150006222752608C3E52313F523E52213F52261
:10F1600050066323A0632201D526EA31D831D87531
:10F17000260AEAF4200102D285300102C28531D884
:10F18000C3134002C201D526EB22318EEAFB208553
:10F1900002218E3085022193752608AE24AF25C347
:10F1A000EF13FFEE13FE31DC31D8C3EA13308502D2
:10F1B0004480FA30E703632201C3E52313F523E516
:10F1C0002213F52250066323A0632201D526D9E538
:10F1D0002265236523F52222AE24AF250E0FDEFE25
:10F1E000DFFCD20122424C48656C6934373164E857
:03F1F000B5060160
:00000001FF
