:060000000219FD020325B8
:03000B0002008070
:03001300020338AD
:03001B000200B030
:03002B000202F3DB
:03005B0002034756
:0300730002031273
:10008000C0D075D01018B8CF0408208107B281867F
:100090008AD0D03253A4FDD281C2A98F8E7589AA8D
:1000A000C289C28B758A00D2A8D2AAC228D0D03207
:1000B000C2A8C28E85588BC0D075D008C0E0C0F0F1
:1000C000C2CAA9CCAACDD2CAC3E99559F9EA955AB0
:1000D0007049C3E9955B4043955B503FB8103C784D
:1000E00000A9577D00E2FEC39DC399402E99EC33D1
:1000F000FC08E2FDC39EC399402199EC33FC08E261
:10010000FEC39DC399401499EC33FC08E2FDC39EE5
:10011000C399400799EC33FC088002806AE2FEC371
:100120009DC399406299EB33FB08E2FDC39EC399DE
:10013000405599EB33FB08E2FEC39DC399404899B3
:10014000EB33FB08E2FDC39EC399403B99EB33FBC5
:1001500008E2FEC39DC399402E99EB33FB08E2FDF4
:10016000C39EC399402199EB33FB08E2FEC39DC3B4
:1001700099401499EB33FB08E2FDC39EC3994007F5
:1001800099EB33FB08801E0530E53070021530C353
:10019000E5309432400AD225755C00755D0041E37C
:1001A00075310A41E3E2FEC39DC39940DA99EA330F
:1001B000FA08E2FDC39EC39940CD99EA33FA08E2FA
:1001C000FEC39DC39940C099EA33FA08E2FDC39E7D
:1001D000C39940B399EA33FA08EBC46B6C6A3027D1
:1001E00001F4540F70A1C3EBF4FA9460FBECF454E7
:1001F0000F9400FC5018EA7C007B00600CC3135085
:1002000007B55C05055D8006E4F55C755D00302290
:100210001BC3EB94D0F5F0EC94074003ABF0FC303B
:100220002101B39226C3EB33FBEC33FCEB54F04CCF
:10023000C475F00584FAEC13FCEB132AFBEC3400D4
:10024000FC30E3047BFF7C07201C27301124EC707A
:100250000C798187F0C3EB95F05002ABF0E5376085
:100260001175F028A42BFBEC3400FC30E3047BFF79
:100270007C07EB54F84CC423F97007EB7004D225CB
:100280008005753200C225E53060021530C3E54DAA
:10029000FD954E4002AD4EC3ED995002EDF9E9F4E3
:1002A000F97A00C3E99428FBEA9400FC5005E4FBCA
:1002B000FC800DC3EB9550EC95514004AB50AC5114
:1002C00089FC8BEA75310A302719302816758E01A2
:1002D0007589A2D28143A402780085648AC28DD236
:1002E000A980097800758A00D2A8D2AAD0F0D0E0FF
:1002F000D0D032C0E0C2CF053CD223E5317004D269
:100300002580021531302507E5320460020532D020
:10031000E032C2AF53E67F53917F7592FA7593FF37
:10032000C218D2AF32C0E0E58A85588BC0D075D0F4
:1003300008F208D0D0D0E032C2AAD28EC2CA85CC90
:100340005985CD5AD2CA32327A007901801E7A009C
:10035000790580187A00790A80127A007964800C15
:100360007A0079C880067A0079FA8000090A800943
:10037000781874FFD5E0FDD8F9D9F5DAF3227A427E
:100380007B3580247A2D7B4D801E7A267B5C8018FD
:100390007A197B8C80127A147BAF800C7A427B1E98
:1003A00080067A2D7B2C8000E5547001227902E4CE
:1003B000C291D5E0FDD286D5E0FDC286D5E0FDD262
:1003C00091D5E0FDE920E002D28530E002D287E558
:1003D00054D5E0FDE920E002C28530E002C2877416
:1003E00096D5E0FDD9C9EA78C8D8FED5E0F9DBBDDD
:1003F000C29122717E7184718A2271A2717E2271F2
:100400008A7184717E2271A2719C2279998754B875
:100410000104717E8017B8020471848010B803044F
:10042000718A8009B8040471908002719679988766
:100430005422901A70E493F4601D7C3E901A74E488
:1004400093A3FB6012E493FA600471A88006EBF9B1
:100450007A00716CA3DCE82278A5E6F95403D28314
:100460007002C283E9540CD2847002C284E9543011
:100470007000E954C0700022C285C286C287C29053
:10048000C291C29275D4FF75D5FF22201E32A84FAB
:1004900020102A78FFE53B6024E543602074FF309C
:1004A0001102747F8543F084853BF0A4F8C5F060A9
:1004B00004754EFF22C3E8954F5002A84F884E2284
:1004C000C3E54294A0E5439400E54E500314800137
:1004D000046002F54E22102301220567E5675407E8
:1004E000600122E56720E335E55260267553FFE59C
:1004F000BE601FE5BDC3955240187553C8940440B3
:10050000117553969404400A75536494044003751E
:1005100053322024012285386575660C22E552602D
:100520000FC3E54D955360084004154D8002054DFD
:10053000302473E5675438B40829C3E539947850FA
:1005400003E4800475F00984A21392E7A21492E6F2
:10055000A21592E5C213C214C215F56575660E7533
:10056000E89022B4180A75658875660875E89022C7
:10057000B4280A7565AA75660A75E8902278A6B649
:10058000010DE5BE7003E48018E5BD94148012E50A
:10059000BE700AE5BDC394EB5007E48004E5BD24BA
:1005A00014F56575660275E890227542007543F092
:1005B00022C2AFC2CAA8CCA9CDAA3C30CF010AD270
:1005C000CAD2AFC3EA13FAE913F9E813F8201014FA
:1005D000C3E8953D883DF8E9953E893E547FF93062
:1005E0001E36C1CBAB3DAC3EAD3F883D893E8A3F18
:1005F000C3E89BE99CEA9D547F60087542FF754300
:10060000FFC19AAE40AF418B408C41C3E89EF8E9F0
:100610009FF9AA42AB438011AA42AB43C3EB9404B7
:10062000404894044013201126C3EB13FDEA13FC49
:10063000C3ED13FDEC13FC804AEBC423FCEAC42396
:10064000541F4CFC7D00C3E913F9E813F88034EB28
:10065000C423FC541FFDEC54E0FCEAC423541F4C9B
:10066000FCC3E913F9E813F88019EBC4FCEAC4549D
:100670000F4CFC7D00C3E913F9E813F8C3E913F943
:10068000E813F8C3EA9CFAEB9DFBEA28F542EB3944
:10069000F54350067542FF7543FFC3E5439402508E
:1006A00002D21EE543C4FA540FFBEA54F0FAE542C5
:1006B000C4540F4AFAC3EA9402FAEB9400FB4005D3
:1006C0007048EA70457A017B00803FAA42AB43EB59
:1006D000C4FCEAC4540F4CFCC3EA9CFAEB9400FB44
:1006E000E80303543F2AFAEB3400FB8A428B43C3EE
:1006F00094024002C21EEBC4FE7B00EAC4540F4EBB
:10070000C39402FA400270027A01202806301808C9
:10071000120B1330180280FB854992854A93D21838
:1007200043E6807892E6FFC3E49AF8E49BF9C3E8D5
:1007300033F8E933F9201E7F3010047F038015C39E
:10074000E5389482400E0F941E40010FC3EF9406CB
:1007500040027F05E8FAE9FBD3E913FDE813FC8CBE
:10076000478D488849894AC3EF9403602BEF20E006
:100770000CE82CF8E93DF9ECFAEDFB800BE8D338F6
:10078000F8E939F97AFF7BFFC3EF9403400A8A4BFB
:100790008B4C884589468050884B894C8A458B46CE
:1007A000301045754BF0754CFF7547F07548FF7577
:1007B00049F0754AFF8031E8FAD313FC8C47884929
:1007C000C3EF9403601EEF20E007E82CF8ECFA80FA
:1007D00007E8282401F87AFFC3EF940340068A4B08
:1007E00088458004884B8A45202806301808120B5B
:1007F0001330180280FB753502D21843E6803011A1
:100800002DA842A943C3E913F9E813F8301004E90D
:100810002440F9C2AF53E67F759100C3E498F59484
:10082000E499F595759104D21843E680D2AF22750C
:10083000F000301D0E75F040800975F040301D034A
:1008400075F000D2197544007A027B02201E1D301B
:100850001102C2193010067A367B36800F7B28E5EC
:1008600043700104FAC3942840027A28201811E545
:1008700044600D301003D53504D21A80671207F991
:100880000544E5BF5440B5F00DE53460BB2019B810
:10089000DADAC21A804E20100B2019110AC3EA9B23
:1008A00040CA80A40AC3EA9B40011A80BFC2195300
:1008B000E67F759100301E117594007595F0759165
:1008C00004D21843E680020848E5437EFFC3334064
:1008D00009C3334005C3334001FEC3E49E75940051
:1008E000F59580DAC2AF53E67F85459285469375CC
:1008F0009100854B94854C95759104D21843E68000
:10090000D2AF201018301A17201114201D112019F1
:100910000EC2AF1204781581158102127D053422B2
:10092000E53875F007A430190405F0D213A2F013CE
:10093000A2F113A2F213F538C394785003753878F6
:10094000C3E53895394003853839C3E538953A40D1
:100950000ED214C285C286C28775D4FF75D5FF201A
:100960002805301807711330180280FB85479285DF
:100970004893D21843E68022201212C2AFC291D20D
:100980009075D47F75D5FBD2AF75AA5322C2AFC282
:1009900091D29275D4DF75D5FED2AF75AA532220BD
:1009A0001212C2AFC28775D4BF75D5FDD290D2AF37
:1009B00075AA4322C2AFC28575D4BF75D5FDD29248
:1009C000D2AF75AA6322201212C2AFC290D2927522
:1009D000D4BF75D5FDD2AF75AA6322C2AFC292D281
:1009E0009075D4BF75D5FDD2AF75AA4322201212DF
:1009F000C2AFC28675D4DF75D5FED292D2AF75AACA
:100A00005322C2AFC28675D47F75D5FBD290D2AFC8
:100A100075AA5322201212C2AFC292D29175D4DFAE
:100A200075D5FED2AF75AA4322C2AFC290D29175DE
:100A3000D47F75D5FBD2AF75AA6322201212C2AF44
:100A4000C28575D47F75D5FBD291D2AF75AA6322CA
:100A5000C2AFC28775D4DF75D5FED291D2AF75AA69
:100A600043227432A28140032081F750033081F287
:100A7000D5E0F3922722E55C700122F8C39406507A
:100A80000FC2AF12047812040B120360D2AF807C45
:100A9000C3E55D9406407BB80704C221806EB808A8
:100AA00004D2218067B80904C2228060B80A04D247
:100AB000228059B80D0A75650075660ED224804CE7
:100AC000B80E0A7565FF75660EC224803FB8140C17
:100AD0007988E714A2E09221C22A8030B8150D79F6
:100AE00088E714A2E0B39221D22A8020B80C1DE43A
:100AF000A22192E0A22292E1047988F77555A575AA
:100B000056F1B188755500755600D2AF755C007509
:100B10005D0022C0D075D010BE0039E566702EC2CF
:100B2000AFE542854327D2AFA23813F9A239132982
:100B3000FAE52703C2E7F903C2E739FBE5272323D8
:100B400054FCFCC3EA9CF526EB9400F5270E201814
:100B500003D0D022BE0124E5667010E527705DE564
:100B600026701175270F7526FF8009856526856615
:100B7000277566000E201803D0D022BE0215E52688
:100B8000C465266527F478D0A65E91390E20180337
:100B9000D0D022BE030BE52691390E201803D0D009
:100BA00022BE040CE526C491390E201803D0D022B1
:100BB000E5279139087E00D0D0D2282220E71620E0
:100BC000E61D20E52720E43420E34120E25020E127
:100BD0005CE526809FA23733F52675270F8095A206
:100BE0003733A23633F52675270D8088A23733A216
:100BF0003633A23533F52675270B6174E52654F09C
:100C0000C23C4527C4F5267527096174E526A2383C
:100C100013A23913A23A13F5267527076174E52646
:100C2000A23813A23913F5267527056174E526A2AB
:100C30003813F5267527036174540F23900C407305
:100C40008160816A817781888192819F81A981BD3C
:100C500081CA81DE81E581F6A100A117A121A1351C
:100C600008A66008A65E08A65E2208A65E08A65F23
:100C700008A65E08A65E2286F0E55FB5F002E56094
:100C8000F608A66008A65E2208A65E08A66008A66A
:100C90005E2208A65F08A65E08A65E08A65E220879
:100CA000A65F08A65F08A65E2286F0E55FB5F002A3
:100CB000E560F608A65E08A65F08A65E2208A65EA6
:100CC00008A65E08A65F08A65E2286F0E55FB5F07E
:100CD00002E560F608A65F08A65E08A65E2208A6E2
:100CE0006008A65F2286F0E55FB5F002E560F608D1
:100CF000A65F08A65F2208A65E08A65F08A65F2278
:100D000086F0E55FB5F002E560F608A65E08A65E2F
:100D100008A65E08A65E2208A65F08A65E08A65F73
:100D20002286F0E55FB5F002E560F608A65E08A64B
:100D30005E08A65F2208A65E08A65E08A65E08A654
:100D40005F22901A0D7820B1C8E520B4550AA3B1EE
:100D5000C8E520B4AA0280127555A57556F1D14F89
:100D6000B188755500755600801D901A0378807BF8
:100D70000AB1C8A308DBFA901A0F788C7B1CB1C8A3
:100D8000A308DBFA901A2B22C2AFD10BD12DB1E808
:100D9000901A007400B1CDA37415B1CDA374D0B175
:100DA000CD901A0378807B0AB1CCA308DBFA901AA5
:100DB0000F788C7B1CB1CCA308DBFAD11ED140B1DB
:100DC000FC901A2B12036022E493F622E6438F0173
:100DD000538FFDFFC3E583941C400122EF8555B777
:100DE0008556B7F0538FFE22438F02438F018555FE
:100DF000B78556B7901A0DF0538FFC22901A0D74D8
:100E000055B1CD901A0E74AAB1CD227A3079D0782E
:100E100020901A40B1C8E520F709A3DAF7227A300A
:100E200079D0901A40E7B1CD09A3DAF9227A8C790A
:100E3000007820901A70B1C8E520F309A3DAF722F0
:100E40007A8C7900901A70E3B1CD09A3DAF922788F
:100E50008076FF0876150876010876FF0876050883
:100E600076FF0876090876600876010876FF08089C
:100E70000876FF0876FF0876FF0876FF0876FF08F9
:100E800076FF0876040876FF0876FF0876FF087676
:100E9000FF0876FF0876280876500876040876FF63
:100EA0000876020876FF0876FF0876FF08760008C5
:100EB00076FF0876FF0876FF087600087600087649
:100EC00002087600227888E614A2E19222A2E0923B
:100ED000217884745096500276507886740D96501E
:100EE00002760D863B789CE6753AFFB40203753AAC
:100EF000A0B40303753A8275520078A0E6F9600F3A
:100F000078A6B601047453800274282409D9FCF52C
:100F10005278988654788DE6755100F550B6FF03E7
:100F20007550FF227555007556007597DE7597ADA3
:100F30007581B043FF8075EF0675A90012047875BE
:100F4000800275F1FF75A4F875800275D4FF759065
:100F50000075F20775A50775900075D5FF75A60198
:100F600075A72075F30175CC0175A70075E3407571
:100F7000E202120478E4F8F6D8FDD14FB142D1C5AF
:100F8000C2AF12035A12043212045812035AC2AFEB
:100F900075550075560012047875A91375A710755C
:100FA000C10075A700780979007A0030810CDAFB5E
:100FB000D9F9D8F71203FA021C0030290E1203F3F4
:100FC000120366120366120366C229758851758E74
:100FD000017589AA758C00758D0075C8047591041A
:100FE00075D84075D90875F780759E077596027596
:100FF000DA4275DB4275BF8075AB0078A6B6010595
:1010000075D11C800375D10C75BCB975BB1075E822
:101010008075B201120348120A6275E49130270309
:1010200075E419C213C214C215C228C22475A82DB2
:1010300075E68075B803D2AF758E0C7558807557FC
:1010400010755B50755EF7755FE77560D67564E186
:101050007561EB7562CA7563A975300A12035AE5AA
:1010600030602B7558C0755708755B28755EFF7525
:101070005FF77560EF7564E17561FB7562EB756331
:10108000DA75300A12035AE5306003020F8EC0D0C1
:1010900075D010AF8ED0D0D229753700C2AF1203F1
:1010A0009CD2AFC3E532940A40F9C2AF1203A2D278
:1010B000AFE4F542F543F55CF55DF533F53CC3E58A
:1010C0003C945E4033753C000533789AE6781414FE
:1010D0006012782814600D786414600878C8146071
:1010E00003753300C3E53398400E15337804C2AF5F
:1010F00012047812040BD2AF202806120B1312042C
:10110000D630250CE5317003020F8E120A7680AEC0
:1011100012035A2025A878A7B60108202405120436
:1011200006809BC2AF120478E47522007523007517
:1011300038007539007566007984874F854F4E8574
:101140004F4D854F5375A71075C13075A70075A910
:1011500003C3E55833F558C3E55B33F55BC3E55787
:1011600033F557E55EC561F55EE55FC562F55FE5A0
:1011700060C563F56075643CA2219212302204A21E
:10118000269212D210D21175340075360C120A1440
:10119000120A3B1205AA1205B11205AA1205B112D4
:1011A00005AAD2AF12083A1209201209781205B125
:1011B00012082F12048B12092012099F1205B11276
:1011C000083A1209201209C61205B112082F120995
:1011D000201209ED1205B112083A120920120A1460
:1011E0001205B112082F120920120A3B1205B11282
:1011F00004D6301135301014854F4D854F4EC3E560
:10120000349418500530259C8078C210201D1BE5B1
:101210003614600AF53630258B2022888064C2118E
:10122000754DFF7553FFD21C21A4753700D21B30BA
:10123000251320220C79A4E76007C3E532940350FC
:1012400041E531603D202209C3E54394F05033214C
:10125000A4201D1220120520260580EC2026E9D2AC
:101260001D854F4E21CB854F4EC3E5439440400B27
:10127000C21DA2269212D21175361221A4201B0281
:101280000537C2AF12047875220075230075A913C3
:1012900075A71075C10075A700D3E55813F558C39D
:1012A000E55B13F55BC3E55713F557E55EC561F5DF
:1012B0005EE55FC562F55FE560C563F5607564E195
:1012C000202520D215C3E5379403500612035A0295
:1012D0001123D2AF202A02C224C2AF1203FFD2AF21
:1012E00002108ED2AF202A02C22475370078A4E6FD
:0B12F0006006D290D291D2920210B1A1
:1019FD00020F240015D0FF1501FF05FF096001FF3F
:101A0D0055AAFFFFFFFFFFFF04FFFFFFFFFF285059
:0F1A1D0004FF02FFFFFF00FFFFFF00000200FFBA
:101A400023515F485F343023202020202020202095
:101A500023424C48454C492445464D3842323123B7
:101A6000426C75656A617920282E3029202020205B
:101A7000023A042034420D00452D0D0034420D0081
:0B1A80004E27D300452DD0193419006B
:101C0000C2AFC2D37597DE7597AD7581C075A90057
:101C100043FF80752438752503B1DB7529A5752A26
:101C2000F143F10253A4FDD28175D4FF75E3407DE9
:101C3000FA780379E67C10752200752300901DE880
:101C40007B06752498752501308102814820810822
:101C5000D8FBD9F9DCF781BA308108D8FBD9F9DC97
:101C6000F781BAB19BE493A3C39A6004DDC381BA40
:101C7000DBDBB18D600281317B08E493FAA3B16EA6
:101C8000DBF87A30B16E752200752300B18DEAFC65
:101C9000EBFDC3ED94FE400EB18D8A278B28ED300D
:101CA000E0048A828B83B18D7AC270D8C3ED94FE32
:101CB000601950CEBD0029EC600F7520007521FF22
:101CC000752900752A000200008100A827A92808AC
:101CD00009D804D90281DDB191EAF281D10D81A642
:101CE000C3ED94035051EDA2E092007AC5C3E582A2
:101CF0009400E583941C508C200010438F02438F86
:101D0000018529B7852AB7F0300027A827A9280818
:101D100009438F01538FFDD804D902A132C3E58353
:101D2000941C4003A3A117E28529B7852AB7F0A325
:101D3000A117538FFC81827AC1BD030CE493A3FAEF
:101D4000B152DCF8B14A81828184AA22AB23B16E00
:101D5000EBFAEA6222752608C3E52313F523E52290
:101D600013F52250066323A0632201D526EAB1DBD6
:101D7000B1DB75260AEAF4200102D281300102C2E9
:101D800081B1DBC3134002C201D526EB22B191EA37
:101D9000FB208102A191308102A196752608AE2414
:101DA000AF25C3EF13FFEE13FEB1DFB1DBC3EA13C0
:101DB0003081024480FA30E703632201C3E5231334
:101DC000F523E52213F52250066323A0632201D5F3
:101DD00026D9E52265236523F52222AE24AF250E00
:101DE0000FDEFEDFFCD20122424C48656C693437BD
:061DF0003164E8B20601B7
:00000001FF
