:060000000219FD020335A8
:03000B0002008070
:030013000203489D
:03001B000200B030
:03002B00020303CA
:03005B0002035746
:0300730002032263
:10008000C0D075D01018B8CF0408208307B283867B
:100090008AD0D03253A4F7D283C2A98F8E7589AA91
:1000A000C289C28B758A00D2A8D2AAC228D0D03207
:1000B000C2A8C28E85588BC0D075D008C0E0C0F0F1
:1000C000C2CAA9CCAACDD2CAC3E99559F9EA955AB0
:1000D0007049C3E9955B4043955B503FB8103C784D
:1000E00000A9577D00E2FEC39DC399402E99EC33D1
:1000F000FC08E2FDC39EC399402199EC33FC08E261
:10010000FEC39DC399401499EC33FC08E2FDC39EE5
:10011000C399400799EC33FC088002806AE2FEC371
:100120009DC399406299EB33FB08E2FDC39EC399DE
:10013000405599EB33FB08E2FEC39DC399404899B3
:10014000EB33FB08E2FDC39EC399403B99EB33FBC5
:1001500008E2FEC39DC399402E99EB33FB08E2FDF4
:10016000C39EC399402199EB33FB08E2FEC39DC3B4
:1001700099401499EB33FB08E2FDC39EC3994007F5
:1001800099EB33FB08801E0530E53070021530C353
:10019000E5309432400AD225755C00755D0041F36C
:1001A00075310A41F3E2FEC39DC39940DA99EA33FF
:1001B000FA08E2FDC39EC39940CD99EA33FA08E2FA
:1001C000FEC39DC39940C099EA33FA08E2FDC39E7D
:1001D000C39940B399EA33FA08EBC46B6C6A3027D1
:1001E00001F4540F70A1C3EBF4FA9460FBECF454E7
:1001F0000F9400FC5018EA7C007B00600CC3135085
:1002000007B55C05055D8006E4F55C755D00302290
:100210001BC3EB94D0F5F0EC94074003ABF0FC303B
:100220002101B39226C3EB33FBEC33FCEB54F04CCF
:10023000C475F00584FAEC13FCEB132AFBEC3400D4
:10024000FC30E3047BFF7C07201C27301124EC707A
:100250000C798187F0C3EB95F05002ABF0E5376085
:100260001175F028A42BFBEC3400FC30E3047BFF79
:100270007C07EB54F84CC423F97007EB7004D225CB
:100280008005753200C225E53060021530C3E54DAA
:10029000FD954E4002AD4EC3ED995008ED75F00846
:1002A000A4FBACF0C3EC13F45403FAEB13F4F9C35E
:1002B000E99414FBEA9400FC5005E4FBFC800DC3B8
:1002C000EB9550EC95514004AB50AC5189FB8AFC46
:1002D0008BE98CEA75310A302719302816758E01A2
:1002E0007589A2D28343A408780085648AC28DD21E
:1002F000A980097800758A00D2A8D2AAD0F0D0E0EF
:10030000D0D032C0E0C2CF053CD223E5317004D258
:100310002580021531302507E5320460020532D010
:10032000E032C2AF53E67F53917F7592FA7593FF27
:10033000C218D2AF32C0E0E58A85588BC0D075D0E4
:1003400008F208D0D0D0E032C2AAD28EC2CA85CC80
:100350005985CD5AD2CA32327A007901801E7A008C
:10036000790580187A00790A80127A007964800C05
:100370007A0079C880067A0079FA8000090A800933
:10038000781874FFD5E0FDD8F9D9F5DAF3227A426E
:100390007B3580247A2D7B4D801E7A267B5C8018ED
:1003A0007A197B8C80127A147BAF800C7A427B1E88
:1003B00080067A2D7B2C8000E5547001227902E4BE
:1003C000C295D5E0FDD292D5E0FDC292D5E0FDD236
:1003D00095D5E0FDE920E002D29130E002D293E52C
:1003E00054D5E0FDE920E002C29130E002C29374EE
:1003F00096D5E0FDD9C9EA78C8D8FED5E0F9DBBDCD
:10040000C29522718E7194719A2271B2718E22718D
:100410009A7194718E2271B271AC2279998754B815
:100420000104718E8017B8020471948010B803041F
:10043000719A8009B8040471A0800271A679988726
:100440005422901A70E493F4601D7C3E901A74E478
:1004500093A3FB6012E493FA600471B88006EBF991
:100460007A00717CA3DCE82278A5E6F95403C28205
:100470007002D282E9540CC2817002D281E95430F8
:10048000C2807002D280E954C0700022C291C29230
:10049000C293C294C295C29675D5FF22201E32A87F
:1004A0004F20102A78FFE53B6024E543602074FF6D
:1004B000301102747F8543F084853BF0A4F8C5F0C9
:1004C0006004754EFF22C3E8954F5002A84F884E36
:1004D00022C3E54294A0E5439400E54E5003148006
:1004E00001046002F54E22102301220567E56754DE
:1004F00007600122E56720E335E55260267553FF6A
:10050000E5BE601FE5BDC3955240187553C89404FD
:1005100040117553969404400A7553649404400343
:100520007553322024012285386575660C22E55208
:10053000600FC3E54D955360084004154D800205DA
:100540004D302473E5675438B40829C3E5399478ED
:100550005003E4800475F00984A21392E7A2149278
:10056000E6A21592E5C213C214C215F56575660EB2
:1005700075E89022B4180A75658875660875E89064
:1005800022B4280A7565AA75660A75E8902278A6CD
:10059000B6010DE5BE7003E48018E5BD9414801229
:1005A000E5BE700AE5BDC394EB5007E48004E5BDE9
:1005B0002414F56575660275E8902275420075434E
:1005C000F022C2AFC2CAA8CCA9CDAA3C30CF010A42
:1005D000D2CAD2AFC3EA13FAE913F9E813F820102C
:1005E00014C3E8953D883DF8E9953E893E547FF96E
:1005F000301E36C1DCAB3DAC3EAD3F883D893E8A06
:100600003FC3E89BE99CEA9D547F60087542FF75F3
:1006100043FFC1ABAE40AF418B408C41C3E89EF875
:10062000E99FF9AA42AB438011AA42AB43C3EB94C2
:1006300004404894044013201126C3EB13FDEA1331
:10064000FCC3ED13FDEC13FC804AEBC423FCEAC4AD
:1006500023541F4CFC7D00C3E913F9E813F88034E0
:10066000EBC423FC541FFDEC54E0FCEAC423541FEC
:100670004CFCC3E913F9E813F88019EBC4FCEAC495
:10068000540F4CFC7D00C3E913F9E813F8C3E913D8
:10069000F9E813F8C3EA9CFAEB9DFBEA28F542EB74
:1006A00039F54350067542FF7543FFC3E543940295
:1006B0005002D21EE543C4FA540FFBEA54F0FAE5A7
:1006C00042C4540F4AFAC3EA9402FAEB9400FB4086
:1006D000057048EA70457A017B00803FAA42AB432F
:1006E000EBC4FCEAC4540F4CFCC3EA9CFAEB940044
:1006F000FBE80303543F2AFAEB3400FB8A428B43A6
:10070000C394024002C21EEBC4FE7B00EAC4540F35
:100710004EC39402FA400270027A01202806301873
:1007200008120AFB30180280FB854992854A93D251
:100730001843E6807892E6FFC3E49AF8E49BF9C395
:10074000E833F8E933F9201E7F3010047F03801569
:10075000C3E5389482400E0F941E40010FC3EF94FE
:100760000640027F05E8FAE9FBD3E913FDE813FC34
:100770008C478D488849894AC3EF9403602BEF204A
:10078000E00CE82CF8E93DF9ECFAEDFB800BE8D33E
:1007900038F8E939F97AFF7BFFC3EF9403400A8AFE
:1007A0004B8B4C884589468050884B894C8A458BB9
:1007B00046301045754BF0754CFF7547F07548FF96
:1007C0007549F0754AFF8031E8FAD313FC8C4788ED
:1007D00049C3EF9403601EEF20E007E82CF8ECFA21
:1007E0008007E8282401F87AFFC3EF940340068AC3
:1007F0004B88458004884B8A4520280530180751CE
:10080000FB30180280FB753502D21843E6803011A8
:100810002DA842A943C3E913F9E813F8301004E9FD
:100820002440F9C2AF53E67F759100C3E498F59474
:10083000E499F595759104D21843E680D2AF2275FC
:10084000F000301D0E75F040800975F040301D033A
:1008500075F000D2197544007A027B02201E1D300B
:100860001102C2193010067A367B36800F7B28E5DC
:1008700043700104FAC3942840027A28201810E536
:1008800044600C301003D53504D21A806611090576
:1008900044E59B5440B5F00DE53460BC2019B9DA4D
:1008A000DBC21A804E20100B2019110AC3EA9B40AC
:1008B000CB80A50AC3EA9B40011A80C0C21953E647
:1008C0007F759100301E117594007595F075910437
:1008D000D21843E680020858E5437EFFC33340093F
:1008E000C3334005C3334001FEC3E49E759400F555
:1008F0009580DAC2AF53E67F854592854693759120
:1009000000854B94854C95759104D21843E680D2AE
:10091000AF201018301A17201114201D1120190EA5
:10092000C2AF12048C1581158102126C053422E5C8
:100930003875F007A430190405F0D213A2F013A201
:10094000F113A2F213F538C394785003753878C3C5
:10095000E53895394003853839C3E538953A400B79
:10096000D214C291C292C29375D5FF2028053018C7
:100970000751FB30180280FB854792854893D218B7
:1009800043E6802220120FC2AFC295D29475D5B72C
:10099000D2AF759F4522C2AFC295D29675D5EDD222
:1009A000AF759F452220120FC2AFC29375D5DBD21F
:1009B00094D2AF759F6522C2AFC29175D5DBD29636
:1009C000D2AF759F752220120FC2AFC294D2967516
:1009D000D5DBD2AF759F7522C2AFC296D29475D5C2
:1009E000DBD2AF759F652220120FC2AFC29275D5C0
:1009F000EDD296D2AF759F4522C2AFC29275D5B7E0
:100A0000D294D2AF759F452220120FC2AFC296D2A8
:100A10009575D5EDD2AF759F6522C2AFC294D295C0
:100A200075D5B7D2AF759F752220120FC2AFC29194
:100A300075D5B7D295D2AF759F7522C2AFC29375E7
:100A4000D5EDD295D2AF759F65227432A283400353
:100A50002083F750033083F2D5E0F3922722E55C40
:100A6000700122F8C39406500FC2AF12048C120416
:100A70001B120370D2AF807CC3E55D9406407BB847
:100A80000704C221806EB80804D2218067B8090427
:100A9000C2228060B80A04D2228059B80D0A756556
:100AA0000075660ED224804CB80E0A7565FF756617
:100AB0000EC224803FB8140C7988E714A2E092217A
:100AC000C22A8030B8150D7988E714A2E0B39221CC
:100AD000D22A8020B80C1DE4A22192E0A22292E149
:100AE000047988F77555A57556F1B170755500757F
:100AF0005600D2AF755C00755D0022C0D075D01075
:100B0000BE0039E566702EC2AFE542854327D2AFFD
:100B1000A23813F9A2391329FAE52703C2E7F9032A
:100B2000C2E739FBE527232354FCFCC3EA9CF526E6
:100B3000EB9400F5270E201803D0D022BE0124E547
:100B4000667010E527705DE526701175270F752614
:100B5000FF80098565268566277566000E201803C7
:100B6000D0D022BE0215E526C465266527F478D0CC
:100B7000A65E91210E201803D0D022BE030BE526DD
:100B800091210E201803D0D022BE040CE526C4917A
:100B9000210E201803D0D022E5279121087E00D015
:100BA000D0D2282220E71620E61D20E52720E434B5
:100BB00020E34120E25020E15CE526809FA237330C
:100BC000F52675270F8095A23733A23633F52675A3
:100BD000270D8088A23733A23633A23533F5267528
:100BE000270B615CE52654F0C23C4527C4F5267509
:100BF0002709615CE526A23813A23913A23A13F53E
:100C000026752707615CE526A23813A23913F5265D
:100C1000752705615CE526A23813F5267527036163
:100C20005C540F23900C287381488152815F81703E
:100C3000817A8187819181A581B281C681CD81DE52
:100C400081E881FFA109A11D08A66008A65E08A68B
:100C50005E2208A65E08A65F08A65E08A65E22863B
:100C6000F0E55FB5F002E560F608A66008A65E2232
:100C700008A65E08A66008A65E2208A65F08A65E13
:100C800008A65E08A65E2208A65F08A65F08A65E04
:100C90002286F0E55FB5F002E560F608A65E08A6DC
:100CA0005F08A65E2208A65E08A65E08A65F08A6E4
:100CB0005E2286F0E55FB5F002E560F608A65F0803
:100CC000A65E08A65E2208A66008A65F2286F0E55A
:100CD0005FB5F002E560F608A65F08A65F2208A6E9
:100CE0005E08A65F08A65F2286F0E55FB5F002E524
:100CF00060F608A65E08A65E08A65E08A65E220844
:100D0000A65F08A65E08A65F2286F0E55FB5F00242
:100D1000E560F608A65E08A65E08A65F2208A65E45
:100D200008A65E08A65E08A65F22901A0D7820B17C
:100D3000B0E520B4550AA3B1B0E520B4AA028012F0
:100D40007555A57556F1D137B170755500755600BA
:100D5000801D901A0378807B0AB1B0A308DBFA905B
:100D60001A0F788C7B1CB1B0A308DBFA901A2B22E7
:100D7000C2AFB1F3D115B1D0901A007400B1B5A3D0
:100D80007415B1B5A374D0B1B5901A0378807B0AFD
:100D9000B1B4A308DBFA901A0F788C7B1CB1B4A312
:100DA00008DBFAD106D128B1E4901A2B1203702285
:100DB000E493F622E6438F01538FFDFFC3E583944E
:100DC0001C400122EF8555B78556B7F0538FFE22A0
:100DD000438F02438F018555B78556B7901A0DF0A2
:100DE000538FFC22901A0D7455B1B5901A0E74AA47
:100DF000B1B5227A3079D07820901A40B1B0E52090
:100E0000F709A3DAF7227A3079D0901A40E7B1B522
:100E100009A3DAF9227A8C79007820901A70B1B09F
:100E2000E520F309A3DAF7227A8C7900901A70E3AF
:100E3000B1B509A3DAF922788076FF08761508762D
:100E4000010876FF0876050876FF08760908761807
:100E50000876010876FF08080876FF0876FF08760E
:100E6000FF0876FF0876FF0876FF0876040876FF0D
:100E70000876FF0876FF0876FF0876FF08762808D0
:100E800076500876040876FF0876020876FF087622
:100E9000FF0876FF0876000876FF0876FF0876FFE1
:100EA000087600087600087602087600227888E640
:100EB00014A2E19222A2E09221788474509650020A
:100EC00076507886740D965002760D863B789CE6B7
:100ED000753AFFB40203753AA0B40303753A8275FC
:100EE000520078A0E6F9600F78A6B601047453802A
:100EF0000274282409D9FCF55278988654788DE636
:100F00002323F95403F551E954FCF550B6FF03755A
:100F100050FF227555007556007597DE7597AD75B3
:100F200081B043FF8075EF0675A90012048C7580AF
:100F3000FF75F10F75A4077580FF75D4FF759000DC
:100F400075F27E75A57E75900075D5FF75A6017545
:100F5000A72075F30175CC0175A70075E34075E214
:100F60000212048CE4F8F6D8FDD137B12AD1ADC213
:100F7000AF12036A12044212046812036AC2AF7508
:100F8000550075560012048C75A91375A71075C10C
:100F90000075A700780979007A0030830CDAFBD954
:100FA000F9D8F712040A021C0030290E12040312A9
:100FB0000376120376120376C229758851758E0165
:100FC0007589AA758C00758D0075C80475910475B6
:100FD000D84075D90875F782759E0775960275DA3F
:100FE0004275DB42759B80759D0078A6B60105753C
:100FF000D11C800375D10C75BCB975BB1075E88028
:1010000075B201120358120A4A75E4B3302703750A
:10101000E43BC213C214C215C228C22475A82D75A0
:10102000E68075B803D2AF758E0C75588075571071
:10103000755B50755EF7755FE77560D67564E17531
:1010400061EB7562CA7563A975300A12036AE530EF
:10105000602B7558C0755708755B28755EFF755F06
:10106000F77560EF7564E17561FB7562EB7563DAC6
:1010700075300A12036AE5306003020F7DC0D07537
:10108000D010AF8ED0D0D229753700C2AF1203ACCA
:10109000D2AFC3E532940A40F9C2AF1203B2D2AF65
:1010A000E4F542F543F55CF55DF533F53CC3E53C0D
:1010B000945E4033753C000533789AE678141460EA
:1010C00012782814600D786414600878C8146003DE
:1010D000753300C3E53398400E15337804C2AF1260
:1010E000048C12041BD2AF202806120AFB1204E75C
:1010F00030250CE5317003020F7D120A5E80AE12BE
:10110000036A2025A878A7B6010820240512041632
:10111000809BC2AF12048CE47522007523007538E1
:10112000007539007566007984874F854F4E854F6D
:101130004D854F5375A71075C13075A70075A9036C
:10114000C3E55833F558C3E55B33F55BC3E5573367
:10115000F557E55EC561F55EE55FC562F55FE56083
:10116000C563F56075643CA2219212302204A22668
:101170009212D210D21175340075360C120A081270
:101180000A291205BB1205C21205BB1205C21205BF
:10119000BBD2AF12084A12092F1209841205C212DB
:1011A000083F12049C12092F1209A51205C2120849
:1011B0004A12092F1209C61205C212083F12092F3E
:1011C0001209E71205C212084A12092F120A081260
:1011D00005C212083F12092F120A291205C2120471
:1011E000E7301135301014854F4D854F4EC3E5342F
:1011F0009418500530259C8078C210201D1BE536C0
:1012000014600AF53630258B2022888064C211755F
:101210004DFF7553FFD21C2193753700D21B30252B
:101220001320220C79A4E76007C3E53294035041F0
:10123000E531603D202209C3E54394F0503321930A
:10124000201D1220120520260580EC2026E9D21D43
:10125000854F4E21BA854F4EC3E5439440400BC2A3
:101260001DA2269212D2117536122193201B02055F
:1012700037C2AF12048C75220075230075A913754F
:10128000A71075C10075A700D3E55813F558C3E53D
:101290005B13F55BC3E55713F557E55EC561F55E76
:1012A000E55FC562F55FE560C563F5607564E120E3
:1012B0002520D215C3E5379403500612036A0211A4
:1012C00012D2AF202A02C224C2AF12040FD2AF0240
:1012D000107DD2AF202A02C22475370078A4E660C0
:0A12E00006D294D295D2960210A017
:1019FD00020F130015D0FF1501FF05FF091801FF98
:101A0D0055AAFFFFFFFFFFFF04FFFFFFFFFF285059
:0F1A1D0004FF02FFFFFF00FFFFFF00000200FFBA
:101A400023555F485F323023202020202020202093
:101A500023424C48454C492445464D3842323123B7
:101A6000426C75656A617920282E3029202020205B
:101A7000023A042034420D00452D0D0034420D0081
:0B1A80004E27D300452DD0193419006B
:101C0000C2AFC2D37597DE7597AD7581C075A90057
:101C100043FF80752438752503B1DB7529A5752A26
:101C2000F143F10853A4F7D28375D4FF75E3407DE7
:101C3000FA780379E67C10752200752300901DE880
:101C40007B0675249875250130830281482083081E
:101C5000D8FBD9F9DCF781BA308308D8FBD9F9DC95
:101C6000F781BAB19BE493A3C39A6004DDC381BA40
:101C7000DBDBB18D600281317B08E493FAA3B16EA6
:101C8000DBF87A30B16E752200752300B18DEAFC65
:101C9000EBFDC3ED94FE400EB18D8A278B28ED300D
:101CA000E0048A828B83B18D7AC270D8C3ED94FE32
:101CB000601950CEBD0029EC600F7520007521FF22
:101CC000752900752A000200008100A827A92808AC
:101CD00009D804D90281DDB191EAF281D10D81A642
:101CE000C3ED94035051EDA2E092007AC5C3E582A2
:101CF0009400E583941C508C200010438F02438F86
:101D0000018529B7852AB7F0300027A827A9280818
:101D100009438F01538FFDD804D902A132C3E58353
:101D2000941C4003A3A117E28529B7852AB7F0A325
:101D3000A117538FFC81827AC1BD030CE493A3FAEF
:101D4000B152DCF8B14A81828184AA22AB23B16E00
:101D5000EBFAEA6222752608C3E52313F523E52290
:101D600013F52250066323A0632201D526EAB1DBD6
:101D7000B1DB75260AEAF4200102D283300102C2E7
:101D800083B1DBC3134002C201D526EB22B191EA35
:101D9000FB208302A191308302A196752608AE2410
:101DA000AF25C3EF13FFEE13FEB1DFB1DBC3EA13C0
:101DB0003083024480FA30E703632201C3E5231332
:101DC000F523E52213F52250066323A0632201D5F3
:101DD00026D9E52265236523F52222AE24AF250E00
:101DE0000FDEFEDFFCD20122424C48656C693437BD
:061DF0003164E8B20601B7
:00000001FF
