:060000000219FD020311CC
:03000B0002008070
:03001300020324C1
:03001B000200B030
:03002B000202DFEF
:03005B000203336A
:030073000202FE88
:10008000C0D075D01018B8CF0408208307B283867B
:100090008AD0D03253A4F7D283C2A98F8E7589AA91
:1000A000C289C28B758A00D2A8D2AAC228D0D03207
:1000B000C2A8C28E85588BC0D075D008C0E0C0F0F1
:1000C000C2CAA9CCAACDD2CAC3E99559F9EA955AB0
:1000D0007049C3E9955B4043955B503FB8103C784D
:1000E00000A9577D00E2FEC39DC399402E99EC33D1
:1000F000FC08E2FDC39EC399402199EC33FC08E261
:10010000FEC39DC399401499EC33FC08E2FDC39EE5
:10011000C399400799EC33FC088002806AE2FEC371
:100120009DC399406299EB33FB08E2FDC39EC399DE
:10013000405599EB33FB08E2FEC39DC399404899B3
:10014000EB33FB08E2FDC39EC399403B99EB33FBC5
:1001500008E2FEC39DC399402E99EB33FB08E2FDF4
:10016000C39EC399402199EB33FB08E2FEC39DC3B4
:1001700099401499EB33FB08E2FDC39EC3994007F5
:1001800099EB33FB08801E0530E53070021530C353
:10019000E5309432400AD225755C00755D0041CF90
:1001A00075310A41CFE2FEC39DC39940DA99EA3323
:1001B000FA08E2FDC39EC39940CD99EA33FA08E2FA
:1001C000FEC39DC39940C099EA33FA08E2FDC39E7D
:1001D000C39940B399EA33FA08EBC46B6C6A3027D1
:1001E00001F4540F70A1C3EBF4FA9460FBECF454E7
:1001F0000F9400FC5018EA7C007B00600CC3135085
:1002000007B55C05055D8006E4F55C755D00302290
:100210001BC3EB94D0F5F0EC94074003ABF0FC303B
:100220002101B39226C3EB33FBEC33FCEB54F04CCF
:10023000C475F00584FAEC13FCEB132AFBEC3400D4
:10024000FC30E3047BFF7C07201C27301124EC707A
:100250000C798187F0C3EB95F05002ABF0E5376085
:100260001175F028A42BFBEC3400FC30E3047BFF79
:100270007C07EB54F84CC423F97007EB7004D225CB
:100280008005753200C225E53060021530C3E54DAA
:10029000FD954E4002AD4EC3ED995008ED75F00846
:1002A000A4FBACF0ECF45407FAEBF4F989FB8AFCFC
:1002B00075310A302719302816758E017589A2D23A
:1002C0008343A408780085648AC28DD2A980097806
:1002D00000758A00D2A8D2AAD0F0D0E0D0D032C027
:1002E000E0C2CF053CD223E5317004D2258002154F
:1002F00031302507E5320460020532D0E032C2AF6A
:1003000053E67F53917F7592FA7593FFC218D2AF6F
:1003100032C0E0E58A85588BC0D075D008F208D08D
:10032000D0D0E032C2AAD28EC2CA85CC5985CD5A6D
:10033000D2CA32327A007901801E7A00790580189B
:100340007A00790A80127A007964800C7A0079C880
:1003500080067A0079FA8000090A8009781874FF0B
:10036000D5E0FDD8F9D9F5DAF3227A427B3580243D
:100370007A2D7B4D801E7A267B5C80187A197B8CC7
:1003800080127A147BAF800C7A427B1E80067A2D15
:100390007B2C8000E5547001227902E4C295D5E0FF
:1003A000FDD292D295D5E0FDC295D5E0FDC292D2A4
:1003B00095D5E0FDE920E004D291D29430E004D25A
:1003C00093D296E554D5E0FDE920E002C29430E0F6
:1003D00002C2967496D5E0FDD9C1EA78C8D8FED598
:1003E000E0F9DBB5C29522716A7170717622718E67
:1003F000716A2271767170716A22718E71882279A8
:10040000998754B80104716A8017B802047170802A
:1004100010B8030471768009B80404717C800271FD
:10042000827998875422901A70E493F4601D7C3E80
:10043000901A74E493A3FB6012E493FA600471943D
:100440008006EBF97A007158A3DCE82278A5E6F97A
:100450005403C2827002D282E9540CC2817002D26B
:1004600081E95430C2807002D280E954C070002209
:10047000C294C295C296C294C295C29675D5FF2207
:10048000201E32A84F20102A78FFE53B6024E54368
:10049000602074FF301102747F8543F084853BF047
:1004A000A4F8C5F06004754EFF22C3E8954F5002D2
:1004B000A84F884E22C3E54294A0E5439400E54E40
:1004C0005003148001046002F54E2210230122051E
:1004D00067E5675407600122E56720E335E5526070
:1004E000267553FFE5BE601FE5BDC39552401875E4
:1004F00053C8940440117553969404400A7553648C
:1005000094044003755332202401228538657566B2
:100510000C22E552600FC3E54D9553600840041569
:100520004D8002054D302473E5675438B40829C363
:10053000E53994785003E4800475F00984A213929D
:10054000E7A21492E6A21592E5C213C214C215F5F1
:100550006575660E75E89022B4180A75658875662B
:100560000875E89022B4280A7565AA75660A75E8C8
:10057000902278A6B6010DE5BE7003E48018E5BDB3
:1005800094148012E5BE700AE5BDC394EB5007E4F5
:100590008004E5BD2414F56575660275E890227542
:1005A00042007543F022C2AFC2CAA8CCA9CDAA3C72
:1005B00030CF010AD2CAD2AFC3EA13FAE913F9E87D
:1005C00013F8201014C3E8953D883DF8E9953E895D
:1005D0003E547FF9301E36C1C0AB3DAC3EAD3F88C6
:1005E0003D893E8A3FC3E89BE99CEA9D547F6008B1
:1005F0007542FF7543FFC18FAE40AF418B408C41C8
:10060000C3E89EF8E99FF9AA42AB438011AA42AB26
:1006100043C3EB9404404894044013201126C3EBD9
:1006200013FDEA13FCC3ED13FDEC13FC804AEBC48D
:1006300023FCEAC423541F4CFC7D00C3E913F9E8F2
:1006400013F88034EBC423FC541FFDEC54E0FCEAA7
:10065000C423541F4CFCC3E913F9E813F88019EBC9
:10066000C4FCEAC4540F4CFC7D00C3E913F9E81341
:10067000F8C3E913F9E813F8C3EA9CFAEB9DFBEA27
:1006800028F542EB39F54350067542FF7543FFC329
:10069000E54394025002D21EE543C4FA540FFBEA2C
:1006A00054F0FAE542C4540F4AFAC3EA9402FAEB52
:1006B0009400FB40057048EA70457A017B00803F5A
:1006C000AA42AB43EBC4FCEAC4540F4CFCC3EA9C03
:1006D000FAEB9400FBE80303543F2AFAEB3400FBE7
:1006E0008A428B43C394024002C21EEBC4FE7B00CD
:1006F000EAC4540F4EC39402FA400270027A0120F9
:100700002806301808120B1130180280FB85499218
:10071000854A93D21843E6807892E6FFC3E49AF8BC
:10072000E49BF9C3E833F8E933F9201E7F30100465
:100730007F038015C3E5389482400E0F941E40015C
:100740000FC3EF940640027F05E8FAE9FBD3E913F3
:10075000FDE813FC8C478D488849894AC3EF940310
:10076000602BEF20E00CE82CF8E93DF9ECFAEDFB0A
:10077000800BE8D338F8E939F97AFF7BFFC3EF94AF
:1007800003400A8A4B8B4C884589468050884B89A8
:100790004C8A458B46301045754BF0754CFF7547BC
:1007A000F07548FF7549F0754AFF8031E8FAD313B8
:1007B000FC8C478849C3EF9403601EEF20E007E8F4
:1007C0002CF8ECFA8007E8282401F87AFFC3EF94AC
:1007D0000340068A4B88458004884B8A45202806BA
:1007E000301808120B1130180280FB753502D21830
:1007F00043E68030112DA842A943C3E913F9E81359
:10080000F8301004E92440F9C2AF53E67F75910037
:10081000C3E498F594E499F595759104D21843E6EC
:1008200080D2AF2275F000301D0E75F04080097542
:10083000F040301D0375F000D2197544007A027B38
:1008400002201E1D301102C2193010067A367B3686
:10085000800F7B28E543700104FAC3942840027A94
:1008600028201811E544600D301003D53504D21A44
:1008700080671207EE0544E59B5440B5F00DE53462
:1008800060BB2019B8DADAC21A804E20100B20198A
:10089000110AC3EA9B40CA80A40AC3EA9B40011A1A
:1008A00080BFC21953E67F759100301E1175940008
:1008B0007595F0759104D21843E68002083DE54332
:1008C0007EFFC3334009C3334005C3334001FEC339
:1008D000E49E759400F59580DAC2AF53E67F8545B6
:1008E00092854693759100854B94854C957591043E
:1008F000D21843E680D2AF201018301A17201114F6
:10090000201D1120190EC2AF12047015811581022D
:100910001283053422E53875F007A430190405F078
:10092000D213A2F013A2F113A2F213F538C39478F4
:100930005003753878C3E53895394003853839C395
:10094000E538953A400BD214C294C295C29675D53B
:10095000FF202805301807711130180280FB8547E9
:1009600092854893D21843E68022201213C2AFC268
:1009700095C291D294D29675D5F7D2AF759F452284
:10098000C2AFC295C293D296D29475D5FDD2AF753F
:100990009F4522201213C2AFC296D29575D5FBC2D5
:1009A00091D294D2AF759F6522C2AFC294D2957591
:1009B000D5FBC293D296D2AF759F7522201213C277
:1009C000AFC294C293D296D29575D5FBD2AF759F24
:1009D0007522C2AFC296C291D294D29575D5FBD280
:1009E000AF759F6522201213C2AFC295D29475D500
:1009F000FDC293D296D2AF759F4522C2AFC295D2A7
:100A00009675D5F7C291D294D2AF759F4522201228
:100A100013C2AFC296C292D295D29475D5FDD2AF11
:100A2000759F6522C2AFC294C292D295D29675D5F7
:100A3000F7D2AF759F7522201213C2AFC294D2961F
:100A400075D5F7C292D295D2AF759F7522C2AFC24B
:100A500096D29475D5FDC292D295D2AF759F65227C
:100A60007432A28340032083F750033083F2D5E031
:100A7000F3922722E55C700122F8C39406500FC25E
:100A8000AF1204701203FF12034CD2AF807CC3E597
:100A90005D9406407BB80704C221806EB80804D27A
:100AA000218067B80904C2228060B80A04D222807B
:100AB00059B80D0A75650075660ED224804CB80EC3
:100AC0000A7565FF75660EC224803FB8140C7988DC
:100AD000E714A2E09221C22A8030B8150D7988E788
:100AE00014A2E0B39221D22A8020B80C1DE4A221E6
:100AF00092E0A22292E1047988F77555A57556F126
:100B0000B186755500755600D2AF755C00755D00F5
:100B100022C0D075D010BE0039E566702EC2AFE598
:100B200042854327D2AFA23813F9A2391329FAE537
:100B30002703C2E7F903C2E739FBE527232354FC67
:100B4000FCC3EA9CF526EB9400F5270E201803D091
:100B5000D022BE0124E5667010E527705DE52670A1
:100B60001175270F7526FF8009856526856627750F
:100B700066000E201803D0D022BE0215E526C465FB
:100B8000266527F478D0A65E91370E201803D0D0C2
:100B900022BE030BE52691370E201803D0D022BECB
:100BA000040CE526C491370E201803D0D022E52787
:100BB0009137087E00D0D0D2282220E71620E61DEB
:100BC00020E52720E43420E34120E25020E15CE5E9
:100BD00026809FA23733F52675270F8095A23733DD
:100BE000A23633F52675270D8088A23733A2363317
:100BF000A23533F52675270B6172E52654F0C23C09
:100C00004527C4F5267527096172E526A23813A287
:100C10003913A23A13F5267527076172E526A23823
:100C200013A23913F5267527056172E526A238133C
:100C3000F5267527036172540F23900C3E73815E75
:100C40008168817581868190819D81A781BB81C8E2
:100C500081DC81E381F481FEA115A11FA13308A6E7
:100C60006008A65E08A65E2208A65E08A65F08A623
:100C70005E08A65E2286F0E55FB5F002E560F60844
:100C8000A66008A65E2208A65E08A66008A65E22E8
:100C900008A65F08A65E08A65E08A65E2208A65FF4
:100CA00008A65F08A65E2286F0E55FB5F002E56063
:100CB000F608A65E08A65F08A65E2208A65E08A63D
:100CC0005E08A65F08A65E2286F0E55FB5F002E545
:100CD00060F608A65F08A65E08A65E2208A6600861
:100CE000A65F2286F0E55FB5F002E560F608A65F34
:100CF00008A65F2208A65E08A65F08A65F2286F007
:100D0000E55FB5F002E560F608A65E08A65E08A6F7
:100D10005E08A65E2208A65F08A65E08A65F228679
:100D2000F0E55FB5F002E560F608A65E08A65E088D
:100D3000A65F2208A65E08A65E08A65E08A65F2239
:100D4000901A0D7820B1C6E520B4550AA3B1C6E5C6
:100D500020B4AA0280127555A57556F1D14DB18601
:100D6000755500755600801D901A0378807B0AB176
:100D7000C6A308DBFA901A0F788C7B1CB1C6A308B7
:100D8000DBFA901A2B22C2AFD109D12BB1E6901A0F
:100D9000007400B1CBA37415B1CBA374D0B1CB90C8
:100DA0001A0378807B0AB1CAA308DBFA901A0F787D
:100DB0008C7B1CB1CAA308DBFAD11CD13EB1FA90DE
:100DC0001A2B12034C22E493F622E6438F01538F31
:100DD000FDFFC3E583941C400122EF8555B785567E
:100DE000B7F0538FFE22438F02438F018555B7859D
:100DF00056B7901A0DF0538FFC22901A0D7455B10E
:100E0000CB901A0E74AAB1CB227A3079D078209088
:100E10001A40B1C6E520F709A3DAF7227A3079D073
:100E2000901A40E7B1CB09A3DAF9227A8C790078DD
:100E300020901A70B1C6E520F309A3DAF7227A8C64
:100E40007900901A70E3B1CB09A3DAF922788076A1
:100E5000FF0876150876010876FF0876050876FF04
:100E60000876090876180876010876FF08080876DB
:100E7000FF0876FF0876FF0876FF0876FF0876FF02
:100E80000876040876FF0876FF0876FF0876FF08E4
:100E900076FF0876280876500876040876FF0876EC
:100EA000020876FF0876FF0876FF0876000876FFCE
:100EB0000876FF0876FF08760008760008760208B4
:100EC0007600227888E614A2E19222A2E0922178AC
:100ED00084745096500276507886740D965002763F
:100EE0000D863B789CE6753AFFB40203753AA0B4D0
:100EF0000303753A8275520078A0E6F9600F78A670
:100F0000B601047453800274282409D9FCF5527880
:100F1000988654788DE6232323F95407F551E95434
:100F2000F8F550B6FF037550FF2275550075560051
:100F30007597DE7597AD7581B043FF8075EF0675C7
:100F4000A9001204707580FF75F10F75A4077580F4
:100F5000FF75D4FF75900075F27E75A57E759000C3
:100F600075D5FF75A60175A72075F30175CC0175C0
:100F7000A70075E34075E202120470E4F8F6D8FDAC
:100F8000D14DB140D1C3C2AF1203461204261204A0
:100F90004C120346C2AF75550075560012047075A9
:100FA000A91375A71075C10075A700780979007A93
:100FB0000030830CDAFBD9F9D8F71203EE021C00DB
:100FC00030290E1203E7120352120352120352C2C7
:100FD00029758851758E017589AA758C00758D00EB
:100FE00075C80475910475D84075D90875F783756F
:100FF0009E0075960275DA4A75DB00759B80759DBB
:101000000078A6B6010575D11C800375D10C75BC9E
:10101000B975BB1075E88075B201120334120A600D
:1010200075E4B330270375E43BC213C214C215C282
:1010300028C22475A82D75E68075B803D2AF758EC9
:101040000C755880755710755B50755EF7755FE7C6
:101050007560D67564E17561EB7562CA7563A975D3
:10106000300A120346E530602B7558C07557087575
:101070005B28755EFF755FF77560EF7564E17561FC
:10108000FB7562EB7563DA75300A120346E5306072
:1010900003020F94C0D075D010AF8ED0D0D2297576
:1010A0003700C2AF120388D2AFC3E532940A40F9C9
:1010B000C2AF12038ED2AFE4F542F543F55CF55DA5
:1010C000F533F53CC3E53C945E4033753C00053395
:1010D000789AE67814146012782814600D786414F5
:1010E000600878C8146003753300C3E53398400E78
:1010F00015337804C2AF1204701203FFD2AF202858
:1011000006120B111204CB30250CE5317003020FCF
:1011100094120A7480AE1203462025A878A7B6015F
:10112000082024051203FA809BC2AF120470E475F4
:1011300022007523007538007539007566007984C2
:10114000874F854F4E854F4D854F5375A71075C1FD
:101150003075A70075A903C3E55833F558C3E55B9F
:1011600033F55BC3E55733F557E55EC561F55EE5DD
:101170005FC562F55FE560C563F56075643CA221FB
:101180009212302204A2269212D210D2117534008B
:1011900075360C120A0E120A3712059F1205A61296
:1011A000059F1205A612059FD2AF12082F1209152E
:1011B00012096A1205A612082412048012091512D7
:1011C00009931205A612082F1209151209BC12055F
:1011D000A61208241209151209E51205A612082FF5
:1011E000120915120A0E1205A61208241209151268
:1011F0000A371205A61204CB301135301014854F72
:101200004D854F4EC3E5349418500530259C8078A9
:10121000C210201D1BE53614600AF53630258B20E0
:1012200022888064C211754DFF7553FFD21C21AA1C
:10123000753700D21B30251320220C79A4E76007F4
:10124000C3E53294035041E531603D202209C3E5F6
:101250004394F0503321AA201D12201205202605A8
:1012600080EC2026E9D21D854F4E21D1854F4EC3FB
:10127000E5439440400BC21DA2269212D21175364E
:101280001221AA201B020537C2AF1204707522007A
:1012900075230075A91375A71075C10075A700D334
:1012A000E55813F558C3E55B13F55BC3E55713F534
:1012B00057E55EC561F55EE55FC562F55FE560C552
:1012C00063F5607564E1202520D215C3E5379403EA
:1012D0005006120346021129D2AF202A02C224C2AC
:1012E000AF1203F3D2AF021094D2AF202A02C2246D
:1012F00075370078A4E6600CC291D294C292D29560
:07130000C293D2960210B760
:1019FD00020F2A0015D0FF1501FF05FF091801FF81
:101A0D0055AAFFFFFFFFFFFF04FFFFFFFFFF285059
:0F1A1D0004FF02FFFFFF00FFFFFF00000200FFBA
:101A400023555F485F303023202020202020202095
:101A500023424C48454C492445464D3842323123B7
:101A6000426C75656A617920282E3029202020205B
:101A7000023A042034420D00452D0D0034420D0081
:0B1A80004E27D300452DD0193419006B
:101C0000C2AFC2D37597DE7597AD7581C075A90057
:101C100043FF80752438752503B1DB7529A5752A26
:101C2000F143F10853A4F7D28375D4FF75E3407DE7
:101C3000FA780379E67C10752200752300901DE880
:101C40007B0675249875250130830281482083081E
:101C5000D8FBD9F9DCF781BA308308D8FBD9F9DC95
:101C6000F781BAB19BE493A3C39A6004DDC381BA40
:101C7000DBDBB18D600281317B08E493FAA3B16EA6
:101C8000DBF87A30B16E752200752300B18DEAFC65
:101C9000EBFDC3ED94FE400EB18D8A278B28ED300D
:101CA000E0048A828B83B18D7AC270D8C3ED94FE32
:101CB000601950CEBD0029EC600F7520007521FF22
:101CC000752900752A000200008100A827A92808AC
:101CD00009D804D90281DDB191EAF281D10D81A642
:101CE000C3ED94035051EDA2E092007AC5C3E582A2
:101CF0009400E583941C508C200010438F02438F86
:101D0000018529B7852AB7F0300027A827A9280818
:101D100009438F01538FFDD804D902A132C3E58353
:101D2000941C4003A3A117E28529B7852AB7F0A325
:101D3000A117538FFC81827AC1BD030CE493A3FAEF
:101D4000B152DCF8B14A81828184AA22AB23B16E00
:101D5000EBFAEA6222752608C3E52313F523E52290
:101D600013F52250066323A0632201D526EAB1DBD6
:101D7000B1DB75260AEAF4200102D283300102C2E7
:101D800083B1DBC3134002C201D526EB22B191EA35
:101D9000FB208302A191308302A196752608AE2410
:101DA000AF25C3EF13FFEE13FEB1DFB1DBC3EA13C0
:101DB0003083024480FA30E703632201C3E5231332
:101DC000F523E52213F52250066323A0632201D5F3
:101DD00026D9E52265236523F52222AE24AF250E00
:101DE0000FDEFEDFFCD20122424C48656C693437BD
:061DF0003164E8B20601B7
:00000001FF
