:060000000219FD020314C9
:03000B0002008070
:03001300020327BE
:03001B000200B030
:03002B000202E2EC
:03005B0002033667
:0300730002030184
:10008000C0D075D01018B8CF0408208707B2878673
:100090008AD0D03253A47FD287C2A98F8E7589AA05
:1000A000C289C28B758A00D2A8D2AAC228D0D03207
:1000B000C2A8C28E85588BC0D075D008C0E0C0F0F1
:1000C000C2CAA9CCAACDD2CAC3E99559F9EA955AB0
:1000D0007049C3E9955B4043955B503FB8103C784D
:1000E00000A9577D00E2FEC39DC399402E99EC33D1
:1000F000FC08E2FDC39EC399402199EC33FC08E261
:10010000FEC39DC399401499EC33FC08E2FDC39EE5
:10011000C399400799EC33FC088002806AE2FEC371
:100120009DC399406299EB33FB08E2FDC39EC399DE
:10013000405599EB33FB08E2FEC39DC399404899B3
:10014000EB33FB08E2FDC39EC399403B99EB33FBC5
:1001500008E2FEC39DC399402E99EB33FB08E2FDF4
:10016000C39EC399402199EB33FB08E2FEC39DC3B4
:1001700099401499EB33FB08E2FDC39EC3994007F5
:1001800099EB33FB08801E0530E53070021530C353
:10019000E5309432400AD225755C00755D0041D28D
:1001A00075310A41D2E2FEC39DC39940DA99EA3320
:1001B000FA08E2FDC39EC39940CD99EA33FA08E2FA
:1001C000FEC39DC39940C099EA33FA08E2FDC39E7D
:1001D000C39940B399EA33FA08EBC46B6C6A3027D1
:1001E00001F4540F70A1C3EBF4FA9460FBECF454E7
:1001F0000F9400FC5018EA7C007B00600CC3135085
:1002000007B55C05055D8006E4F55C755D00302290
:100210001BC3EB94D0F5F0EC94074003ABF0FC303B
:100220002101B39226C3EB33FBEC33FCEB54F04CCF
:10023000C475F00584FAEC13FCEB132AFBEC3400D4
:10024000FC30E3047BFF7C07201C27301124EC707A
:100250000C798187F0C3EB95F05002ABF0E5376085
:100260001175F028A42BFBEC3400FC30E3047BFF79
:100270007C07EB54F84CC423F97007EB7004D225CB
:100280008005753200C225E53060021530C3E54DAA
:10029000FD954E4002AD4EC3ED995008ED75F00846
:1002A000A4FBACF0C3EC13F45403FAEB13F4F98998
:1002B000FB8AFC75310A302719302816758E0175B6
:1002C00089A2D28743A480780085648AC28DD2A98E
:1002D00080097800758A00D2A8D2AAD0F0D0E0D0E8
:1002E000D032C0E0C2CF053CD223E5317004D22524
:1002F00080021531302507E5320460020532D0E076
:1003000032C2AF53E67F53917F7592FA7593FFC265
:1003100018D2AF32C0E0E58A85588BC0D075D008BE
:10032000F208D0D0D0E032C2AAD28EC2CA85CC594F
:1003300085CD5AD2CA32327A007901801E7A00798C
:100340000580187A00790A80127A007964800C7A24
:100350000079C880067A0079FA8000090A80097855
:100360001874FFD5E0FDD8F9D9F5DAF3227A427B8B
:100370003580247A2D7B4D801E7A267B5C80187A0E
:10038000197B8C80127A147BAF800C7A427B1E80A2
:10039000067A2D7B2C8000E5547001227902E4530B
:1003A000F2DFD5E0FDD29543F220D5E0FD53F2DF38
:1003B000D5E0FDC29543F220D5E0FDE920E005D26D
:1003C0009643F24030E005D29443F210E554D5E074
:1003D000FDE920E00353F2BF30E00353F2EF7496DF
:1003E000D5E0FDD9B9EA78C8D8FED5E0F9DBAD5340
:1003F000F2DF22716D71737179227191716D2271C9
:10040000797173716D227191718B2279998754B8CA
:100410000104716D8017B8020471738010B8030471
:1004200071798009B80404717F8002718579988799
:100430005422901A70E493F4601D7C3E901A74E488
:1004400093A3FB6012E493FA600471978006EBF9C2
:100450007A00715BA3DCE82278A5E6F9540370000A
:10046000E9540C7000E954307000E954C070002267
:1004700053F28F53F28F75D5FF22201E32A84F20E2
:10048000102A78FFE53B6024E543602074FF3011BB
:1004900002747F8543F084853BF0A4F8C5F06004C6
:1004A000754EFF22C3E8954F5002A84F884E22C3D5
:1004B000E54294A0E5439400E54E50031480010406
:1004C0006002F54E22102301220567E5675407609C
:1004D0000122E56720E335E55260267553FFE5BE4E
:1004E000601FE5BDC3955240187553C89404401170
:1004F0007553969404400A755364940440037553ED
:10050000322024012285386575660C22E552600F81
:10051000C3E54D955360084004154D8002054D30EC
:100520002473E5675438B40829C3E5399478500337
:10053000E4800475F00984A21392E7A21492E6A263
:100540001592E5C213C214C215F56575660E75E8FD
:100550009022B4180A75658875660875E89022B40B
:10056000280A7565AA75660A75E8902278A6B6010C
:100570000DE5BE7003E48018E5BD94148012E5BE5D
:10058000700AE5BDC394EB5007E48004E5BD241474
:10059000F56575660275E890227542007543F02294
:1005A000C2AFC2CAA8CCA9CDAA3C30CF010AD2CAD8
:1005B000D2AFC3EA13FAE913F9E813F8201014C311
:1005C000E8953D883DF8E9953E893E547FF9301E17
:1005D00036C1BAAB3DAC3EAD3F883D893E8A3FC394
:1005E000E89BE99CEA9D547F60087542FF7543FFD4
:1005F000C189AE40AF418B408C41C3E89EF8E99F72
:10060000F9AA42AB438011AA42AB43C3EB94044026
:100610004894044013201126C3EB13FDEA13FCC3D6
:10062000ED13FDEC13FC804AEBC423FCEAC4235415
:100630001F4CFC7D00C3E913F9E813F88034EBC4C8
:1006400023FC541FFDEC54E0FCEAC423541F4CFC73
:10065000C3E913F9E813F88019EBC4FCEAC4540F9A
:100660004CFC7D00C3E913F9E813F8C3E913F9E87A
:1006700013F8C3EA9CFAEB9DFBEA28F542EB39F547
:100680004350067542FF7543FFC3E5439402500291
:10069000D21EE543C4FA540FFBEA54F0FAE542C413
:1006A000540F4AFAC3EA9402FAEB9400FB40057037
:1006B00048EA70457A017B00803FAA42AB43EBC415
:1006C000FCEAC4540F4CFCC3EA9CFAEB9400FBE830
:1006D0000303543F2AFAEB3400FB8A428B43C39452
:1006E000024002C21EEBC4FE7B00EAC4540F4EC39C
:1006F0009402FA400270027A01202806301808128B
:100700000B2C30180280FB854992854A93D21843FE
:10071000E6807892E6FFC3E49AF8E49BF9C3E833F5
:10072000F8E933F9201E7F3010047F038015C3E5FC
:10073000389482400E0F941E40010FC3EF94064080
:10074000027F05E8FAE9FBD3E913FDE813FC8C47C7
:100750008D488849894AC3EF9403602BEF20E00C51
:10076000E82CF8E93DF9ECFAEDFB800BE8D338F81A
:10077000E939F97AFF7BFFC3EF9403400A8A4B8B78
:100780004C884589468050884B894C8A458B463039
:100790001045754BF0754CFF7547F07548FF75496E
:1007A000F0754AFF8031E8FAD313FC8C478849C3BF
:1007B000EF9403601EEF20E007E82CF8ECFA8007C6
:1007C000E8282401F87AFFC3EF940340068A4B8897
:1007D000458004884B8A45202806301808120B2CC7
:1007E00030180280FB753502D21843E68030112D97
:1007F000A842A943C3E913F9E813F8301004E92427
:1008000040F9C2AF53E67F759100C3E498F594E4D4
:1008100099F595759104D21843E680D2AF2275F010
:1008200000301D0E75F040800975F040301D0375D5
:10083000F000D2197544007A027B02201E1D30118F
:1008400002C2193010067A367B36800F7B28E543CA
:10085000700104FAC3942840027A28201811E54454
:10086000600D301003D53504D21A80671207E805F1
:1008700044E59B5440B5F00DE53460BB2019B8DA6F
:10088000DAC21A804E20100B2019110AC3EA9B40CD
:10089000CA80A40AC3EA9B40011A80BFC21953E66A
:1008A0007F759100301E117594007595F075910457
:1008B000D21843E680020837E5437EFFC333400980
:1008C000C3334005C3334001FEC3E49E759400F575
:1008D0009580DAC2AF53E67F854592854693759140
:1008E00000854B94854C95759104D21843E680D2CF
:1008F000AF201018301A17201114201D1120190EC6
:10090000C2AF1204701581158102129D053422E5D3
:100910003875F007A430190405F0D213A2F013A221
:10092000F113A2F213F538C394785003753878C3E5
:10093000E53895394003853839C3E538953A40089C
:10094000D21453F28F75D5FF202805301807712C6B
:1009500030180280FB854792854893D21843E68081
:1009600022201216C2AF53F2DFC29643F24075D571
:10097000EF43F210D2AF759F5322C2AF53F2DFC2E2
:100980009443F21075D5BF43F240D2AF759F532206
:10099000201216C2AF53F2EF75D5DF43F220C29694
:1009A00043F240D2AF759F6322C2AF53F2BF75D5F9
:1009B000DF43F220C29443F210D2AF759F2322206E
:1009C0001216C2AF53F2BFC29443F21075D5DF4383
:1009D000F220D2AF759F2322C2AF53F2EFC29643EB
:1009E000F24075D5DF43F220D2AF759F632220120B
:1009F00016C2AF53F2DF75D5BF43F240C29443F243
:100A000010D2AF759F5322C2AF53F2DF75D5EF43BB
:100A1000F210C29643F240D2AF759F5322201216B5
:100A2000C2AF53F2EFC29543F22075D5BF43F240F7
:100A3000D2AF759F6322C2AF53F2BFC29543F2207B
:100A400075D5EF43F210D2AF759F2322201216C244
:100A5000AF53F2BF75D5EF43F210C29543F220D2E7
:100A6000AF759F2322C2AF53F2EF75D5BF43F2405B
:100A7000C29543F220D2AF759F63227432A28740A1
:100A8000032087F750033087F2D5E0F3922722E561
:100A90005C700122F8C39406500FC2AF12047012AA
:100AA000040B12034FD2AF807CC3E55D9406407BFC
:100AB000B80704C221806EB80804D2218067B80943
:100AC00004C2228060B80A04D2228059B80D0A7587
:100AD000650075660ED224804CB80E0A7565FF75E8
:100AE000660EC224803FB8140C7988E714A2E09205
:100AF00021C22A8030B8150D7988E714A2E0B3929C
:100B000021D22A8020B80C1DE4A22192E0A22292D8
:100B1000E1047988F77555A57556F1B1A1755500B1
:100B2000755600D2AF755C00755D0022C0D075D0DF
:100B300010BE0039E566702EC2AFE542854327D26C
:100B4000AFA23813F9A2391329FAE52703C2E7F94E
:100B500003C2E739FBE527232354FCFCC3EA9CF5D9
:100B600026EB9400F5270E201803D0D022BE0124D6
:100B7000E5667010E527705DE526701175270F7525
:100B800026FF80098565268566277566000E201874
:100B900003D0D022BE0215E526C465266527F47869
:100BA000D0A65E91520E201803D0D022BE030BE5D2
:100BB0002691520E201803D0D022BE040CE526C484
:100BC00091520E201803D0D022E5279152087E00C2
:100BD000D0D0D2282220E71620E61D20E52720E4E9
:100BE0003420E34120E25020E15CE526809FA237DB
:100BF00033F52675270F8095A23733A23633F526B5
:100C000075270D8088A23733A23633A23533F526F7
:100C100075270B618DE52654F0C23C4527C4F526A7
:100C2000752709618DE526A23813A23913A23A135C
:100C3000F526752707618DE526A23813A23913F52D
:100C400026752705618DE526A23813F5267527033D
:100C5000618D540F23900C59738179818381908128
:100C6000A181AB81B881C281D681E381F781FEA1E8
:100C70000FA119A130A13AA14E08A66008A65E08EE
:100C8000A65E2208A65E08A65F08A65E08A65E22EB
:100C900086F0E55FB5F002E560F608A66008A65E9E
:100CA0002208A65E08A66008A65E2208A65F08A61F
:100CB0005E08A65E08A65E2208A65F08A65F08A6D4
:100CC0005E2286F0E55FB5F002E560F608A65E08F4
:100CD000A65F08A65E2208A65E08A65E08A65F08B4
:100CE000A65E2286F0E55FB5F002E560F608A65F35
:100CF00008A65E08A65E2208A66008A65F2286F007
:100D0000E55FB5F002E560F608A65F08A65F220879
:100D1000A65E08A65F08A65F2286F0E55FB5F00232
:100D2000E560F608A65E08A65E08A65E08A65E2236
:100D300008A65F08A65E08A65F2286F0E55FB5F00C
:100D400002E560F608A65E08A65E08A65F2208A671
:100D50005E08A65E08A65E08A65F22901A0D78209F
:100D6000B1E1E520B4550AA3B1E1E520B4AA0280BF
:100D7000127555A57556F1D168B1A1755500755616
:100D800000801D901A0378807B0AB1E1A308DBFA8A
:100D9000901A0F788C7B1CB1E1A308DBFA901A2B18
:100DA00022C2AFD124D146D101901A007400B1E61D
:100DB000A37415B1E6A374D0B1E6901A0378807BD2
:100DC0000AB1E5A308DBFA901A0F788C7B1CB1E519
:100DD000A308DBFAD137D159D115901A2B12034F42
:100DE00022E493F622E6438F01538FFDFFC3E58390
:100DF000941C400122EF8555B78556B7F0538FFEFE
:100E000022438F02438F018555B78556B7901A0D3F
:100E1000F0538FFC22901A0D7455B1E6901A0E749F
:100E2000AAB1E6227A3079D07820901A40B1E1E573
:100E300020F709A3DAF7227A3079D0901A40E7B187
:100E4000E609A3DAF9227A8C79007820901A70B139
:100E5000E1E520F309A3DAF7227A8C7900901A7081
:100E6000E3B1E609A3DAF922788076FF087615085F
:100E700076010876FF0876050876FF087609087679
:100E8000300876010876FF08080876FF0876FF0824
:100E900076FF0876FF0876FF0876FF087604087666
:100EA000FF0876FF0876FF0876FF0876FF087628A9
:100EB0000876500876040876FF0876020876FF0860
:100EC00076FF0876FF0876000876FF0876FF08763A
:100ED000FF087600087600087602087600227888F7
:100EE000E614A2E19222A2E09221788474509650F6
:100EF0000276507886740D965002760D863B789C6B
:100F0000E6753AFFB40203753AA0B40303753A825A
:100F100075520078A0E6F9600F78A6B60104745304
:100F2000800274282409D9FCF55278988654788D6B
:100F3000E62323F95403F551E954FCF550B6FF03B9
:100F40007550FF227555007556007597DE7597AD83
:100F50007581B043FF8075EF0675A90012047075A6
:100F600080FF75F19375A4007580FF75D4FF7590AF
:100F70000075F28F75A57075900075D5FF75A60187
:100F800075A72075F30175CC0175A70075E3407551
:100F9000E202120470E4F8F6D8FDD168B15BD1DE4C
:100FA000C2AF120349120432120458120349C2AFED
:100FB00075550075560012047075A91375A7107544
:100FC000C10075A700780979007A0030870CDAFB38
:100FD000D9F9D8F71203FA021C0030290E1203F3D4
:100FE000120355120355120355C229758851758E87
:100FF000017589AA758C00758D0075C804759104FA
:1010000075D84075D90875F782759E00759602757A
:10101000DA4A75DB00759B80759D0078A6B60105E0
:1010200075D11C800375D10C75BCB975BB1075E802
:101030008075B201120337120A7B75E4F73027037B
:1010400075E47FC213C214C215C228C22475A82D2C
:1010500075E68075B803D2AF758E0C7558807557DC
:1010600010755B50755EF7755FE77560D67564E166
:101070007561EB7562CA7563A975300A120349E59B
:1010800030602B7558C0755708755B28755EFF7505
:101090005FF77560EF7564E17561FB7562EB756311
:1010A000DA75300A120349E5306003020FAEC0D092
:1010B00075D010AF8ED0D0D229753700C2AF1203D1
:1010C0008BD2AFC3E532940A40F9C2AF120391D27A
:1010D000AFE4F542F543F55CF55DF533F53CC3E56A
:1010E0003C945E4033753C000533789AE6781414DE
:1010F0006012782814600D786414600878C8146051
:1011000003753300C3E53398400E15337804C2AF3E
:1011100012047012040BD2AF202806120B2C1204FA
:10112000C530250CE5317003020FAE120A8F80AE78
:101130001203492025A878A7B60108202405120427
:1011400006809BC2AF120470E475220075230075FF
:1011500038007539007566007984874F854F4E8554
:101160004F4D854F5375A71075C13075A70075A9F0
:1011700003C3E55833F558C3E55B33F55BC3E55767
:1011800033F557E55EC561F55EE55FC562F55FE580
:1011900060C563F56075643CA2219212302204A2FE
:1011A000269212D210D21175340075360C120A1D17
:1011B000120A4C1205991205A01205991205A012E7
:1011C0000599D2AF12082912090F1209611205A060
:1011D00012081E12047A12090F1209901205A012A9
:1011E000082912090F1209BF1205A012081E1209C0
:1011F0000F1209EE1205A012082912090F120A1D7A
:101200001205A012081E12090F120A4C1205A01294
:1012100004C5301135301014854F4D854F4EC3E550
:10122000349418500530259C8078C210201D1BE591
:101230003614600AF53630258B2022888064C2116E
:10124000754DFF7553FFD21C21C4753700D21B307A
:10125000251320220C79A4E76007C3E532940350DC
:1012600041E531603D202209C3E54394F05033212C
:10127000C4201D1220120520260580EC2026E9D26C
:101280001D854F4E21EB854F4EC3E5439440400BE7
:10129000C21DA2269212D21175361221C4201B0241
:1012A0000537C2AF12047075220075230075A913AB
:1012B00075A71075C10075A700D3E55813F558C37D
:1012C000E55B13F55BC3E55713F557E55EC561F5BF
:1012D0005EE55FC562F55FE560C563F5607564E175
:1012E000202520D215C3E537940350061203490286
:1012F0001143D2AF202A02C224C2AF1203FFD2AFE1
:101300000210AED2AF202A02C22475370078A4E6BC
:10131000600FC29643F240C29543F220C29443F25A
:04132000100210D1D6
:1019FD00020F440015D0FF1501FF05FF093001FF4F
:101A0D0055AAFFFFFFFFFFFF04FFFFFFFFFF285059
:0F1A1D0004FF02FFFFFF00FFFFFF00000200FFBA
:101A400023575F485F303023202020202020202093
:101A500023424C48454C492445464D3842323123B7
:101A6000426C75656A617920282E3029202020205B
:101A7000023A042034420D00452D0D0034420D0081
:0B1A80004E27D300452DD0193419006B
:101C0000C2AFC2D37597DE7597AD7581C075A90057
:101C100043FF80752438752503B1DB7529A5752A26
:101C2000F143F18053A47FD28775D4FF75E3407DE3
:101C3000FA780379E67C10752200752300901DE880
:101C40007B06752498752501308702814820870816
:101C5000D8FBD9F9DCF781BA308708D8FBD9F9DC91
:101C6000F781BAB19BE493A3C39A6004DDC381BA40
:101C7000DBDBB18D600281317B08E493FAA3B16EA6
:101C8000DBF87A30B16E752200752300B18DEAFC65
:101C9000EBFDC3ED94FE400EB18D8A278B28ED300D
:101CA000E0048A828B83B18D7AC270D8C3ED94FE32
:101CB000601950CEBD0029EC600F7520007521FF22
:101CC000752900752A000200008100A827A92808AC
:101CD00009D804D90281DDB191EAF281D10D81A642
:101CE000C3ED94035051EDA2E092007AC5C3E582A2
:101CF0009400E583941C508C200010438F02438F86
:101D0000018529B7852AB7F0300027A827A9280818
:101D100009438F01538FFDD804D902A132C3E58353
:101D2000941C4003A3A117E28529B7852AB7F0A325
:101D3000A117538FFC81827AC1BD030CE493A3FAEF
:101D4000B152DCF8B14A81828184AA22AB23B16E00
:101D5000EBFAEA6222752608C3E52313F523E52290
:101D600013F52250066323A0632201D526EAB1DBD6
:101D7000B1DB75260AEAF4200102D287300102C2E3
:101D800087B1DBC3134002C201D526EB22B191EA31
:101D9000FB208702A191308702A196752608AE2408
:101DA000AF25C3EF13FFEE13FEB1DFB1DBC3EA13C0
:101DB0003087024480FA30E703632201C3E523132E
:101DC000F523E52213F52250066323A0632201D5F3
:101DD00026D9E52265236523F52222AE24AF250E00
:101DE0000FDEFEDFFCD20122424C48656C693437BD
:061DF0003164E8B20601B7
:00000001FF
