:060000000219FD02033CA1
:03000B0002008070
:0300130002034F96
:03001B000200B030
:03002B0002030AC3
:03005B0002035E3F
:030073000203295C
:10008000C0D075D01018B8CF0408208707B2878673
:100090008AD0D03253A47FD287C2A98F8E7589AA05
:1000A000C289C28B758A00D2A8D2AAC228D0D03207
:1000B000C2A8C28E85588BC0D075D008C0E0C0F0F1
:1000C000C2CAA9CCAACDD2CAC3E99559F9EA955AB0
:1000D0007049C3E9955B4043955B503FB8103C784D
:1000E00000A9577D00E2FEC39DC399402E99EC33D1
:1000F000FC08E2FDC39EC399402199EC33FC08E261
:10010000FEC39DC399401499EC33FC08E2FDC39EE5
:10011000C399400799EC33FC088002806AE2FEC371
:100120009DC399406299EB33FB08E2FDC39EC399DE
:10013000405599EB33FB08E2FEC39DC399404899B3
:10014000EB33FB08E2FDC39EC399403B99EB33FBC5
:1001500008E2FEC39DC399402E99EB33FB08E2FDF4
:10016000C39EC399402199EB33FB08E2FEC39DC3B4
:1001700099401499EB33FB08E2FDC39EC3994007F5
:1001800099EB33FB08801E0530E53070021530C353
:10019000E5309432400AD225755C00755D0041FA65
:1001A00075310A41FAE2FEC39DC39940DA99EA33F8
:1001B000FA08E2FDC39EC39940CD99EA33FA08E2FA
:1001C000FEC39DC39940C099EA33FA08E2FDC39E7D
:1001D000C39940B399EA33FA08EBC46B6C6A3027D1
:1001E00001F4540F70A1C3EBF4FA9460FBECF454E7
:1001F0000F9400FC5018EA7C007B00600CC3135085
:1002000007B55C05055D8006E4F55C755D00302290
:100210001BC3EB94D0F5F0EC94074003ABF0FC303B
:100220002101B39226C3EB33FBEC33FCEB54F04CCF
:10023000C475F00584FAEC13FCEB132AFBEC3400D4
:10024000FC30E3047BFF7C07201C27301124EC707A
:100250000C798187F0C3EB95F05002ABF0E5376085
:100260001175F028A42BFBEC3400FC30E3047BFF79
:100270007C07EB54F84CC423F97007EB7004D225CB
:100280008005753200C225E53060021530C3E54DAA
:10029000FD954E4002AD4EC3ED995008ED75F00846
:1002A000A4FBACF08CF0EBA2F013A2F113F4F9EC88
:1002B0000303F45401FAC3E99419FBEA9400FC50D7
:1002C00005E4FBFC800DC3EB9550EC95514004AB6D
:1002D00050AC5189E98AEA8BFB8CFC75310A3027D6
:1002E00019302816758E017589A2D28743A48078AB
:1002F0000085648AC28DD2A980097800758A00D2EF
:10030000A8D2AAD0F0D0E0D0D032C0E0C2CF053C15
:10031000D223E5317004D22580021531302507E55E
:10032000320460020532D0E032C2AF53E67F53910F
:100330007F7592FA7593FFC218D2AF32C0E0E58A9A
:1003400085588BC0D075D008F208D0D0D0E032C22A
:10035000AAD28EC2CA85CC5985CD5AD2CA32327A37
:10036000007901801E7A00790580187A00790A8068
:10037000127A007964800C7A0079C880067A007954
:10038000FA8000090A8009781874FFD5E0FDD8F9D1
:10039000D9F5DAF3227A427B3580247A2D7B4D80A1
:1003A0001E7A267B5C80187A197B8C80127A147BEB
:1003B000AF800C7A427B1E80067A2D7B2C8000E574
:1003C000547001227902E453F2DFD5E0FDD2954367
:1003D000F220D5E0FD53F2DFD5E0FDC29543F220D7
:1003E000D5E0FDE920E005D29643F24030E005D2A9
:1003F0009443F210E554D5E0FDE920E00353F2BF49
:1004000030E00353F2EF7496D5E0FDD9B9EA78C82D
:10041000D8FED5E0F9DBAD53F2DF227195719B7107
:10042000A12271B971952271A1719B71952271B947
:1004300071B32279998754B8010471958017B80275
:1004400004719B8010B8030471A18009B804047181
:10045000A7800271AD7998875422901A70E493F4C2
:10046000601D7C3E901A74E493A3FB6012E493FA3F
:10047000600471BF8006EBF97A007183A3DCE82287
:1004800078A5E6F954037000E9540C7000E9543083
:100490007000E954C070002253F28F53F28F75D56B
:1004A000FF22201E32A84F20102A78FFE53B60244F
:1004B000E543602074FF301102747F8543F084852A
:1004C0003BF0A4F8C5F06004754EFF22C3E8954FD9
:1004D0005002A84F884E22C3E54294A0E543940001
:1004E000E54E5003148001046002F54E22102301F2
:1004F000220567E5675407600122E56720E335E5DB
:100500005260267553FFE5BE601FE5BDC39552409E
:10051000187553C8940440117553969404400A7595
:1005200053649404400375533220240122853865B6
:1005300075660C22E552600FC3E54D955360084087
:1005400004154D8002054D302473E5675438B40816
:1005500029C3E53994785003E4800475F00984A236
:100560001392E7A21492E6A21592E5C213C214C236
:1005700015F56575660E75E89022B4180A756588DC
:1005800075660875E89022B4280A7565AA75660A2A
:1005900075E8902278A6B6010DE5BE7003E48018D8
:1005A000E5BD94148012E5BE700AE5BDC394EB501E
:1005B00007E48004E5BD2414F56575660275E890CE
:1005C000227542007543F022C2AFC2CAA8CCA9CDA1
:1005D000AA3C30CF010AD2CAD2AFC3EA13FAE91358
:1005E000F9E813F8201014C3E8953D883DF8E99523
:1005F0003E893E547FF9301E36C1E2AB3DAC3EAD84
:100600003F883D893E8A3FC3E89BE99CEA9D547F31
:1006100060087542FF7543FFC1B1AE40AF418B40EA
:100620008C41C3E89EF8E99FF9AA42AB438011AA26
:1006300042AB43C3EB94044048940440132011267A
:10064000C3EB13FDEA13FCC3ED13FDEC13FC804A6E
:10065000EBC423FCEAC423541F4CFC7D00C3E91304
:10066000F9E813F88034EBC423FC541FFDEC54E08C
:10067000FCEAC423541F4CFCC3E913F9E813F880C7
:1006800019EBC4FCEAC4540F4CFC7D00C3E913F918
:10069000E813F8C3E913F9E813F8C3EA9CFAEB9DF1
:1006A000FBEA28F542EB39F54350067542FF7543E6
:1006B000FFC3E54394025002D21EE543C4FA540F2F
:1006C000FBEA54F0FAE542C4540F4AFAC3EA940232
:1006D000FAEB9400FB40057048EA70457A017B0014
:1006E000803FAA42AB43EBC4FCEAC4540F4CFCC3AA
:1006F000EA9CFAEB9400FBE80303543F2AFAEB343C
:1007000000FB8A428B43C394024002C21EEBC4FE2C
:100710007B00EAC4540F4EC39402FA400270027A7E
:1007200001202806301808120B5230180280FB8571
:100730004992854A93D21843E6807892E6FFC3E453
:100740009AF8E49BF9C3E833F8E933F9201E7F30C7
:1007500010047F038015C3E5389482400E0F941E69
:1007600040010FC3EF940640027F05E8FAE9FBD38E
:10077000E913FDE813FC8C478D488849894AC3EF8B
:100780009403602BEF20E00CE82CF8E93DF9ECFA3B
:10079000EDFB800BE8D338F8E939F97AFF7BFFC32A
:1007A000EF9403400A8A4B8B4C88458946805088D9
:1007B0004B894C8A458B46301045754BF0754CFF84
:1007C0007547F07548FF7549F0754AFF8031E8FAC2
:1007D000D313FC8C478849C3EF9403601EEF20E0DD
:1007E00007E82CF8ECFA8007E8282401F87AFFC320
:1007F000EF940340068A4B88458004884B8A452045
:100800002805301807715230180280FB753502D266
:100810001843E68030112DA842A943C3E913F9E833
:1008200013F8301004E92440F9C2AF53E67F759104
:1008300000C3E498F594E499F595759104D21843B2
:10084000E680D2AF2275F000301D0E75F0408009B1
:1008500075F040301D0375F000D2197544007A021E
:100860007B02201E1D301102C2193010067A367B21
:1008700036800F7B28E543700104FAC394284002B8
:100880007A28201810E544600C301003D53504D2C6
:100890001A8066110F0544E59B5440B5F00DE53410
:1008A00060BC2019B9DADBC21A804E20100B201967
:1008B000110AC3EA9B40CB80A50AC3EA9B40011AF8
:1008C00080C0C21953E67F759100301E11759400E7
:1008D0007595F0759104D21843E68002085EE543F1
:1008E0007EFFC3334009C3334005C3334001FEC319
:1008F000E49E759400F59580DAC2AF53E67F854596
:1009000092854693759100854B94854C957591041D
:10091000D21843E680D2AF201018301A17201114D5
:10092000201D1120190EC2AF1204981581158102E5
:1009300012C2053422E53875F007A430190405F019
:10094000D213A2F013A2F113A2F213F538C39478D4
:100950005003753878C3E53895394003853839C375
:10096000E538953A4008D21453F28F75D5FF202808
:1009700005301807715230180280FB854792854870
:1009800093D21843E68022201216C2AF53F2DFC280
:100990009643F24075D5EF43F210D2AF759F5322C4
:1009A000C2AF53F2DFC29443F21075D5BF43F24099
:1009B000D2AF759F5322201216C2AF53F2EF75D5F6
:1009C000DF43F220C29643F240D2AF759F6322C24A
:1009D000AF53F2BF75D5DF43F220C29443F210D279
:1009E000AF759F2322201216C2AF53F2BFC29443A9
:1009F000F21075D5DF43F220D2AF759F2322C2AF2C
:100A000053F2EFC29643F24075D5DF43F220D2AFE6
:100A1000759F6322201216C2AF53F2DF75D5BF4314
:100A2000F240C29443F210D2AF759F5322C2AF532B
:100A3000F2DF75D5EF43F210C29643F240D2AF75A4
:100A40009F5322201216C2AF53F2EFC29543F220F9
:100A500075D5BF43F240D2AF759F6322C2AF53F248
:100A6000BFC29543F22075D5EF43F210D2AF759F08
:100A70002322201216C2AF53F2BF75D5EF43F210F6
:100A8000C29543F220D2AF759F2322C2AF53F2EF3B
:100A900075D5BF43F240C29543F220D2AF759F6334
:100AA000227432A28740032087F750033087F2D5A3
:100AB000E0F3922722E55C700122F8C39406500F00
:100AC000C2AF120498120433120377D2AF807CC3F2
:100AD000E55D9406407BB80704C221806EB8080427
:100AE000D2218067B80904C2228060B80A04D222E9
:100AF0008059B80D0A75650075660ED224804CB811
:100B00000E0A7565FF75660EC224803FB8140C7915
:100B100088E714A2E09221C22A8030B8150D7988A6
:100B2000E714A2E0B39221D22A8020B80C1DE4A2DF
:100B30002192E0A22292E1047988F77555A57556B5
:100B4000F1B1C7755500755600D2AF755C00755D83
:100B50000022C0D075D010BE0039E566702EC2AF3D
:100B6000E542854327D2AFA23813F9A2391329FAF7
:100B7000E52703C2E7F903C2E739FBE5272323543E
:100B8000FCFCC3EA9CF526EB9400F5270E20180325
:100B9000D0D022BE0124E5667010E527705DE52601
:100BA000701175270F7526FF8009856526856627D4
:100BB0007566000E201803D0D022BE0215E526C4AB
:100BC00065266527F478D0A65E91780E201803D0AC
:100BD000D022BE030BE52691780E201803D0D02238
:100BE000BE040CE526C491780E201803D0D022E56F
:100BF000279178087E00D0D0D2282220E71620E660
:100C00001D20E52720E43420E34120E25020E15C70
:100C1000E526809FA23733F52675270F8095A237EA
:100C200033A23633F52675270D8088A23733A236D6
:100C300033A23533F52675270B61B3E52654F0C290
:100C40003C4527C4F52675270961B3E526A238136C
:100C5000A23913A23A13F52675270761B3E526A238
:100C60003813A23913F52675270561B3E526A23896
:100C700013F52675270361B3540F23900C7F7381FE
:100C80009F81A981B681C781D181DE81E881FCA1E4
:100C900009A11DA124A135A13FA156A160A17408FD
:100CA000A66008A65E08A65E2208A65E08A65F08E3
:100CB000A65E08A65E2286F0E55FB5F002E560F666
:100CC00008A66008A65E2208A65E08A66008A65EC2
:100CD0002208A65F08A65E08A65E08A65E2208A6F1
:100CE0005F08A65F08A65E2286F0E55FB5F002E524
:100CF00060F608A65E08A65F08A65E2208A65E0843
:100D0000A65E08A65F08A65E2286F0E55FB5F00243
:100D1000E560F608A65F08A65E08A65E2208A66043
:100D200008A65F2286F0E55FB5F002E560F608A64A
:100D30005F08A65F2208A65E08A65F08A65F228657
:100D4000F0E55FB5F002E560F608A65E08A65E086D
:100D5000A65E08A65E2208A65F08A65E08A65F2219
:100D600086F0E55FB5F002E560F608A65E08A65ECF
:100D700008A65F2208A65E08A65E08A65E08A65F13
:100D800022901A0D7820D107E520B4550AA3D10787
:100D9000E520B4AA0280127555A57556F1D18EB121
:100DA000C7755500755600801D901A0378807B0A20
:100DB000D107A308DBFA901A0F788C7B1CD107A30C
:100DC00008DBFA901A2B22C2AFD14AD16CD12790FE
:100DD0001A007400D10CA37415D10CA374D0D10CDB
:100DE000901A0378807B0AD10BA308DBFA901A0FC4
:100DF000788C7B1CD10BA308DBFAD15DD17FD13B72
:100E0000901A2B12037722E493F622E6438F0153C4
:100E10008FFDFFC3E583941C400122EF8555B78504
:100E200056B7F0538FFE22438F02438F018555B78B
:100E30008556B7901A0DF0538FFC22901A0D7455F9
:100E4000D10C901A0E74AAD10C227A3079D0782065
:100E5000901A40D107E520F709A3DAF7227A307912
:100E6000D0901A40E7D10C09A3DAF9227A8C7900E4
:100E70007820901A70D107E520F309A3DAF7227AD7
:100E80008C7900901A70E3D10C09A3DAF9227880EA
:100E900076FF0876150876010876FF08760508764D
:100EA000FF0876090876300876010876FF080808FA
:100EB00076FF0876FF0876FF0876FF0876FF08764B
:100EC000FF0876040876FF0876FF0876FF0876FFAD
:100ED0000876FF0876280876500876040876FF081A
:100EE00076020876FF0876FF0876FF087600087617
:100EF000FF0876FF0876FF0876000876000876027D
:100F0000087600227888E614A2E19222A2E09221DB
:100F10007884745096500276507886740D965002FC
:100F2000760D863B789CE6753AFFB40203753AA0CD
:100F3000B40303753A8275520078A0E6F9600F7821
:100F4000A6B601047453800274282409D9FCF55212
:100F500078988654788DE623F95401F551E954FECA
:100F6000F550B6FF037550FF227555007556007594
:100F700097DE7597AD7581B043FF8075EF0675A953
:100F8000001204987580FF75F19375A4007580FFB9
:100F900075D4FF75900075F28F75A570759000750A
:100FA000D5FF75A60175A72075F30175CC0175A74E
:100FB0000075E34075E202120498E4F8F6D8FDD11A
:100FC0008EB181F104C2AF12037112045A1204806F
:100FD000120371C2AF75550075560012049875A9B9
:100FE0001375A71075C10075A700780979007A00FC
:100FF00030870CDAFBD9F9D8F7120422021C003032
:10100000290E12041B12037D12037D12037DC229D7
:10101000758851758E017589AA758C00758D00755E
:10102000C80475910475D84075D90875F781759E07
:101030000775960175DB4275DA42759B80759D00D8
:1010400078A6B6010575D11C800375D10C75BCB9A5
:1010500075BB1075E88075B20112035F120AA175A5
:10106000E4F730270375E47FC213C214C215C22807
:10107000C22475A82D75E68075B803D2AF758E0CA5
:10108000755880755710755B50755EF7755FE7751D
:1010900060D67564E17561EB7562CA7563A97530D8
:1010A0000A120371E530602B7558C0755708755BDF
:1010B00028755EFF755FF77560EF7564E17561FB1C
:1010C0007562EB7563DA75300A120371E5306003FF
:1010D000020FD3C0D075D010AF8ED0D0D2297537C3
:1010E00000C2AF1203B3D2AFC3E532940A40F9C2D3
:1010F000AF1203B9D2AFE4F542F543F55CF55DF507
:1011000033F53CC3E53C945E4033753C00053378D1
:101110009AE67814146012782814600D78641460CC
:101120000878C8146003753300C3E53398400E1582
:10113000337804C2AF120498120433D2AF202806C9
:10114000120B521204ED30250CE5317003020FD35F
:10115000120AB580AE1203712025A878A7B601083F
:1011600020240512042E809BC2AF120498E475223D
:10117000007523007538007539007566007984871D
:101180004F854F4E854F4D854F5375A71075C13014
:1011900075A70075A903C3E55833F558C3E55B335C
:1011A000F55BC3E55733F557E55EC561F55EE55F71
:1011B000C562F55FE560C563F56075643CA2219288
:1011C00012302204A2269212D210D2117534007568
:1011D000360C120A43120A721205C11205C8120512
:1011E000C11205C81205C1D2AF120850120935123A
:1011F00009871205C81208451204A21209351209FE
:10120000B61205C81208501209351209E51205C8B0
:10121000120845120935120A141205C81208501294
:101220000935120A431205C8120845120935120A77
:10123000721205C81204ED301135301014854F4D6F
:10124000854F4EC3E5349418500530259C8078C2F4
:1012500010201D1BE53614600AF53630258B202240
:10126000888064C211754DFF7553FFD21C21E9754A
:101270003700D21B30251320220C79A4E76007C366
:10128000E53294035041E531603D202209C3E54336
:1012900094F0503321E9201D1220120520260580EC
:1012A000EC2026E9D21D854F4E4110854F4EC3E5F7
:1012B000439440400BC21DA2269212D211753612E1
:1012C00021E9201B020537C2AF1204987522007570
:1012D000230075A91375A71075C10075A700D3E584
:1012E0005813F558C3E55B13F55BC3E55713F55782
:1012F000E55EC561F55EE55FC562F55FE560C56306
:10130000F5607564E1202520D215C3E537940350BC
:1013100006120371021168D2AF202A02C224C2AFA2
:10132000120427D2AF0210D3D2AF202A02C22475F2
:10133000370078A4E6600FC29643F240C29543F2AC
:0913400020C29443F2100210F6E1
:1019FD00020F690015D0FF1501FF05FF093001FF2A
:101A0D0055AAFFFFFFFFFFFF04FFFFFFFFFF285059
:0F1A1D0004FF02FFFFFF00FFFFFF00000200FFBA
:101A400023575F485F32352320202020202020208C
:101A500023424C48454C492445464D3842323123B7
:101A6000426C75656A617920282E3029202020205B
:101A7000023A042034420D00452D0D0034420D0081
:0B1A80004E27D300452DD0193419006B
:101C0000C2AFC2D37597DE7597AD7581C075A90057
:101C100043FF80752438752503B1DB7529A5752A26
:101C2000F143F18053A47FD28775D4FF75E3407DE3
:101C3000FA780379E67C10752200752300901DE880
:101C40007B06752498752501308702814820870816
:101C5000D8FBD9F9DCF781BA308708D8FBD9F9DC91
:101C6000F781BAB19BE493A3C39A6004DDC381BA40
:101C7000DBDBB18D600281317B08E493FAA3B16EA6
:101C8000DBF87A30B16E752200752300B18DEAFC65
:101C9000EBFDC3ED94FE400EB18D8A278B28ED300D
:101CA000E0048A828B83B18D7AC270D8C3ED94FE32
:101CB000601950CEBD0029EC600F7520007521FF22
:101CC000752900752A000200008100A827A92808AC
:101CD00009D804D90281DDB191EAF281D10D81A642
:101CE000C3ED94035051EDA2E092007AC5C3E582A2
:101CF0009400E583941C508C200010438F02438F86
:101D0000018529B7852AB7F0300027A827A9280818
:101D100009438F01538FFDD804D902A132C3E58353
:101D2000941C4003A3A117E28529B7852AB7F0A325
:101D3000A117538FFC81827AC1BD030CE493A3FAEF
:101D4000B152DCF8B14A81828184AA22AB23B16E00
:101D5000EBFAEA6222752608C3E52313F523E52290
:101D600013F52250066323A0632201D526EAB1DBD6
:101D7000B1DB75260AEAF4200102D287300102C2E3
:101D800087B1DBC3134002C201D526EB22B191EA31
:101D9000FB208702A191308702A196752608AE2408
:101DA000AF25C3EF13FFEE13FEB1DFB1DBC3EA13C0
:101DB0003087024480FA30E703632201C3E523132E
:101DC000F523E52213F52250066323A0632201D5F3
:101DD00026D9E52265236523F52222AE24AF250E00
:101DE0000FDEFEDFFCD20122424C48656C693437BD
:061DF0003164E8B20601B7
:00000001FF
