:060000000219FD020335A8
:03000B0002008070
:030013000203489D
:03001B000200B030
:03002B00020303CA
:03005B0002035746
:0300730002032263
:10008000C0D075D01018B8CF0408208707B2878673
:100090008AD0D03253A47FD287C2A98F8E7589AA05
:1000A000C289C28B758A00D2A8D2AAC228D0D03207
:1000B000C2A8C28E85588BC0D075D008C0E0C0F0F1
:1000C000C2CAA9CCAACDD2CAC3E99559F9EA955AB0
:1000D0007049C3E9955B4043955B503FB8103C784D
:1000E00000A9577D00E2FEC39DC399402E99EC33D1
:1000F000FC08E2FDC39EC399402199EC33FC08E261
:10010000FEC39DC399401499EC33FC08E2FDC39EE5
:10011000C399400799EC33FC088002806AE2FEC371
:100120009DC399406299EB33FB08E2FDC39EC399DE
:10013000405599EB33FB08E2FEC39DC399404899B3
:10014000EB33FB08E2FDC39EC399403B99EB33FBC5
:1001500008E2FEC39DC399402E99EB33FB08E2FDF4
:10016000C39EC399402199EB33FB08E2FEC39DC3B4
:1001700099401499EB33FB08E2FDC39EC3994007F5
:1001800099EB33FB08801E0530E53070021530C353
:10019000E5309432400AD225755C00755D0041F36C
:1001A00075310A41F3E2FEC39DC39940DA99EA33FF
:1001B000FA08E2FDC39EC39940CD99EA33FA08E2FA
:1001C000FEC39DC39940C099EA33FA08E2FDC39E7D
:1001D000C39940B399EA33FA08EBC46B6C6A3027D1
:1001E00001F4540F70A1C3EBF4FA9460FBECF454E7
:1001F0000F9400FC5018EA7C007B00600CC3135085
:1002000007B55C05055D8006E4F55C755D00302290
:100210001BC3EB94D0F5F0EC94074003ABF0FC303B
:100220002101B39226C3EB33FBEC33FCEB54F04CCF
:10023000C475F00584FAEC13FCEB132AFBEC3400D4
:10024000FC30E3047BFF7C07201C27301124EC707A
:100250000C798187F0C3EB95F05002ABF0E5376085
:100260001175F028A42BFBEC3400FC30E3047BFF79
:100270007C07EB54F84CC423F97007EB7004D225CB
:100280008005753200C225E53060021530C3E54DAA
:10029000FD954E4002AD4EC3ED995008ED75F00846
:1002A000A4FBACF0C3EC13F45403FAEB13F4F9C35E
:1002B000E9940FFBEA9400FC5005E4FBFC800DC3BD
:1002C000EB9550EC95514004AB50AC5189E98AEA6A
:1002D0008BFB8CFC75310A302719302816758E017E
:1002E0007589A2D28743A480780085648AC28DD2A2
:1002F000A980097800758A00D2A8D2AAD0F0D0E0EF
:10030000D0D032C0E0C2CF053CD223E5317004D258
:100310002580021531302507E5320460020532D010
:10032000E032C2AF53E67F53917F7592FA7593FF27
:10033000C218D2AF32C0E0E58A85588BC0D075D0E4
:1003400008F208D0D0D0E032C2AAD28EC2CA85CC80
:100350005985CD5AD2CA32327A007901801E7A008C
:10036000790580187A00790A80127A007964800C05
:100370007A0079C880067A0079FA8000090A800933
:10038000781874FFD5E0FDD8F9D9F5DAF3227A426E
:100390007B3580247A2D7B4D801E7A267B5C8018ED
:1003A0007A197B8C80127A147BAF800C7A427B1E88
:1003B00080067A2D7B2C8000E5547001227902E4BE
:1003C00053F2DFD5E0FDD29543F220D5E0FD53F2A4
:1003D000DFD5E0FDC29543F220D5E0FDE920E00540
:1003E000D29643F24030E005D29443F210E554D562
:1003F000E0FDE920E00353F2BF30E00353F2EF7475
:1004000096D5E0FDD9B9EA78C8D8FED5E0F9DBADDC
:1004100053F2DF22718E7194719A2271B2718E2221
:10042000719A7194718E2271B271AC22799987544C
:10043000B80104718E8017B8020471948010B8035B
:1004400004719A8009B8040471A0800271A6799899
:10045000875422901A70E493F4601D7C3E901A74C5
:10046000E493A3FB6012E493FA600471B88006EB96
:10047000F97A00717CA3DCE82278A5E6F9540370D0
:1004800000E9540C7000E954307000E954C0700069
:100490002253F28F53F28F75D5FF22201E32A84FC0
:1004A00020102A78FFE53B6024E543602074FF308C
:1004B0001102747F8543F084853BF0A4F8C5F06099
:1004C00004754EFF22C3E8954F5002A84F884E2274
:1004D000C3E54294A0E5439400E54E500314800127
:1004E000046002F54E22102301220567E5675407D8
:1004F000600122E56720E335E55260267553FFE58C
:10050000BE601FE5BDC3955240187553C8940440A2
:10051000117553969404400A75536494044003750E
:1005200053322024012285386575660C22E552601D
:100530000FC3E54D955360084004154D8002054DED
:10054000302473E5675438B40829C3E539947850EA
:1005500003E4800475F00984A21392E7A21492E6E2
:10056000A21592E5C213C214C215F56575660E7523
:10057000E89022B4180A75658875660875E89022B7
:10058000B4280A7565AA75660A75E8902278A6B639
:10059000010DE5BE7003E48018E5BD94148012E5FA
:1005A000BE700AE5BDC394EB5007E48004E5BD24AA
:1005B00014F56575660275E890227542007543F082
:1005C00022C2AFC2CAA8CCA9CDAA3C30CF010AD260
:1005D000CAD2AFC3EA13FAE913F9E813F8201014EA
:1005E000C3E8953D883DF8E9953E893E547FF93052
:1005F0001E36C1DBAB3DAC3EAD3F883D893E8A3FF8
:10060000C3E89BE99CEA9D547F60087542FF7543EF
:10061000FFC1AAAE40AF418B408C41C3E89EF8E9D0
:100620009FF9AA42AB438011AA42AB43C3EB9404A7
:10063000404894044013201126C3EB13FDEA13FC39
:10064000C3ED13FDEC13FC804AEBC423FCEAC42386
:10065000541F4CFC7D00C3E913F9E813F88034EB18
:10066000C423FC541FFDEC54E0FCEAC423541F4C8B
:10067000FCC3E913F9E813F88019EBC4FCEAC4548D
:100680000F4CFC7D00C3E913F9E813F8C3E913F933
:10069000E813F8C3EA9CFAEB9DFBEA28F542EB3934
:1006A000F54350067542FF7543FFC3E5439402507E
:1006B00002D21EE543C4FA540FFBEA54F0FAE542B5
:1006C000C4540F4AFAC3EA9402FAEB9400FB4005C3
:1006D0007048EA70457A017B00803FAA42AB43EB49
:1006E000C4FCEAC4540F4CFCC3EA9CFAEB9400FB34
:1006F000E80303543F2AFAEB3400FB8A428B43C3DE
:1007000094024002C21EEBC4FE7B00EAC4540F4EAA
:10071000C39402FA400270027A01202806301808B9
:10072000120B4B30180280FB854992854A93D218F0
:1007300043E6807892E6FFC3E49AF8E49BF9C3E8C5
:1007400033F8E933F9201E7F3010047F038015C38E
:10075000E5389482400E0F941E40010FC3EF9406BB
:1007600040027F05E8FAE9FBD3E913FDE813FC8CAE
:10077000478D488849894AC3EF9403602BEF20E0F6
:100780000CE82CF8E93DF9ECFAEDFB800BE8D338E6
:10079000F8E939F97AFF7BFFC3EF9403400A8A4BEB
:1007A0008B4C884589468050884B894C8A458B46BE
:1007B000301045754BF0754CFF7547F07548FF7567
:1007C00049F0754AFF8031E8FAD313FC8C47884919
:1007D000C3EF9403601EEF20E007E82CF8ECFA80EA
:1007E00007E8282401F87AFFC3EF940340068A4BF8
:1007F00088458004884B8A45202805301807714BAE
:1008000030180280FB753502D21843E68030112D76
:10081000A842A943C3E913F9E813F8301004E92406
:1008200040F9C2AF53E67F759100C3E498F594E4B4
:1008300099F595759104D21843E680D2AF2275F0F0
:1008400000301D0E75F040800975F040301D0375B5
:10085000F000D2197544007A027B02201E1D30116F
:1008600002C2193010067A367B36800F7B28E543AA
:10087000700104FAC3942840027A28201810E54435
:10088000600C301003D53504D21A80661108054477
:10089000E59B5440B5F00DE53460BC2019B9DADBB6
:1008A000C21A804E20100B2019110AC3EA9B40CBBC
:1008B00080A50AC3EA9B40011A80C0C21953E67F93
:1008C000759100301E117594007595F0759104D2E4
:1008D0001843E680020857E5437EFFC3334009C34F
:1008E000334005C3334001FEC3E49E759400F59583
:1008F00080DAC2AF53E67F854592854693759100B5
:10090000854B94854C95759104D21843E680D2AFFF
:10091000201018301A17201114201D1120190EC292
:10092000AF120491158115810212BC053422E538FD
:1009300075F007A430190405F0D213A2F013A2F148
:1009400013A2F213F538C394785003753878C3E5D1
:100950003895394003853839C3E538953A4008D28F
:100960001453F28F75D5FF202805301807714B30CE
:10097000180280FB854792854893D21843E680226F
:10098000201216C2AF53F2DFC29643F24075D5EF84
:1009900043F210D2AF759F5322C2AF53F2DFC2941D
:1009A00043F21075D5BF43F240D2AF759F5322205A
:1009B0001216C2AF53F2EF75D5DF43F220C2964351
:1009C000F240D2AF759F6322C2AF53F2BF75D5DF3D
:1009D00043F220C29443F210D2AF759F232220121B
:1009E00016C2AF53F2BFC29443F21075D5DF43F283
:1009F00020D2AF759F2322C2AF53F2EFC29643F2CB
:100A00004075D5DF43F220D2AF759F6322201216C6
:100A1000C2AF53F2DF75D5BF43F240C29443F21028
:100A2000D2AF759F5322C2AF53F2DF75D5EF43F2B9
:100A300010C29643F240D2AF759F5322201216C2C5
:100A4000AF53F2EFC29543F22075D5BF43F240D2C7
:100A5000AF759F6322C2AF53F2BFC29543F22075B8
:100A6000D5EF43F210D2AF759F2322201216C2AFEA
:100A700053F2BF75D5EF43F210C29543F220D2AFC7
:100A8000759F2322C2AF53F2EF75D5BF43F240C228
:100A90009543F220D2AF759F63227432A287400340
:100AA0002087F750033087F2D5E0F3922722E55CE8
:100AB000700122F8C39406500FC2AF1204911204C1
:100AC0002C120370D2AF807CC3E55D9406407BB8E6
:100AD0000704C221806EB80804D2218067B80904D7
:100AE000C2228060B80A04D2228059B80D0A756506
:100AF0000075660ED224804CB80E0A7565FF7566C7
:100B00000EC224803FB8140C7988E714A2E0922129
:100B1000C22A8030B8150D7988E714A2E0B392217B
:100B2000D22A8020B80C1DE4A22192E0A22292E1F8
:100B3000047988F77555A57556F1B1C075550075DE
:100B40005600D2AF755C00755D0022C0D075D01024
:100B5000BE0039E566702EC2AFE542854327D2AFAD
:100B6000A23813F9A2391329FAE52703C2E7F903DA
:100B7000C2E739FBE527232354FCFCC3EA9CF52696
:100B8000EB9400F5270E201803D0D022BE0124E5F7
:100B9000667010E527705DE526701175270F7526C4
:100BA000FF80098565268566277566000E20180377
:100BB000D0D022BE0215E526C465266527F478D07C
:100BC000A65E91710E201803D0D022BE030BE5263D
:100BD00091710E201803D0D022BE040CE526C491DA
:100BE000710E201803D0D022E5279171087E00D025
:100BF000D0D2282220E71620E61D20E52720E43465
:100C000020E34120E25020E15CE526809FA23733BB
:100C1000F52675270F8095A23733A23633F5267552
:100C2000270D8088A23733A23633A23533F52675D7
:100C3000270B61ACE52654F0C23C4527C4F5267568
:100C4000270961ACE526A23813A23913A23A13F59D
:100C50002675270761ACE526A23813A23913F526BD
:100C600075270561ACE526A23813F52675270361C3
:100C7000AC540F23900C7873819881A281AF81C00E
:100C800081CA81D781E181F5A102A116A11DA12E02
:100C9000A138A14FA159A16D08A66008A65E08A6BB
:100CA0005E2208A65E08A65F08A65E08A65E2286EB
:100CB000F0E55FB5F002E560F608A66008A65E22E2
:100CC00008A65E08A66008A65E2208A65F08A65EC3
:100CD00008A65E08A65E2208A65F08A65F08A65EB4
:100CE0002286F0E55FB5F002E560F608A65E08A68C
:100CF0005F08A65E2208A65E08A65E08A65F08A694
:100D00005E2286F0E55FB5F002E560F608A65F08B2
:100D1000A65E08A65E2208A66008A65F2286F0E509
:100D20005FB5F002E560F608A65F08A65F2208A698
:100D30005E08A65F08A65F2286F0E55FB5F002E5D3
:100D400060F608A65E08A65E08A65E08A65E2208F3
:100D5000A65F08A65E08A65F2286F0E55FB5F002F2
:100D6000E560F608A65E08A65E08A65F2208A65EF5
:100D700008A65E08A65E08A65F22901A0D7820D10C
:100D800000E520B4550AA3D100E520B4AA028012E0
:100D90007555A57556F1D187B1C0755500755600CA
:100DA000801D901A0378807B0AD100A308DBFA909B
:100DB0001A0F788C7B1CD100A308DBFA901A2B2227
:100DC000C2AFD143D165D120901A007400D105A3E0
:100DD0007415D105A374D0D105901A0378807B0ACD
:100DE000D104A308DBFA901A0F788C7B1CD104A3E2
:100DF00008DBFAD156D178D134901A2B1203702225
:100E0000E493F622E6438F01538FFDFFC3E58394FD
:100E10001C400122EF8555B78556B7F0538FFE224F
:100E2000438F02438F018555B78556B7901A0DF051
:100E3000538FFC22901A0D7455D105901A0E74AA86
:100E4000D105227A3079D07820901A40D100E5205F
:100E5000F709A3DAF7227A3079D0901A40E7D10562
:100E600009A3DAF9227A8C79007820901A70D100DF
:100E7000E520F309A3DAF7227A8C7900901A70E35F
:100E8000D10509A3DAF922788076FF08761508766D
:100E9000010876FF0876050876FF087609087618B7
:100EA0000876010876FF08080876FF0876FF0876BE
:100EB000FF0876FF0876FF0876FF0876040876FFBD
:100EC0000876FF0876FF0876FF0876FF0876280880
:100ED00076500876040876FF0876020876FF0876D2
:100EE000FF0876FF0876000876FF0876FF0876FF91
:100EF000087600087600087602087600227888E6F0
:100F000014A2E19222A2E0922178847450965002B9
:100F100076507886740D965002760D863B789CE666
:100F2000753AFFB40203753AA0B40303753A8275AB
:100F3000520078A0E6F9600F78A6B60104745380D9
:100F40000274282409D9FCF55278988654788DE6E5
:100F50002323F95403F551E954FCF550B6FF03750A
:100F600050FF227555007556007597DE7597AD7563
:100F700081B043FF8075EF0675A90012049175805A
:100F8000FF75F19375A4007580FF75D4FF7590000F
:100F900075F28F75A57075900075D5FF75A60175F2
:100FA000A72075F30175CC0175A70075E34075E2C4
:100FB00002120491E4F8F6D8FDD187B17AD1FDC2CE
:100FC000AF12036A12045312047912036AC2AF7596
:100FD000550075560012049175A91375A71075C1B7
:100FE0000075A700780979007A0030870CDAFBD900
:100FF000F9D8F712041B021C0030290E1204141237
:101000000376120376120376C229758851758E0114
:101010007589AA758C00758D0075C8047591047565
:10102000D84075D90875F782759E0775960175DBEE
:101030004275DA42759B80759D0078A6B6010575EC
:10104000D11C800375D10C75BCB975BB1075E880D7
:1010500075B201120358120A9A75E4F73027037526
:10106000E47FC213C214C215C228C22475A82D750C
:10107000E68075B803D2AF758E0C75588075571021
:10108000755B50755EF7755FE77560D67564E175E1
:1010900061EB7562CA7563A975300A12036AE5309F
:1010A000602B7558C0755708755B28755EFF755FB6
:1010B000F77560EF7564E17561FB7562EB7563DA76
:1010C00075300A12036AE5306003020FCDC0D07597
:1010D000D010AF8ED0D0D229753700C2AF1203AC7A
:1010E000D2AFC3E532940A40F9C2AF1203B2D2AF15
:1010F000E4F542F543F55CF55DF533F53CC3E53CBD
:10110000945E4033753C000533789AE67814146099
:1011100012782814600D786414600878C81460038D
:10112000753300C3E53398400E15337804C2AF120F
:10113000049112042CD2AF202806120B4B1204E6A5
:1011400030250CE5317003020FCD120AAE80AE12CD
:10115000036A2025A878A7B60108202405120427D1
:10116000809BC2AF120491E475220075230075388C
:10117000007539007566007984874F854F4E854F1D
:101180004D854F5375A71075C13075A70075A9031C
:10119000C3E55833F558C3E55B33F55BC3E5573317
:1011A000F557E55EC561F55EE55FC562F55FE56033
:1011B000C563F56075643CA2219212302204A22618
:1011C0009212D210D21175340075360C120A3C12EC
:1011D0000A6B1205BA1205C11205BA1205C1120531
:1011E000BAD2AF12084912092E1209801205C11293
:1011F000083E12049B12092E1209AF1205C11208F3
:101200004912092E1209DE1205C112083E12092EDA
:10121000120A0D1205C112084912092E120A3C12B7
:1012200005C112083E12092E120A6B1205C11204E2
:10123000E6301135301014854F4D854F4EC3E534DF
:101240009418500530259C8078C210201D1BE5366F
:1012500014600AF53630258B2022888064C211750F
:101260004DFF7553FFD21C21E3753700D21B30258B
:101270001320220C79A4E76007C3E53294035041A0
:10128000E531603D202209C3E54394F0503321E36A
:10129000201D1220120520260580EC2026E9D21DF3
:1012A000854F4E410A854F4EC3E5439440400BC2E3
:1012B0001DA2269212D21175361221E3201B0205BF
:1012C00037C2AF12049175220075230075A91375FA
:1012D000A71075C10075A700D3E55813F558C3E5ED
:1012E0005B13F55BC3E55713F557E55EC561F55E26
:1012F000E55FC562F55FE560C563F5607564E12093
:101300002520D215C3E5379403500612036A021153
:1013100062D2AF202A02C224C2AF120420D2AF028E
:1013200010CDD2AF202A02C22475370078A4E6601F
:101330000FC29643F240C29543F220C29443F2108A
:031340000210F0A8
:1019FD00020F630015D0FF1501FF05FF091801FF48
:101A0D0055AAFFFFFFFFFFFF04FFFFFFFFFF285059
:0F1A1D0004FF02FFFFFF00FFFFFF00000200FFBA
:101A400023575F485F31352320202020202020208D
:101A500023424C48454C492445464D3842323123B7
:101A6000426C75656A617920282E3029202020205B
:101A7000023A042034420D00452D0D0034420D0081
:0B1A80004E27D300452DD0193419006B
:101C0000C2AFC2D37597DE7597AD7581C075A90057
:101C100043FF80752438752503B1DB7529A5752A26
:101C2000F143F18053A47FD28775D4FF75E3407DE3
:101C3000FA780379E67C10752200752300901DE880
:101C40007B06752498752501308702814820870816
:101C5000D8FBD9F9DCF781BA308708D8FBD9F9DC91
:101C6000F781BAB19BE493A3C39A6004DDC381BA40
:101C7000DBDBB18D600281317B08E493FAA3B16EA6
:101C8000DBF87A30B16E752200752300B18DEAFC65
:101C9000EBFDC3ED94FE400EB18D8A278B28ED300D
:101CA000E0048A828B83B18D7AC270D8C3ED94FE32
:101CB000601950CEBD0029EC600F7520007521FF22
:101CC000752900752A000200008100A827A92808AC
:101CD00009D804D90281DDB191EAF281D10D81A642
:101CE000C3ED94035051EDA2E092007AC5C3E582A2
:101CF0009400E583941C508C200010438F02438F86
:101D0000018529B7852AB7F0300027A827A9280818
:101D100009438F01538FFDD804D902A132C3E58353
:101D2000941C4003A3A117E28529B7852AB7F0A325
:101D3000A117538FFC81827AC1BD030CE493A3FAEF
:101D4000B152DCF8B14A81828184AA22AB23B16E00
:101D5000EBFAEA6222752608C3E52313F523E52290
:101D600013F52250066323A0632201D526EAB1DBD6
:101D7000B1DB75260AEAF4200102D287300102C2E3
:101D800087B1DBC3134002C201D526EB22B191EA31
:101D9000FB208702A191308702A196752608AE2408
:101DA000AF25C3EF13FFEE13FEB1DFB1DBC3EA13C0
:101DB0003087024480FA30E703632201C3E523132E
:101DC000F523E52213F52250066323A0632201D5F3
:101DD00026D9E52265236523F52222AE24AF250E00
:101DE0000FDEFEDFFCD20122424C48656C693437BD
:061DF0003164E8B20601B7
:00000001FF
