:060000000219FD02033AA3
:03000B0002008070
:0300130002034D98
:03001B000200B030
:03002B00020308C5
:03005B0002035C41
:030073000203275E
:10008000C0D075D01018B8CF0408208407B2848679
:100090008AD0D03253A4EFD284C2A98F8E7589AA98
:1000A000C289C28B758A00D2A8D2AAC228D0D03207
:1000B000C2A8C28E85588BC0D075D008C0E0C0F0F1
:1000C000C2CAA9CCAACDD2CAC3E99559F9EA955AB0
:1000D0007049C3E9955B4043955B503FB8103C784D
:1000E00000A9577D00E2FEC39DC399402E99EC33D1
:1000F000FC08E2FDC39EC399402199EC33FC08E261
:10010000FEC39DC399401499EC33FC08E2FDC39EE5
:10011000C399400799EC33FC088002806AE2FEC371
:100120009DC399406299EB33FB08E2FDC39EC399DE
:10013000405599EB33FB08E2FEC39DC399404899B3
:10014000EB33FB08E2FDC39EC399403B99EB33FBC5
:1001500008E2FEC39DC399402E99EB33FB08E2FDF4
:10016000C39EC399402199EB33FB08E2FEC39DC3B4
:1001700099401499EB33FB08E2FDC39EC3994007F5
:1001800099EB33FB08801E0530E53070021530C353
:10019000E5309432400AD225755C00755D0041F867
:1001A00075310A41F8E2FEC39DC39940DA99EA33FA
:1001B000FA08E2FDC39EC39940CD99EA33FA08E2FA
:1001C000FEC39DC39940C099EA33FA08E2FDC39E7D
:1001D000C39940B399EA33FA08EBC46B6C6A3027D1
:1001E00001F4540F70A1C3EBF4FA9460FBECF454E7
:1001F0000F9400FC5018EA7C007B00600CC3135085
:1002000007B55C05055D8006E4F55C755D00302290
:100210001BC3EB94D0F5F0EC94074003ABF0FC303B
:100220002101B39226C3EB33FBEC33FCEB54F04CCF
:10023000C475F00584FAEC13FCEB132AFBEC3400D4
:10024000FC30E3047BFF7C07201C27301124EC707A
:100250000C798187F0C3EB95F05002ABF0E5376085
:100260001175F028A42BFBEC3400FC30E3047BFF79
:100270007C07EB54F84CC423F97007EB7004D225CB
:100280008005753200C225E53060021530C3E54DAA
:10029000FD954E4002AD4EC3ED995008ED75F00846
:1002A000A4FBACF08CF0EBA2F013A2F113F4F9EC88
:1002B0000303F45401FA30291CEBF4540324C0F86E
:1002C000E623F630E00FE92401F97009EA3400FA78
:1002D00030E1021A1989FB8AFC75310A302719307E
:1002E0002816758E017589A2D28443A410780085E2
:1002F000648AC28DD2A980097800758A00D2A8D2FA
:10030000AAD0F0D0E0D0D032C0E0C2CF053CD2239A
:10031000E5317004D22580021531302507E532041D
:1003200060020532D0E032C2AF53E67F53917F7551
:1003300092FA7593FFC218D2AF32C0E0E58A8558B1
:100340008BC0D075D008F208D0D0D0E032C2AAD28B
:100350008EC2CA85CC5985CD5AD2CA32327A00793A
:1003600001801E7A00790580187A00790A80127A55
:10037000007964800C7A0079C880067A0079FA8066
:1003800000090A8009781874FFD5E0FDD8F9D9F57D
:10039000DAF3227A427B3580247A2D7B4D801E7AD7
:1003A000267B5C80187A197B8C80127A147BAF8054
:1003B0000C7A427B1E80067A2D7B2C8000E55470DF
:1003C00001227902E4C294D5E0FDD291D294D5E025
:1003D000FDC294D5E0FDC291D294D5E0FDE920E0C4
:1003E00004D290D29330E004D292D295E554D5E075
:1003F000FDE920E002C29330E002C2957496D5E098
:10040000FDD9C1EA78C8D8FED5E0F9DBB5C294229F
:1004100071937199719F2271B7719322719F719934
:1004200071932279998754B8010471938017B802A7
:100430000471998010B80304719F8009B804047195
:10044000A5800271AB7998875422901A70E493F4D6
:10045000601D7C3E901A74E493A3FB6012E493FA4F
:10046000600471BD8006EBF97A007181A3DCE8229B
:1004700078A5E6F95403C2857002D285E9540CC20E
:10048000867002D286E95430C2877002D287E9545E
:10049000C0700022C293C294C295C293C294C29506
:1004A00075D5FF22201E2E78FF201026E53B602206
:1004B000E543601E74FF301102747F8543F084852C
:1004C0003BF0A4F8C5F0600278FFC3E8954F5002F6
:1004D000A84F884E22C3E54294A0E5439400E54E20
:1004E0005003148001046002F54E221023012205FE
:1004F00067E56720E037E55260267553FFE5BE608B
:100500001FE5BDC3955240187553C894044011753A
:1005100053969404400A755364940440037553320F
:10052000202402A1B685386575660CA1B6E5526037
:100530000FC3E54D955360084004154D8002054DED
:10054000302470E5675407B40127C3E53994785027
:1005500003E4800475F00984A21392E7A21492E6E2
:10056000A21592E5C213C214C215F56575660E8018
:1005700042B403087565887566088037B405087548
:1005800065AA75660A802CB4072978A6B6010DE520
:10059000BE7003E48018E5BD94148012E5BE700AB5
:1005A000E5BDC394EB5007E48004E5BD2414F56574
:1005B00075660275E890227542007543F022C2AF5D
:1005C000C2CAA8CCA9CDAA3C30CF010AD2CAD2AFA8
:1005D000C3EA13FAE913F9E813F8201014C3E895F5
:1005E0003D883DF8E9953E893E547FF9301E36C17D
:1005F000D8AB3DAC3EAD3F883D893E8A3FC3E89BCA
:10060000E99CEA9D547F60087542FF7543FFC1A7CE
:10061000AE40AF418B408C41C3E89EF8E99FF9AAF8
:1006200042AB438011AA42AB43C3EB9404404894CD
:10063000044013201126C3EB13FDEA13FCC3ED1392
:10064000FDEC13FC804AEBC423FCEAC423541F4C8A
:10065000FC7D00C3E913F9E813F88034EBC423FCF4
:10066000541FFDEC54E0FCEAC423541F4CFCC3E9C6
:1006700013F9E813F88019EBC4FCEAC4540F4CFCDE
:100680007D00C3E913F9E813F8C3E913F9E813F897
:10069000C3EA9CFAEB9DFBEA28F542EB39F543509F
:1006A000067542FF7543FFC3E54394025002D21E14
:1006B000E543C4FA540FFBEA54F0FAE542C4540F80
:1006C0004AFAC3EA9402FAEB9400FB40057048EA48
:1006D00070457A017B00803FAA42AB43EBC4FCEA41
:1006E000C4540F4CFCC3EA9CFAEB9400FBE80303F0
:1006F000543F2AFAEB3400FB8A428B43C3940240F6
:1007000002C21EEBC4FE7B00EAC4540F4EC3940227
:10071000FA400270027A01202806301808120B1FD6
:1007200030180280FB854992854A93D21843E680AF
:100730007892E6FFC3E49AF8E49BF9C3E833F8E95A
:1007400033F9201E7F3010047F038015C3E53894F1
:1007500082400E0F941E40010FC3EF940640027FAB
:1007600005E8FAE9FBD3E913FDE813FC8C478D4853
:100770008849894AC3EF9403602BEF20E00CE82CF2
:10078000F8E93DF9ECFAEDFB800BE8D338F8E939EC
:10079000F97AFF7BFFC3EF9403400A8A4B8B4C88A6
:1007A0004589468050884B894C8A458B4630104598
:1007B000754BF0754CFF7547F07548FF7549F0753E
:1007C0004AFF8031E8FAD313FC8C478849C3EF9481
:1007D00003601EEF20E007E82CF8ECFA8007E82819
:1007E0002401F87AFFC3EF940340068A4B884580C2
:1007F00004884B8A45202806301808120B1F301831
:100800000280FB753502D21843E68030112DA842D4
:10081000A943C3E913F9E813F8301004E92440F9B7
:10082000C2AF53E67F759100C3E498F594E499F55F
:1008300095759104D21843E680D2AF2275F000304E
:100840001D0E75F040800975F040301D0375F000F5
:10085000D2197544007A027B02201E1D301102C29B
:10086000193010067A367B36800F7B28E5437001FD
:1008700004FAC3942840027A28201810E544600C3A
:10088000301003D53504D21A806611060544E59B65
:100890005440B5F00DE53460BC2019B9DADBC21A5A
:1008A000804E20100B2019110AC3EA9B40CB80A573
:1008B0000AC3EA9B40011A80C0C21953E67F7591B2
:1008C00000301E117594007595F0759104D218438F
:1008D000E680020855E5437EFFC3334009C3334039
:1008E00005C3334001FEC3E49E759400F59580DA9C
:1008F000C2AF53E67F854592854693759100854B3F
:1009000094854C95759104D21843E680D2AF20109F
:1009100013301A1220110F201D0C201909158115F2
:1009200081021299053422E53875F007A4301904C4
:1009300005F0D213A2F013A2F113A2F213F538C3FB
:1009400094785003753878C3E53895394003853875
:1009500039C3E538953A400BD214C293C294C2957C
:1009600075D5FF202805301807711F30180280FB4D
:10097000854792854893D21843E68022201213C2FD
:10098000AFC294C290D293D29575D5FBD2AF759F6A
:100990002322C2AFC294C292D295D29375D5FED211
:1009A000AF759F2322201213C2AFC295D29475D582
:1009B000FDC290D293D2AF759F1322C2AFC293D221
:1009C0009475D5FDC292D295D2AF759F03222012A5
:1009D00013C2AFC293C292D295D29475D5FDD2AF55
:1009E000759F0322C2AFC295C290D293D29475D59F
:1009F000FDD2AF759F1322201213C2AFC294D293BF
:100A000075D5FEC292D295D2AF759F2322C2AFC2D6
:100A100094D29575D5FBC290D293D2AF759F232205
:100A2000201213C2AFC295C291D294D29375D5FE53
:100A3000D2AF759F1322C2AFC293C291D294D29506
:100A400075D5FBD2AF759F0322201213C2AFC2939C
:100A5000D29575D5FBC291D294D2AF759F0322C2B5
:100A6000AFC295D29375D5FEC291D294D2AF759F85
:100A700013227432A28440032084F750033084F29E
:100A8000D5E0F3922722E55C700122F8C39406506A
:100A90000FC2AF120494120423120375D2AF8078F0
:100AA000C3E55D94064077B80704C221806AB808A0
:100AB00004D2218063B80904C222805CB80A04D23F
:100AC000228055B80D0A75650075660ED2248048DF
:100AD000B80E0A7565FF75660EC224803BB8140A0D
:100AE0007988E714A2E09221802EB8150B7988E767
:100AF00014A2E0B392218020B80C1DE4A22192E060
:100B0000A22292E1047988F77555A57556F1B19442
:100B1000755500755600D2AF755C00755D0022C03A
:100B2000D075D010BE0039E566702EC2AFE54285A3
:100B30004327D2AFA23813F9A2391329FAE52703C4
:100B4000C2E7F903C2E739FBE527232354FCFCC3C2
:100B5000EA9CF526EB9400F5270E201803D0D0224E
:100B6000BE0124E5667010E527705DE526701175FD
:100B7000270F7526FF80098565268566277566001F
:100B80000E201803D0D022BE0215E526C4652665C6
:100B900027F478D0A65E91450E201803D0D022BE4F
:100BA000030BE52691450E201803D0D022BE040C7D
:100BB000E526C491450E201803D0D022E5279145A3
:100BC000087E00D0D0D2282220E71620E61D20E59E
:100BD0002720E43420E34120E25020E15CE5266157
:100BE00080A23733F52675270F6180A23733A236EE
:100BF00033F52675270D6180A23733A23633A2352F
:100C000033F52675270B6180E52654F0C23C452755
:100C1000C4F5267527096180E526A23813A2391389
:100C2000A23A13F5267527076180E526A23813A29C
:100C30003913F5267527056180E526A23813F526B8
:100C40007527036180540F23900C4C73816C81765F
:100C500081838194819E81AB81B581C981D681EAEE
:100C600081F1A102A10CA123A12DA14108A6600838
:100C7000A65E08A65E2208A65E08A65F08A65E0815
:100C8000A65E2286F0E55FB5F002E560F608A66094
:100C900008A65E2208A65E08A66008A65E2208A630
:100CA0005F08A65E08A65E08A65E2208A65F08A6E4
:100CB0005F08A65E2286F0E55FB5F002E560F60803
:100CC000A65E08A65F08A65E2208A65E08A65E08C5
:100CD000A65F08A65E2286F0E55FB5F002E560F645
:100CE00008A65F08A65E08A65E2208A66008A65FA2
:100CF0002286F0E55FB5F002E560F608A65F08A67B
:100D00005F2208A65E08A65F08A65F2286F0E55F60
:100D1000B5F002E560F608A65E08A65E08A65E08C5
:100D2000A65E2208A65F08A65E08A65F2286F0E5FA
:100D30005FB5F002E560F608A65E08A65E08A65F4D
:100D40002208A65E08A65E08A65E08A65F22901A84
:100D50000D7820B1D4E520B4550AA3B1D4E520B470
:100D6000AA0280127555A57556F1D15BB1947555DF
:100D700000755600801D901A0378807B0AB1D4A3B9
:100D800008DBFA901A0F788C7B1BB1D4A308DBFA2E
:100D9000901A2A22C2AFD117D139B1F4901A007437
:100DA00000B1D9A37413B1D9A374CEB1D9901A03E9
:100DB00078807B0AB1D8A308DBFA901A0F788C7B75
:100DC0001BB1D8A308DBFAD12AD14CD108901A2A3A
:100DD00012037522E493F622E6438F01538FFDFF41
:100DE000C3E583941C400122EF8555B78556B7F0C3
:100DF000538FFE22438F02438F018555B78556B727
:100E0000901A0DF0538FFC22901A0D7455B1D990A1
:100E10001A0E74AAB1D9227A3079D07820901A406B
:100E2000B1D4E520F709A3DAF7227A3079D0901A05
:100E300040E7B1D909A3DAF9227A8C7900782090B9
:100E40001A70B1D4E520F309A3DAF7227A8C79007D
:100E5000901A70E3B1D909A3DAF922788076FF08F5
:100E600076330876010876010876190876FF087649
:100E7000090876600876010876FF08080876FF08FA
:100E800076FF0876FF0876FF0876FF0876FF08767B
:100E9000040876FF0876FF0876FF0876FF0876FFDD
:100EA0000876280876500876040876FF0876020847
:100EB00076FF0876FF0876FF0876070876FF087643
:100EC000FF0876FF08760008760008760222788808
:100ED000E614A2E19222A2E0922178847450965006
:100EE0000276507886740D965002760D863B789C7B
:100EF000E6753AFFB40203753AA0B40303753A826B
:100F000075520078A0E6F9600F78A6B60104745314
:100F1000800274282409D9FCF55278988654788D7B
:100F2000E623F95401F551E954FEF550B6FF037577
:100F300050FF7883E624FF922978C0760008761166
:100F4000087655087677227555007556007597DE38
:100F50007597AD7581B043FF8075EF0675A90012D6
:100F600004947580FF75F1F075A4E07580FF75D469
:100F7000FF75900075F23F75A53F75900075D5FF20
:100F800075A60175A72075F30175CC0175A70075CD
:100F9000E34075E202120494E4F8F6D8FDD15BB1A7
:100FA0004ED1CEC2AF12036F12044A120470120364
:100FB0006FC2AF75550075560012049475A913756C
:100FC000A71075C10075A700780979007A003084F0
:100FD0000CDAFBD9F9D8F7120417021C00302A0EDC
:100FE00012041012037B12037B12037BC22A758842
:100FF00051758E017589AA758C00758D0075C804B0
:1010000075910475D84075D90875F781759E00757E
:10101000960275DA4A75DB00759B80759D0078A68F
:10102000B6010575D11C800375D10C75BCB975BBB3
:101030001075E88075B20112035D120A7275E4C47E
:1010400030270375E44CC213C214C215C228C2244F
:1010500075A82D75E68075B803D2AF758E0C7558DE
:1010600080755710755B50755EF7755FE77560D6D4
:101070007564E17561EB7562CA7563A975300A1212
:10108000036FE530602B7558C0755708755B287580
:101090005EFF755FF77560EF7564E17561FB756202
:1010A000EB7563DA75300A12036FE5306003020FE7
:1010B000B1C0D075D010AF8ED0D0D22A753700C253
:1010C000AF1203B1D2AFC3E532940A40F9C2AF12F6
:1010D00003B7D2AFE4F542F543F55CF55DF533F5C2
:1010E0003CC3E53C945E4033753C000533789AE69A
:1010F0007814146012782814600D786414600878ED
:10110000C8146003753300C3E53398400E15337877
:1011100004C2AF120494120423D2AF202806120B8B
:101120001F1204EB30250CE5317003020FB1120AD7
:101130008680AE12036F2025A8C2AF120494D2AFEE
:10114000E4F522F523F538F53912035D756600C222
:10115000AF7984874F854F4D854F4E854F5375A787
:101160001075C13075A70075A903C3E55833F5584C
:10117000C3E55B33F55BC3E55733F557E55EC56102
:10118000F55EE55FC562F55FE560C563F5607564B2
:101190003CD2AFA2219212302204A2269212D21087
:1011A000D21175340075360C120A20120A49120544
:1011B000B71205BE1205B71205BE1205B7120847D1
:1011C00012092712097C1205BE12083C1204A4124F
:1011D00009271209A51205BE12084712092712098C
:1011E000CE1205BE12083C1209271209F71205BEDD
:1011F000120847120927120A201205BE12083C12D3
:101200000927120A491205BE1204EB3011353010BD
:101210001A854F4DC3E5349418500530259F807EC4
:10122000C210754DFF754EFF7553FF201D15E53635
:1012300014600AF5363025852022828061C211D2E1
:101240001C21BD753700D21B30251320220C79A438
:10125000E76007C3E53294035044E5316040202243
:1012600009C3E54394F0503621BD201D122012051C
:1012700020260580EC2026E9D21D854F4D21E485EE
:101280004F4DC3E5439420400EC21DA2269212D2B8
:1012900011753612854F4D21BD201B020537C2AF97
:1012A000C22412049475220075230075A91375A732
:1012B0001075C10075A700D3E55813F558C3E55B59
:1012C00013F55BC3E55713F557E55EC561F55EE5BC
:1012D0005FC562F55FE560C563F5607564E1D2AF37
:1012E000202519D215C3E5379404500612036F0266
:1012F0001139C2AF12041CD2AF0210B17537007899
:10130000A4E6600CC290D293C291D294C292D295BC
:031310000210D4F4
:1019FD00020F470013CEFF33010119FF096001FFEC
:101A0D0055AAFFFFFFFFFFFF04FFFFFFFFFF285059
:0E1A1D0004FF02FFFFFF07FFFFFF000002FFB4
:101A4000234A5F485F3030232020202020202020A0
:101A500023424C48454C492445464D3842323123B7
:101A6000426C75656A61792020202020202020208A
:101A7000023A042034420D00452D0D0034420D0081
:0B1A80004E27D300452DD0193419006B
:101C0000C2AFC2D37597DE7597AD7581C075A90057
:101C100043FF80752438752503B1DB7529A5752A26
:101C2000F143F11053A4EFD28475D4FF75E3407DE6
:101C3000FA780379E67C10752200752300901DE880
:101C40007B0675249875250130840281482084081C
:101C5000D8FBD9F9DCF781BA308408D8FBD9F9DC94
:101C6000F781BAB19BE493A3C39A6004DDC381BA40
:101C7000DBDBB18D600281317B08E493FAA3B16EA6
:101C8000DBF87A30B16E752200752300B18DEAFC65
:101C9000EBFDC3ED94FE400EB18D8A278B28ED300D
:101CA000E0048A828B83B18D7AC270D8C3ED94FE32
:101CB000601950CEBD0029EC600F7520007521FF22
:101CC000752900752A000200008100A827A92808AC
:101CD00009D804D90281DDB191EAF281D10D81A642
:101CE000C3ED94035051EDA2E092007AC5C3E582A2
:101CF0009400E583941C508C200010438F02438F86
:101D0000018529B7852AB7F0300027A827A9280818
:101D100009438F01538FFDD804D902A132C3E58353
:101D2000941C4003A3A117E28529B7852AB7F0A325
:101D3000A117538FFC81827AC1BD030CE493A3FAEF
:101D4000B152DCF8B14A81828184AA22AB23B16E00
:101D5000EBFAEA6222752608C3E52313F523E52290
:101D600013F52250066323A0632201D526EAB1DBD6
:101D7000B1DB75260AEAF4200102D284300102C2E6
:101D800084B1DBC3134002C201D526EB22B191EA34
:101D9000FB208402A191308402A196752608AE240E
:101DA000AF25C3EF13FFEE13FEB1DFB1DBC3EA13C0
:101DB0003084024480FA30E703632201C3E5231331
:101DC000F523E52213F52250066323A0632201D5F3
:101DD00026D9E52265236523F52222AE24AF250E00
:101DE0000FDEFEDFFCD20122424C48656C693437BD
:061DF0003164E8B20601B7
:00000001FF
