:060000000219FD02035489
:03000B0002008070
:030013000203677E
:03001B000200B030
:03002B00020322AB
:03005B0002037627
:0300730002034144
:10008000C0D075D01018B8CF0408208407B2848679
:100090008AD0D03253A4EFD284C2A98F8E7589AA98
:1000A000C289C28B758A00D2A8D2AAC228D0D03207
:1000B000C2A8C28E85588BC0D075D008C0E0C0F0F1
:1000C000C2CAA9CCAACDD2CAC3E99559F9EA955AB0
:1000D0007049C3E9955B4043955B503FB8103C784D
:1000E00000A9577D00E2FEC39DC399402E99EC33D1
:1000F000FC08E2FDC39EC399402199EC33FC08E261
:10010000FEC39DC399401499EC33FC08E2FDC39EE5
:10011000C399400799EC33FC088002806AE2FEC371
:100120009DC399406299EB33FB08E2FDC39EC399DE
:10013000405599EB33FB08E2FEC39DC399404899B3
:10014000EB33FB08E2FDC39EC399403B99EB33FBC5
:1001500008E2FEC39DC399402E99EB33FB08E2FDF4
:10016000C39EC399402199EB33FB08E2FEC39DC3B4
:1001700099401499EB33FB08E2FDC39EC3994007F5
:1001800099EB33FB08801E0530E53070021530C353
:10019000E5309432400AD225755C00755D0061122D
:1001A00075310A6112E2FEC39DC39940DA99EA33C0
:1001B000FA08E2FDC39EC39940CD99EA33FA08E2FA
:1001C000FEC39DC39940C099EA33FA08E2FDC39E7D
:1001D000C39940B399EA33FA08EBC46B6C6A3027D1
:1001E00001F4540F70A1C3EBF4FA9460FBECF454E7
:1001F0000F9400FC5018EA7C007B00600CC3135085
:1002000007B55C05055D8006E4F55C755D00302290
:100210001BC3EB94D0F5F0EC94074003ABF0FC303B
:100220002101B39226C3EB33FBEC33FCEB54F04CCF
:10023000C475F00584FAEC13FCEB132AFBEC3400D4
:10024000FC30E3047BFF7C07201C27301124EC707A
:100250000C798187F0C3EB95F05002ABF0E5376085
:100260001175F028A42BFBEC3400FC30E3047BFF79
:100270007C07EB54F84CC423F97007EB7004D225CB
:100280008005753200C225E53060021530C3E54DAA
:10029000FD954E4002AD4EC3ED995008ED75F00846
:1002A000A4FBACF0C3EC13F45403FAEB13F4F930F1
:1002B000291CEBF4540124C0F8E623F630E00FE9E2
:1002C0002401F97009EA3400FA30E2021A19C3E98C
:1002D0009478FBEA9400FC5005E4FBFC800DC3EB32
:1002E0009550EC95514004AB50AC5189FB8AFC8B86
:1002F000E98CEA75310A302719302816758E017598
:1003000089A2D28443A410780085648AC28DD2A9C0
:1003100080097800758A00D2A8D2AAD0F0D0E0D0A7
:10032000D032C0E0C2CF053CD223E5317004D225E3
:1003300080021531302507E5320460020532D0E035
:1003400032C2AF53E67F53917F7592FA7593FFC225
:1003500018D2AF32C0E0E58A85588BC0D075D0087E
:10036000F208D0D0D0E032C2AAD28EC2CA85CC590F
:1003700085CD5AD2CA32327A007901801E7A00794C
:100380000580187A00790A80127A007964800C7AE4
:100390000079C880067A0079FA8000090A80097815
:1003A0001874FFD5E0FDD8F9D9F5DAF3227A427B4B
:1003B0003580247A2D7B4D801E7A267B5C80187ACE
:1003C000197B8C80127A147BAF800C7A427B1E8062
:1003D000067A2D7B2C8000E5547001227902E4C25C
:1003E00094D5E0FDD291D5E0FDC291D5E0FDD29447
:1003F000D5E0FDE920E002D29030E002D292E5544F
:10040000D5E0FDE920E002C29030E002C29274968D
:10041000D5E0FDD9C9EA78C8D8FED5E0F9DBBDC280
:10042000942271AD71B371B92271D171AD2271B9DC
:1004300071B371AD2279998754B8010471AD8017F9
:10044000B8020471B38010B8030471B98009B8040C
:100450000471BF800271C57998875422901A70E4A4
:1004600093F4601D7C3E901A74E493A3FB6012E445
:1004700093FA600471D78006EBF97A00719BA3DCD4
:10048000E82278A5E6F95403C2857002D285E954C2
:100490000CC2867002D286E95430C2877002D287BD
:1004A000E954C0700022C290C291C292C293C29419
:1004B000C29575D5FF22201E2E78FF201026E53B21
:1004C0006022E543601E74FF301102747F8543F0A3
:1004D00084853BF0A4F8C5F0600278FFC3E8954F2F
:1004E0005002A84F884E22C3E54294A0E5439400F1
:1004F000E54E5003148001046002F54E22102301E2
:10050000220567E56720E037E55260267553FFE571
:10051000BE601FE5BDC3955240187553C894044092
:10052000117553969404400A7553649404400375FE
:100530005332202402A1C885386575660CA1C8E530
:1005400052600FC3E54D955360084004154D80027D
:10055000054D302470E5675407B40127C3E539948D
:10056000785003E4800475F00984A21392E7A21482
:1005700092E6A21592E5C213C214C215F56575661E
:100580000E8042B403087565887566088037B40527
:10059000087565AA75660A802CB4072978A6B60185
:1005A0000DE5BE7003E48018E5BD94148012E5BE2D
:1005B000700AE5BDC394EB5007E48004E5BD241444
:1005C000F56575660275E890227542007543F02264
:1005D000C2AFC2CAA8CCA9CDAA3C30CF010AD2CAA8
:1005E000D2AFC3EA13FAE913F9E813F8201014C3E1
:1005F000E8953D883DF8E9953E893E547FF9301EE7
:1006000036C1EAAB3DAC3EAD3F883D893E8A3FC333
:10061000E89BE99CEA9D547F60087542FF7543FFA3
:10062000C1B9AE40AF418B408C41C3E89EF8E99F11
:10063000F9AA42AB438011AA42AB43C3EB940440F6
:100640004894044013201126C3EB13FDEA13FCC3A6
:10065000ED13FDEC13FC804AEBC423FCEAC42354E5
:100660001F4CFC7D00C3E913F9E813F88034EBC498
:1006700023FC541FFDEC54E0FCEAC423541F4CFC43
:10068000C3E913F9E813F88019EBC4FCEAC4540F6A
:100690004CFC7D00C3E913F9E813F8C3E913F9E84A
:1006A00013F8C3EA9CFAEB9DFBEA28F542EB39F517
:1006B0004350067542FF7543FFC3E5439402500261
:1006C000D21EE543C4FA540FFBEA54F0FAE542C4E3
:1006D000540F4AFAC3EA9402FAEB9400FB40057007
:1006E00048EA70457A017B00803FAA42AB43EBC4E5
:1006F000FCEAC4540F4CFCC3EA9CFAEB9400FBE800
:100700000303543F2AFAEB3400FB8A428B43C39421
:10071000024002C21EEBC4FE7B00EAC4540F4EC36B
:100720009402FA400270027A01202806301808125A
:100730000B0030180280FB854992854A93D21843FA
:10074000E6807892E6FFC3E49AF8E49BF9C3E833C5
:10075000F8E933F9201E7F3010047F038015C3E5CC
:10076000389482400E0F941E40010FC3EF94064050
:10077000027F05E8FAE9FBD3E913FDE813FC8C4797
:100780008D488849894AC3EF9403602BEF20E00C21
:10079000E82CF8E93DF9ECFAEDFB800BE8D338F8EA
:1007A000E939F97AFF7BFFC3EF9403400A8A4B8B48
:1007B0004C884589468050884B894C8A458B463009
:1007C0001045754BF0754CFF7547F07548FF75493E
:1007D000F0754AFF8031E8FAD313FC8C478849C38F
:1007E000EF9403601EEF20E007E82CF8ECFA800796
:1007F000E8282401F87AFFC3EF940340068A4B8867
:10080000458004884B8A4520280530180771003040
:10081000180280FB753502D21843E68030112DA8EE
:1008200042A943C3E913F9E813F8301004E924405E
:10083000F9C2AF53E67F759100C3E498F594E4994B
:10084000F595759104D21843E680D2AF2275F00079
:10085000301D0E75F040800975F040301D0375F0B5
:1008600000D2197544007A027B02201E1D3011024D
:10087000C2193010067A367B36800F7B28E543702C
:100880000104FAC3942840027A28201810E5446035
:100890000C301003D53504D21A806611170544E5D3
:1008A0009B5440B5F00DE53460BC2019B9DADBC2C9
:1008B0001A804E20100B2019110AC3EA9B40CB80EE
:1008C000A50AC3EA9B40011A80C0C21953E67F758E
:1008D0009100301E117594007595F0759104D21831
:1008E00043E680020866E5437EFFC3334009C33315
:1008F0004005C3334001FEC3E49E759400F5958026
:10090000DAC2AF53E67F854592854693759100859F
:100910004B94854C95759104D21843E680D2AF2054
:100920001013301A1220110F201D0C2019091581E7
:100930001581021275053422E53875F007A43019C7
:100940000405F0D213A2F013A2F113A2F213F538AA
:10095000C394785003753878C3E5389539400385DA
:100960003839C3E538953A400BD214C290C291C2CF
:100970009275D5FF202805301807710030180280C5
:10098000FB854792854893D21843E6802220120FB8
:10099000C2AFC294D29375D5DBD2AF759F2322C26A
:1009A000AFC294D29575D5F6D2AF759F232220128F
:1009B0000FC2AFC29275D5EDD293D2AF759F1322FD
:1009C000C2AFC29075D5EDD295D2AF759F032220EC
:1009D000120FC2AFC293D29575D5EDD2AF759F03FA
:1009E00022C2AFC295D29375D5EDD2AF759F1322B7
:1009F00020120FC2AFC29175D5F6D295D2AF759FB6
:100A00002322C2AFC29175D5DBD293D2AF759F239B
:100A10002220120FC2AFC295D29475D5F6D2AF750F
:100A20009F1322C2AFC293D29475D5DBD2AF759F0C
:100A3000032220120FC2AFC29075D5DBD294D2AF81
:100A4000759F0322C2AFC29275D5F6D294D2AF750C
:100A50009F13227432A28440032084F75003308411
:100A6000F2D5E0F3922722E55C700122F8C39406E8
:100A7000500FC2AF1204A612043512038FD2AF80FA
:100A800078C3E55D94064077B80704C221806AB850
:100A90000804D2218063B80904C222805CB80A0429
:100AA000D2228055B80D0A75650075660ED2248075
:100AB00048B80E0A7565FF75660EC224803BB814EF
:100AC0000A7988E714A2E09221802EB8150B798864
:100AD000E714A2E0B392218020B80C1DE4A2219279
:100AE000E0A22292E1047988F77555A57556F1B117
:100AF00075755500755600D2AF755C00755D0022A6
:100B0000C0D075D010BE0039E566702EC2AFE54288
:100B1000854327D2AFA23813F9A2391329FAE52762
:100B200003C2E7F903C2E739FBE527232354FCFCA2
:100B3000C3EA9CF526EB9400F5270E201803D0D0CD
:100B400022BE0124E5667010E527705DE526701170
:100B500075270F7526FF80098565268566277566CA
:100B6000000E201803D0D022BE0215E526C465264B
:100B70006527F478D0A65E91260E201803D0D022E7
:100B8000BE030BE52691260E201803D0D022BE040A
:100B90000CE526C491260E201803D0D022E527911B
:100BA00026087E00D0D0D2282220E71620E61D207D
:100BB000E52720E43420E34120E25020E15CE526F3
:100BC0006161A23733F52675270F6161A23733A221
:100BD0003633F52675270D6161A23733A23633A26D
:100BE0003533F52675270B6161E52654F0C23C4587
:100BF00027C4F5267527096161E526A23813A239B5
:100C000013A23A13F5267527076161E526A238136A
:100C1000A23913F5267527056161E526A23813F57B
:100C2000267527036161540F23900C2D73814D812C
:100C30005781648175817F818C819681AA81B7817A
:100C4000CB81D281E381EDA104A10EA12208A6608F
:100C500008A65E08A65E2208A65E08A65F08A65E35
:100C600008A65E2286F0E55FB5F002E560F608A60C
:100C70006008A65E2208A65E08A66008A65E220896
:100C8000A65F08A65E08A65E08A65E2208A65F0804
:100C9000A65F08A65E2286F0E55FB5F002E560F685
:100CA00008A65E08A65F08A65E2208A65E08A65EE5
:100CB00008A65F08A65E2286F0E55FB5F002E56053
:100CC000F608A65F08A65E08A65E2208A66008A62B
:100CD0005F2286F0E55FB5F002E560F608A65F08E2
:100CE000A65F2208A65E08A65F08A65F2286F0E53A
:100CF0005FB5F002E560F608A65E08A65E08A65E8F
:100D000008A65E2208A65F08A65E08A65F2286F0F7
:100D1000E55FB5F002E560F608A65E08A65E08A6E7
:100D20005F2208A65E08A65E08A65E08A65F22905F
:100D30001A0D7820B1B5E520B4550AA3B1B5E52068
:100D4000B4AA0280127555A57556F1D13CB17575DE
:100D50005500755600801D901A0378807B0AB1B546
:100D6000A308DBFA901A0F788C7B1BB1B5A308DBC4
:100D7000FA901A2A22C2AFB1F8D11AB1D5901A004E
:100D80007400B1BAA37413B1BAA374CEB1BA901AF5
:100D90000378807B0AB1B9A308DBFA901A0F788C2C
:100DA0007B1BB1B9A308DBFAD10BD12DB1E9901AA5
:100DB0002A12038F22E493F622E6438F01538FFD1C
:100DC000FFC3E583941C400122EF8555B78556B7D4
:100DD000F0538FFE22438F02438F018555B785560E
:100DE000B7901A0DF0538FFC22901A0D7455B1BABA
:100DF000901A0E74AAB1BA227A3079D07820901A5B
:100E000040B1B5E520F709A3DAF7227A3079D0901E
:100E10001A40E7B1BA09A3DAF9227A8C790078206E
:100E2000901A70B1B5E520F309A3DAF7227A8C792C
:100E300000901A70E3B1BA09A3DAF922788076FF3C
:100E40000876330876010876010876190876FF08D7
:100E500076090876180876010876FF08080876FFF4
:100E60000876FF0876FF0876FF0876FF0876FF0809
:100E700076040876FF0876FF0876FF0876FF087686
:100E8000FF0876280876500876040876FF08760270
:100E90000876FF0876FF0876FF0876070876FF08D1
:100EA00076FF0876FF08760008760008760222783A
:100EB00088E614A2E19222A2E092217884745096EE
:100EC000500276507886740D965002760D863B78E7
:100ED0009CE6753AFFB40203753AA0B40303753A71
:100EE0008275520078A0E6F9600F78A6B601047406
:100EF00053800274282409D9FCF5527898865478D6
:100F00008DE62323F95403F551E954FCF550B6FF5F
:100F1000037550FF7883E624FF922978C076000895
:100F20007655227555007556007597DE7597AD7527
:100F300081B043FF8075EF0675A9001204A6758085
:100F4000FF75F1F075A4E07580FF75D4FF75900012
:100F500075F23F75A53F75900075D5FF75A60175B3
:100F6000A72075F30175CC0175A70075E34075E204
:100F7000021204A6E4F8F6D8FDD13CB12FD1AFC2DD
:100F8000AF12038912045C120482120389C2AF7586
:100F900055007556001204A675A91375A71075C1E2
:100FA0000075A700780979007A0030840CDAFBD943
:100FB000F9D8F7120429021C00302A0E120422125A
:100FC0000395120395120395C22A758851758E01F7
:100FD0007589AA758C00758D0075C80475910475A6
:100FE000D84075D90875F782759E0775960275DA2F
:100FF0004275DB42759B80759D0078A6B60105752C
:10100000D11C800375D10C75BCB975BB1075E88017
:1010100075B201120377120A5375E4C430270375C1
:10102000E44CC213C214C215C228C22475A82D757F
:10103000E68075B803D2AF758E0C75588075571061
:10104000755B50755EF7755FE77560D67564E17521
:1010500061EB7562CA7563A975300A120389E530C0
:10106000602B7558C0755708755B28755EFF755FF6
:10107000F77560EF7564E17561FB7562EB7563DAB6
:1010800075300A120389E5306003020F8DC0D075F8
:10109000D010AF8ED0D0D22A753700C2AF1203CB9A
:1010A000D2AFC3E532940A40F9C2AF1203D1D2AF36
:1010B000E4F542F543F55CF55DF533F53CC3E53CFD
:1010C000945E4033753C000533789AE678141460DA
:1010D00012782814600D786414600878C8146003CE
:1010E000753300C3E53398400E15337804C2AF1250
:1010F00004A6120435D2AF202806120B001204FDFC
:1011000030250CE5317003020F8D120A6780AE1294
:1011100003892025A8C2AF1204A6D2AFE4F522F5B8
:1011200023F538F539120377756600C2AF798487E5
:101130004F854F4D854F4E854F5375A71075C13064
:1011400075A70075A903C3E55833F558C3E55B33AC
:10115000F55BC3E55733F557E55EC561F55EE55FC1
:10116000C562F55FE560C563F56075643CD2AFA20A
:10117000219212302204A2269212D210D21175347A
:101180000075360C120A11120A321205C91205D066
:101190001205C91205D01205C912085812093812D1
:1011A000098D1205D012084D1204B6120938120921
:1011B000AE1205D01208581209381209CF1205D004
:1011C00012084D1209381209F01205D012085812EF
:1011D0000938120A111205D012084D120938120AE4
:1011E000321205D01204FD30113530101A854F4DE2
:1011F000C3E5349418500530259F807EC210754D8C
:10120000FF754EFF7553FF201D15E53614600AF576
:10121000363025852022828061C211D21C21997529
:101220003700D21B30251320220C79A4E76007C3B6
:10123000E53294035044E5316040202209C3E54380
:1012400094F050362199201D122012052026058089
:10125000EC2026E9D21D854F4D21C0854F4DC3E5B9
:10126000439420400EC21DA2269212D2117536124E
:10127000854F4D2199201B020537C2AFC2241204AD
:10128000A675220075230075A91375A71075C100F6
:1012900075A700D3E55813F558C3E55B13F55BC399
:1012A000E55713F557E55EC561F55EE55FC562F587
:1012B0005FE560C563F5607564E1D2AF202519D2A2
:1012C00015C3E53794045006120389021115C2AF05
:1012D00012042ED2AF02108D75370078A4E6600696
:0912E000D293D294D2950210B011
:1019FD00020F230013CEFF33010119FF091801FF58
:101A0D0055AAFFFFFFFFFFFF04FFFFFFFFFF285059
:0E1A1D0004FF02FFFFFF07FFFFFF000002FFB4
:101A4000234A5F485F31323023202020202020208D
:101A500023424C48454C492445464D3842323123B7
:101A6000426C75656A61792020202020202020208A
:101A7000023A042034420D00452D0D0034420D0081
:0B1A80004E27D300452DD0193419006B
:101C0000C2AFC2D37597DE7597AD7581C075A90057
:101C100043FF80752438752503B1DB7529A5752A26
:101C2000F143F11053A4EFD28475D4FF75E3407DE6
:101C3000FA780379E67C10752200752300901DE880
:101C40007B0675249875250130840281482084081C
:101C5000D8FBD9F9DCF781BA308408D8FBD9F9DC94
:101C6000F781BAB19BE493A3C39A6004DDC381BA40
:101C7000DBDBB18D600281317B08E493FAA3B16EA6
:101C8000DBF87A30B16E752200752300B18DEAFC65
:101C9000EBFDC3ED94FE400EB18D8A278B28ED300D
:101CA000E0048A828B83B18D7AC270D8C3ED94FE32
:101CB000601950CEBD0029EC600F7520007521FF22
:101CC000752900752A000200008100A827A92808AC
:101CD00009D804D90281DDB191EAF281D10D81A642
:101CE000C3ED94035051EDA2E092007AC5C3E582A2
:101CF0009400E583941C508C200010438F02438F86
:101D0000018529B7852AB7F0300027A827A9280818
:101D100009438F01538FFDD804D902A132C3E58353
:101D2000941C4003A3A117E28529B7852AB7F0A325
:101D3000A117538FFC81827AC1BD030CE493A3FAEF
:101D4000B152DCF8B14A81828184AA22AB23B16E00
:101D5000EBFAEA6222752608C3E52313F523E52290
:101D600013F52250066323A0632201D526EAB1DBD6
:101D7000B1DB75260AEAF4200102D284300102C2E6
:101D800084B1DBC3134002C201D526EB22B191EA34
:101D9000FB208402A191308402A196752608AE240E
:101DA000AF25C3EF13FFEE13FEB1DFB1DBC3EA13C0
:101DB0003084024480FA30E703632201C3E5231331
:101DC000F523E52213F52250066323A0632201D5F3
:101DD00026D9E52265236523F52222AE24AF250E00
:101DE0000FDEFEDFFCD20122424C48656C693437BD
:061DF0003164E8B20601B7
:00000001FF
