:060000000219FD02033AA3
:03000B0002008070
:0300130002034D98
:03001B000200B030
:03002B00020308C5
:03005B0002035C41
:030073000203275E
:10008000C0D075D01018B8CF0408208307B283867B
:100090008AD0D03253A4F7D283C2A98F8E7589AA91
:1000A000C289C28B758A00D2A8D2AAC228D0D03207
:1000B000C2A8C28E85588BC0D075D008C0E0C0F0F1
:1000C000C2CAA9CCAACDD2CAC3E99559F9EA955AB0
:1000D0007049C3E9955B4043955B503FB8103C784D
:1000E00000A9577D00E2FEC39DC399402E99EC33D1
:1000F000FC08E2FDC39EC399402199EC33FC08E261
:10010000FEC39DC399401499EC33FC08E2FDC39EE5
:10011000C399400799EC33FC088002806AE2FEC371
:100120009DC399406299EB33FB08E2FDC39EC399DE
:10013000405599EB33FB08E2FEC39DC399404899B3
:10014000EB33FB08E2FDC39EC399403B99EB33FBC5
:1001500008E2FEC39DC399402E99EB33FB08E2FDF4
:10016000C39EC399402199EB33FB08E2FEC39DC3B4
:1001700099401499EB33FB08E2FDC39EC3994007F5
:1001800099EB33FB08801E0530E53070021530C353
:10019000E5309432400AD225755C00755D0041F867
:1001A00075310A41F8E2FEC39DC39940DA99EA33FA
:1001B000FA08E2FDC39EC39940CD99EA33FA08E2FA
:1001C000FEC39DC39940C099EA33FA08E2FDC39E7D
:1001D000C39940B399EA33FA08EBC46B6C6A3027D1
:1001E00001F4540F70A1C3EBF4FA9460FBECF454E7
:1001F0000F9400FC5018EA7C007B00600CC3135085
:1002000007B55C05055D8006E4F55C755D00302290
:100210001BC3EB94D0F5F0EC94074003ABF0FC303B
:100220002101B39226C3EB33FBEC33FCEB54F04CCF
:10023000C475F00584FAEC13FCEB132AFBEC3400D4
:10024000FC30E3047BFF7C07201C27301124EC707A
:100250000C798187F0C3EB95F05002ABF0E5376085
:100260001175F028A42BFBEC3400FC30E3047BFF79
:100270007C07EB54F84CC423F97007EB7004D225CB
:100280008005753200C225E53060021530C3E54DAA
:10029000FD954E4002AD4EC3ED995008ED75F00846
:1002A000A4FBACF08CF0EBA2F013A2F113F4F9EC88
:1002B0000303F45401FA30291CEBF4540324C0F86E
:1002C000E623F630E00FE92401F97009EA3400FA78
:1002D00030E1021A1989FB8AFC75310A302719307E
:1002E0002816758E017589A2D28343A408780085EB
:1002F000648AC28DD2A980097800758A00D2A8D2FA
:10030000AAD0F0D0E0D0D032C0E0C2CF053CD2239A
:10031000E5317004D22580021531302507E532041D
:1003200060020532D0E032C2AF53E67F53917F7551
:1003300092FA7593FFC218D2AF32C0E0E58A8558B1
:100340008BC0D075D008F208D0D0D0E032C2AAD28B
:100350008EC2CA85CC5985CD5AD2CA32327A00793A
:1003600001801E7A00790580187A00790A80127A55
:10037000007964800C7A0079C880067A0079FA8066
:1003800000090A8009781874FFD5E0FDD8F9D9F57D
:10039000DAF3227A427B3580247A2D7B4D801E7AD7
:1003A000267B5C80187A197B8C80127A147BAF8054
:1003B0000C7A427B1E80067A2D7B2C8000E55470DF
:1003C00001227902E4C295D5E0FDD292D295D5E022
:1003D000FDC295D5E0FDC292D295D5E0FDE920E0C1
:1003E00004D291D29430E004D293D296E554D5E071
:1003F000FDE920E002C29430E002C2967496D5E096
:10040000FDD9C1EA78C8D8FED5E0F9DBB5C295229E
:1004100071937199719F2271B7719322719F719934
:1004200071932279998754B8010471938017B802A7
:100430000471998010B80304719F8009B804047195
:10044000A5800271AB7998875422901A70E493F4D6
:10045000601D7C3E901A74E493A3FB6012E493FA4F
:10046000600471BD8006EBF97A007181A3DCE8229B
:1004700078A5E6F95403D2827002C282E9540C7066
:1004800000E954307000E954C0700022C294C29553
:10049000C296C294C295C29675D5FF22201E2E78B0
:1004A000FF201026E53B6022E543601E74FF3011FB
:1004B00002747F8543F084853BF0A4F8C5F06002A8
:1004C00078FFC3E8954F5002A84F884E22C3E542FB
:1004D00094A0E5439400E54E5003148001046002AB
:1004E000F54E22102301220567E56720E037E5522B
:1004F00060267553FFE5BE601FE5BDC395524018E9
:100500007553C8940440117553969404400A75536A
:100510006494044003755332202402A1AE853865EB
:1005200075660CA1AEE552600FC3E54D95536008AA
:100530004004154D8002054D302470E5675407B422
:100540000127C3E53994785003E4800475F00984E9
:10055000A21392E7A21492E6A21592E5C213C21466
:10056000C215F56575660E8042B403087565887519
:1005700066088037B405087565AA75660A802CB4CC
:10058000072978A6B6010DE5BE7003E48018E5BD25
:1005900094148012E5BE700AE5BDC394EB5007E4E5
:1005A0008004E5BD2414F56575660275E890227532
:1005B00042007543F022C2AFC2CAA8CCA9CDAA3C62
:1005C00030CF010AD2CAD2AFC3EA13FAE913F9E86D
:1005D00013F8201014C3E8953D883DF8E9953E894D
:1005E0003E547FF9301E36C1D0AB3DAC3EAD3F88A6
:1005F0003D893E8A3FC3E89BE99CEA9D547F6008A1
:100600007542FF7543FFC19FAE40AF418B408C41A7
:10061000C3E89EF8E99FF9AA42AB438011AA42AB16
:1006200043C3EB9404404894044013201126C3EBC9
:1006300013FDEA13FCC3ED13FDEC13FC804AEBC47D
:1006400023FCEAC423541F4CFC7D00C3E913F9E8E2
:1006500013F88034EBC423FC541FFDEC54E0FCEA97
:10066000C423541F4CFCC3E913F9E813F88019EBB9
:10067000C4FCEAC4540F4CFC7D00C3E913F9E81331
:10068000F8C3E913F9E813F8C3EA9CFAEB9DFBEA17
:1006900028F542EB39F54350067542FF7543FFC319
:1006A000E54394025002D21EE543C4FA540FFBEA1C
:1006B00054F0FAE542C4540F4AFAC3EA9402FAEB42
:1006C0009400FB40057048EA70457A017B00803F4A
:1006D000AA42AB43EBC4FCEAC4540F4CFCC3EA9CF3
:1006E000FAEB9400FBE80303543F2AFAEB3400FBD7
:1006F0008A428B43C394024002C21EEBC4FE7B00BD
:10070000EAC4540F4EC39402FA400270027A0120E8
:100710002806301808120B1830180280FB85499201
:10072000854A93D21843E6807892E6FFC3E49AF8AC
:10073000E49BF9C3E833F8E933F9201E7F30100455
:100740007F038015C3E5389482400E0F941E40014C
:100750000FC3EF940640027F05E8FAE9FBD3E913E3
:10076000FDE813FC8C478D488849894AC3EF940300
:10077000602BEF20E00CE82CF8E93DF9ECFAEDFBFA
:10078000800BE8D338F8E939F97AFF7BFFC3EF949F
:1007900003400A8A4B8B4C884589468050884B8998
:1007A0004C8A458B46301045754BF0754CFF7547AC
:1007B000F07548FF7549F0754AFF8031E8FAD313A8
:1007C000FC8C478849C3EF9403601EEF20E007E8E4
:1007D0002CF8ECFA8007E8282401F87AFFC3EF949C
:1007E0000340068A4B88458004884B8A45202806AA
:1007F000301808120B1830180280FB753502D21819
:1008000043E68030112DA842A943C3E913F9E81348
:10081000F8301004E92440F9C2AF53E67F75910027
:10082000C3E498F594E499F595759104D21843E6DC
:1008300080D2AF2275F000301D0E75F04080097532
:10084000F040301D0375F000D2197544007A027B28
:1008500002201E1D301102C2193010067A367B3676
:10086000800F7B28E543700104FAC3942840027A84
:1008700028201811E544600D301003D53504D21A34
:1008800080671207FE0544E59B5440B5F00DE53442
:1008900060BB2019B8DADAC21A804E20100B20197A
:1008A000110AC3EA9B40CA80A40AC3EA9B40011A0A
:1008B00080BFC21953E67F759100301E11759400F8
:1008C0007595F0759104D21843E68002084DE54312
:1008D0007EFFC3334009C3334005C3334001FEC329
:1008E000E49E759400F59580DAC2AF53E67F8545A6
:1008F00092854693759100854B94854C957591042E
:10090000D21843E680D2AF201013301A1220110FF4
:10091000201D0C201909158115810212920534221F
:10092000E53875F007A430190405F0D213A2F013CE
:10093000A2F113A2F213F538C394785003753878F6
:10094000C3E53895394003853839C3E538953A40D1
:100950000BD214C294C295C29675D5FF20280530DB
:100960001807711830180280FB854792854893D28A
:100970001843E68022201213C2AFC295C291D294CE
:10098000D29675D5F7D2AF759F4522C2AFC295C238
:1009900093D296D29475D5FDD2AF759F4522201281
:1009A00013C2AFC296D29575D5FBC291D294D2AF85
:1009B000759F6522C2AFC294D29575D5FBC293D202
:1009C00096D2AF759F7522201213C2AFC294C29304
:1009D000D296D29575D5FBD2AF759F7522C2AFC2A4
:1009E00096C291D294D29575D5FBD2AF759F6522F0
:1009F000201213C2AFC295D29475D5FDC293D29680
:100A0000D2AF759F4522C2AFC295D29675D5F7C2B7
:100A100091D294D2AF759F4522201213C2AFC296D5
:100A2000C292D295D29475D5FDD2AF759F6522C280
:100A3000AFC294C292D295D29675D5F7D2AF759FB8
:100A40007522201213C2AFC294D29675D5F7C29206
:100A5000D295D2AF759F7522C2AFC296D29475D58A
:100A6000FDC292D295D2AF759F65227432A28340A7
:100A7000032083F750033083F2D5E0F3922722E579
:100A80005C700122F8C39406500FC2AF12048C129E
:100A90000423120375D2AF8078C3E55D94064077D6
:100AA000B80704C221806AB80804D2218063B8095B
:100AB00004C222805CB80A04D2228055B80D0A759F
:100AC000650075660ED2248048B80E0A7565FF75FC
:100AD000660EC224803BB8140A7988E714A2E0921B
:100AE00021802EB8150B7988E714A2E0B3922180FB
:100AF00020B80C1DE4A22192E0A22292E1047988A0
:100B0000F77555A57556F1B18D755500755600D21E
:100B1000AF755C00755D0022C0D075D010BE003985
:100B2000E566702EC2AFE542854327D2AFA23813E7
:100B3000F9A2391329FAE52703C2E7F903C2E73915
:100B4000FBE527232354FCFCC3EA9CF526EB940029
:100B5000F5270E201803D0D022BE0124E5667010C0
:100B6000E527705DE526701175270F7526FF800952
:100B70008565268566277566000E201803D0D0226D
:100B8000BE0215E526C465266527F478D0A65E91D9
:100B90003E0E201803D0D022BE030BE526913E0E58
:100BA000201803D0D022BE040CE526C4913E0E20AE
:100BB0001803D0D022E527913E087E00D0D0D2285D
:100BC0002220E71620E61D20E52720E43420E3411B
:100BD00020E25020E15CE5266179A23733F52675E5
:100BE000270F6179A23733A23633F52675270D61B9
:100BF00079A23733A23633A23533F52675270B6138
:100C000079E52654F0C23C4527C4F52675270961CD
:100C100079E526A23813A23913A23A13F5267527CF
:100C2000076179E526A23813A23913F52675270541
:100C30006179E526A23813F5267527036179540FEB
:100C400023900C45738165816F817C818D819781B3
:100C5000A481AE81C281CF81E381EA81FBA105A19C
:100C60001CA126A13A08A66008A65E08A65E220876
:100C7000A65E08A65F08A65E08A65E2286F0E55F6F
:100C8000B5F002E560F608A66008A65E2208A65E3A
:100C900008A66008A65E2208A65F08A65E08A65EF3
:100CA00008A65E2208A65F08A65F08A65E2286F058
:100CB000E55FB5F002E560F608A65E08A65F08A647
:100CC0005E2208A65E08A65E08A65F08A65E2286CB
:100CD000F0E55FB5F002E560F608A65F08A65E08DD
:100CE000A65E2208A66008A65F2286F0E55FB5F042
:100CF00002E560F608A65F08A65F2208A65E08A6C1
:100D00005F08A65F2286F0E55FB5F002E560F608B1
:100D1000A65E08A65E08A65E08A65E2208A65F0874
:100D2000A65E08A65F2286F0E55FB5F002E560F6F4
:100D300008A65E08A65E08A65F2208A65E08A65E54
:100D400008A65E08A65F22901A0D7820B1CDE52096
:100D5000B4550AA3B1CDE520B4AA0280127555A5F9
:100D60007556F1D154B18D755500755600801D90A2
:100D70001A0378807B0AB1CDA308DBFA901A0F78AA
:100D80008C7B1BB1CDA308DBFA901A2A22C2AFD10B
:100D900010D132B1ED901A007400B1D2A37413B126
:100DA000D2A374CEB1D2901A0378807B0AB1D1A3BA
:100DB00008DBFA901A0F788C7B1BB1D1A308DBFA01
:100DC000D123D145D101901A2A12037522E493F65A
:100DD00022E6438F01538FFDFFC3E583941C40013E
:100DE00022EF8555B78556B7F0538FFE22438F0209
:100DF000438F018555B78556B7901A0DF0538FFC78
:100E000022901A0D7455B1D2901A0E74AAB1D22242
:100E10007A3079D07820901A40B1CDE520F709A337
:100E2000DAF7227A3079D0901A40E7B1D209A3DA02
:100E3000F9227A8C79007820901A70B1CDE520F3F0
:100E400009A3DAF7227A8C7900901A70E3B1D209FB
:100E5000A3DAF922788076FF0876330876010876DF
:100E6000010876190876FF08760908766008760189
:100E70000876FF08080876FF0876FF0876FF0876F0
:100E8000FF0876FF0876FF0876040876FF0876FFED
:100E90000876FF0876FF0876FF087628087650085F
:100EA00076040876FF0876020876FF0876FF087653
:100EB000FF0876070876FF0876FF0876FF087600B9
:100EC000087600087602227888E614A2E19222A22F
:100ED000E092217884745096500276507886740D92
:100EE000965002760D863B789CE6753AFFB4020375
:100EF000753AA0B40303753A8275520078A0E6F9FA
:100F0000600F78A6B601047453800274282409D9AE
:100F1000FCF55278988654788DE623F95401F55102
:100F2000E954FEF550B6FF037550FF7883E624FFC1
:100F3000922978C0760008761108765508767722CF
:100F40007555007556007597DE7597AD7581B04380
:100F5000FF8075EF0675A90012048C7580FB75F192
:100F60000F75A4047580FB75D4FF75900075F27E33
:100F700075A57E75900075D5FF75A60175A72075BE
:100F8000F30175CC0175A70075E34075E202120408
:100F90008CE4F8F6D8FDD154B147D1C7C2AF1203E3
:100FA0006F12044A12047012036FC2AF75550075B8
:100FB000560012048C75A91375A71075C10075A78A
:100FC00000780979007A0030830CDAFBD9F9D8F778
:100FD000120417021C00302A0E12041012037B1296
:100FE000037B12037BC22A758851758E017589AA0D
:100FF000758C00758D0075C80475910475D84075A1
:10100000D90875F781759E0075960275DA4A75DB09
:1010100000759B80759D0078A6B6010575D11C8072
:101020000375D10C75BCB975BB1075E88075B2013C
:1010300012035D120A6B75E4B330270375E43BC2FB
:1010400013C214C215C228C22475A82D75E6807576
:10105000B803D2AF758E0C755880755710755B50FC
:10106000755EF7755FE77560D67564E17561EB7560
:1010700062CA7563A975300A12036FE530602B757B
:1010800058C0755708755B28755EFF755FF775600A
:10109000EF7564E17561FB7562EB7563DA75300AB3
:1010A00012036FE5306003020FAAC0D075D010AFF5
:1010B0008ED0D0D22A753700C2AF1203B1D2AFC3DF
:1010C000E532940A40F9C2AF1203B7D2AFE4F54259
:1010D000F543F55CF55DF533F53CC3E53C945E40C6
:1010E00033753C000533789AE6781414601278283A
:1010F00014600D786414600878C8146003753300B8
:10110000C3E53398400E15337804C2AF12048C1235
:101110000423D2AF202806120B181204E330250C4A
:10112000E5317003020FAA120A7F80AE12036F200E
:1011300025A8C2AF12048CD2AFE4F522F523F5380E
:10114000F53912035D756600C2AF7984874F854F0C
:101150004D854F4E854F5375A71075C13075A7004B
:1011600075A903C3E55833F558C3E55B33F55BC395
:10117000E55733F557E55EC561F55EE55FC562F598
:101180005FE560C563F56075643CD2AFA221921241
:10119000302204A2269212D210D211753400753674
:1011A0000C120A19120A421205AF1205B61205AF47
:1011B0001205B61205AF12083F1209201209751266
:1011C00005B612083412049C12092012099E120559
:1011D000B612083F1209201209C71205B6120834C8
:1011E0001209201209F01205B612083F1209201246
:1011F0000A191205B6120834120920120A42120501
:10120000B61204E330113530101A854F4DC3E53462
:101210009418500530259F807EC210754DFF754E85
:10122000FF7553FF201D15E53614600AF53630258D
:10123000852022828061C211D21C21B6753700D26E
:101240001B30251320220C79A4E76007C3E53294F4
:10125000035044E5316040202209C3E54394F05037
:101260003621B6201D1220120520260580EC2026EE
:10127000E9D21D854F4D21DD854F4DC3E5439420B7
:10128000400EC21DA2269212D211753612854F4D04
:1012900021B6201B020537C2AFC22412048C75226E
:1012A0000075230075A91375A71075C10075A700F7
:1012B000D3E55813F558C3E55B13F55BC3E5571346
:1012C000F557E55EC561F55EE55FC562F55FE56012
:1012D000C563F5607564E1D2AF202519D215C3E569
:1012E000379404500612036F021132C2AF12041C6D
:1012F000D2AF0210AA75370078A4E6600CC291D272
:0C13000094C292D295C293D2960210CDF6
:1019FD00020F400013CEFF33010119FF096001FFF3
:101A0D0055AAFFFFFFFFFFFF04FFFFFFFFFF285059
:0E1A1D0004FF02FFFFFF07FFFFFF000002FFB4
:101A4000234D5F485F30302320202020202020209D
:101A500023424C48454C492445464D3842323123B7
:101A6000426C75656A61792020202020202020208A
:101A7000023A042034420D00452D0D0034420D0081
:0B1A80004E27D300452DD0193419006B
:101C0000C2AFC2D37597DE7597AD7581C075A90057
:101C100043FF80752438752503B1DB7529A5752A26
:101C2000F143F10853A4F7D28375D4FF75E3407DE7
:101C3000FA780379E67C10752200752300901DE880
:101C40007B0675249875250130830281482083081E
:101C5000D8FBD9F9DCF781BA308308D8FBD9F9DC95
:101C6000F781BAB19BE493A3C39A6004DDC381BA40
:101C7000DBDBB18D600281317B08E493FAA3B16EA6
:101C8000DBF87A30B16E752200752300B18DEAFC65
:101C9000EBFDC3ED94FE400EB18D8A278B28ED300D
:101CA000E0048A828B83B18D7AC270D8C3ED94FE32
:101CB000601950CEBD0029EC600F7520007521FF22
:101CC000752900752A000200008100A827A92808AC
:101CD00009D804D90281DDB191EAF281D10D81A642
:101CE000C3ED94035051EDA2E092007AC5C3E582A2
:101CF0009400E583941C508C200010438F02438F86
:101D0000018529B7852AB7F0300027A827A9280818
:101D100009438F01538FFDD804D902A132C3E58353
:101D2000941C4003A3A117E28529B7852AB7F0A325
:101D3000A117538FFC81827AC1BD030CE493A3FAEF
:101D4000B152DCF8B14A81828184AA22AB23B16E00
:101D5000EBFAEA6222752608C3E52313F523E52290
:101D600013F52250066323A0632201D526EAB1DBD6
:101D7000B1DB75260AEAF4200102D283300102C2E7
:101D800083B1DBC3134002C201D526EB22B191EA35
:101D9000FB208302A191308302A196752608AE2410
:101DA000AF25C3EF13FFEE13FEB1DFB1DBC3EA13C0
:101DB0003083024480FA30E703632201C3E5231332
:101DC000F523E52213F52250066323A0632201D5F3
:101DD00026D9E52265236523F52222AE24AF250E00
:101DE0000FDEFEDFFCD20122424C48656C693437BD
:061DF0003164E8B20601B7
:00000001FF
