:060000000219FD02035489
:03000B0002008070
:030013000203677E
:03001B000200B030
:03002B00020322AB
:03005B0002037627
:0300730002034144
:10008000C0D075D01018B8CF0408208507B2858677
:100090008AD0D03253A4DFD285C2A98F8E7589AAA7
:1000A000C289C28B758A00D2A8D2AAC228D0D03207
:1000B000C2A8C28E85588BC0D075D008C0E0C0F0F1
:1000C000C2CAA9CCAACDD2CAC3E99559F9EA955AB0
:1000D0007049C3E9955B4043955B503FB8103C784D
:1000E00000A9577D00E2FEC39DC399402E99EC33D1
:1000F000FC08E2FDC39EC399402199EC33FC08E261
:10010000FEC39DC399401499EC33FC08E2FDC39EE5
:10011000C399400799EC33FC088002806AE2FEC371
:100120009DC399406299EB33FB08E2FDC39EC399DE
:10013000405599EB33FB08E2FEC39DC399404899B3
:10014000EB33FB08E2FDC39EC399403B99EB33FBC5
:1001500008E2FEC39DC399402E99EB33FB08E2FDF4
:10016000C39EC399402199EB33FB08E2FEC39DC3B4
:1001700099401499EB33FB08E2FDC39EC3994007F5
:1001800099EB33FB08801E0530E53070021530C353
:10019000E5309432400AD225755C00755D0061122D
:1001A00075310A6112E2FEC39DC39940DA99EA33C0
:1001B000FA08E2FDC39EC39940CD99EA33FA08E2FA
:1001C000FEC39DC39940C099EA33FA08E2FDC39E7D
:1001D000C39940B399EA33FA08EBC46B6C6A3027D1
:1001E00001F4540F70A1C3EBF4FA9460FBECF454E7
:1001F0000F9400FC5018EA7C007B00600CC3135085
:1002000007B55C05055D8006E4F55C755D00302290
:100210001BC3EB94D0F5F0EC94074003ABF0FC303B
:100220002101B39226C3EB33FBEC33FCEB54F04CCF
:10023000C475F00584FAEC13FCEB132AFBEC3400D4
:10024000FC30E3047BFF7C07201C27301124EC707A
:100250000C798187F0C3EB95F05002ABF0E5376085
:100260001175F028A42BFBEC3400FC30E3047BFF79
:100270007C07EB54F84CC423F97007EB7004D225CB
:100280008005753200C225E53060021530C3E54DAA
:10029000FD954E4002AD4EC3ED995008ED75F00846
:1002A000A4FBACF0C3EC13F45403FAEB13F4F930F1
:1002B000291CEBF4540124C0F8E623F630E00FE9E2
:1002C0002401F97009EA3400FA30E2021A19C3E98C
:1002D0009432FBEA9400FC5005E4FBFC800DC3EB78
:1002E0009550EC95514004AB50AC5189E98AEA8BAA
:1002F000FB8CFC75310A302719302816758E017574
:1003000089A2D28543A420780085648AC28DD2A9AF
:1003100080097800758A00D2A8D2AAD0F0D0E0D0A7
:10032000D032C0E0C2CF053CD223E5317004D225E3
:1003300080021531302507E5320460020532D0E035
:1003400032C2AF53E67F53917F7592FA7593FFC225
:1003500018D2AF32C0E0E58A85588BC0D075D0087E
:10036000F208D0D0D0E032C2AAD28EC2CA85CC590F
:1003700085CD5AD2CA32327A007901801E7A00794C
:100380000580187A00790A80127A007964800C7AE4
:100390000079C880067A0079FA8000090A80097815
:1003A0001874FFD5E0FDD8F9D9F5DAF3227A427B4B
:1003B0003580247A2D7B4D801E7A267B5C80187ACE
:1003C000197B8C80127A147BAF800C7A427B1E8062
:1003D000067A2D7B2C8000E5547001227902E4C25C
:1003E00092D5E0FDD293D5E0FDC293D5E0FDD29247
:1003F000D5E0FDE920E002D29130E002D295E5544B
:10040000D5E0FDE920E002C29130E002C295749689
:10041000D5E0FDD9C9EA78C8D8FED5E0F9DBBDC280
:10042000922271AD71B371B92271D171AD2271B9DE
:1004300071B371AD2279998754B8010471AD8017F9
:10044000B8020471B38010B8030471B98009B8040C
:100450000471BF800271C57998875422901A70E4A4
:1004600093F4601D7C3E901A74E493A3FB6012E445
:1004700093FA600471D78006EBF97A00719BA3DCD4
:10048000E82278A5E6F954037000E9540C7000E9FD
:1004900054307000E954C0700022C291C293C295DA
:1004A000C290C292C29475D5FF22201E2E78FF20E2
:1004B0001026E53B6022E543601E74FF3011027494
:1004C0007F8543F084853BF0A4F8C5F0600278FF97
:1004D000C3E8954F5002A84F884E22C3E54294A02E
:1004E000E5439400E54E5003148001046002F54E8C
:1004F00022102301220567E56720E037E5526026D8
:100500007553FFE5BE601FE5BDC395524018755396
:10051000C8940440117553969404400A755364942A
:10052000044003755332202402A1BC8538657566EA
:100530000CA1BCE552600FC3E54D95536008400423
:10054000154D8002054D302470E5675407B401272E
:10055000C3E53994785003E4800475F00984A2134C
:1005600092E7A21492E6A21592E5C213C214C21534
:10057000F56575660E8042B4030875658875660872
:100580008037B405087565AA75660A802CB40729FA
:1005900078A6B6010DE5BE7003E48018E5BD94149D
:1005A0008012E5BE700AE5BDC394EB5007E48004F9
:1005B000E5BD2414F56575660275E8902275420064
:1005C0007543F022C2AFC2CAA8CCA9CDAA3C30CF95
:1005D000010AD2CAD2AFC3EA13FAE913F9E813F851
:1005E000201014C3E8953D883DF8E9953E893E54B6
:1005F0007FF9301E36C1DEAB3DAC3EAD3F883D8954
:100600003E8A3FC3E89BE99CEA9D547F600875429F
:10061000FF7543FFC1ADAE40AF418B408C41C3E895
:100620009EF8E99FF9AA42AB438011AA42AB43C3AB
:10063000EB9404404894044013201126C3EB13FDAF
:10064000EA13FCC3ED13FDEC13FC804AEBC423FC5E
:10065000EAC423541F4CFC7D00C3E913F9E813F8E6
:100660008034EBC423FC541FFDEC54E0FCEAC423AB
:10067000541F4CFCC3E913F9E813F88019EBC4FCD0
:10068000EAC4540F4CFC7D00C3E913F9E813F8C326
:10069000E913F9E813F8C3EA9CFAEB9DFBEA28F5A5
:1006A00042EB39F54350067542FF7543FFC3E543FE
:1006B00094025002D21EE543C4FA540FFBEA54F0F0
:1006C000FAE542C4540F4AFAC3EA9402FAEB9400E2
:1006D000FB40057048EA70457A017B00803FAA42E2
:1006E000AB43EBC4FCEAC4540F4CFCC3EA9CFAEBEA
:1006F0009400FBE80303543F2AFAEB3400FB8A42E0
:100700008B43C394024002C21EEBC4FE7B00EAC4CA
:10071000540F4EC39402FA400270027A0120280658
:10072000301808120AF430180280FB854992854A75
:1007300093D21843E6807892E6FFC3E49AF8E49BEC
:10074000F9C3E833F8E933F9201E7F3010047F0342
:100750008015C3E5389482400E0F941E40010FC3EC
:10076000EF940640027F05E8FAE9FBD3E913FDE8C0
:1007700013FC8C478D488849894AC3EF9403602B4A
:10078000EF20E00CE82CF8E93DF9ECFAEDFB800BEA
:10079000E8D338F8E939F97AFF7BFFC3EF940340D7
:1007A0000A8A4B8B4C884589468050884B894C8AF5
:1007B000458B46301045754BF0754CFF7547F0750D
:1007C00048FF7549F0754AFF8031E8FAD313FC8C75
:1007D000478849C3EF9403601EEF20E007E82CF838
:1007E000ECFA8007E8282401F87AFFC3EF9403406D
:1007F000068A4B88458004884B8A45202805301896
:100800000751F430180280FB753502D21843E68098
:1008100030112DA842A943C3E913F9E813F83010A9
:1008200004E92440F9C2AF53E67F759100C3E49810
:10083000F594E499F595759104D21843E680D2AF0A
:100840002275F000301D0E75F040800975F04030C3
:100850001D0375F000D2197544007A027B02201E38
:100860001D301102C2193010067A367B36800F7B9C
:1008700028E543700104FAC3942840027A2820181E
:1008800010E544600C301003D53504D21A8066118F
:100890000B0544E59B5440B5F00DE53460BC2019D0
:1008A000B9DADBC21A804E20100B2019110AC3EAF4
:1008B0009B40CB80A50AC3EA9B40011A80C0C219A5
:1008C00053E67F759100301E117594007595F07593
:1008D0009104D21843E68002085AE5437EFFC333F1
:1008E0004009C3334005C3334001FEC3E49E759401
:1008F00000F59580DAC2AF53E67F85459285469331
:10090000759100854B94854C95759104D21843E6FA
:1009100080D2AF201013301A1220110F201D0C208E
:10092000190915811581021269053422E53875F01F
:1009300007A430190405F0D213A2F013A2F113A2F8
:10094000F213F538C394785003753878C3E53895B9
:10095000394003853839C3E538953A400BD214C283
:1009600091C293C29575D5FF20280530180751F420
:1009700030180280FB854792854893D21843E68061
:100980002220120FC2AFC292D29075D5CFD2AF75CE
:100990009F2022C2AFC292D29475D5FCD2AF759F70
:1009A000202220120FC2AFC29575D5F3D290D2AFDC
:1009B000759F3022C2AFC29175D5F3D294D2AF7574
:1009C0009F102220120FC2AFC290D29475D5F3D2DD
:1009D000AF759F1022C2AFC294D29075D5F3D2AF3B
:1009E000759F302220120FC2AFC29375D5FCD294EE
:1009F000D2AF759F2022C2AFC29375D5CFD290D20D
:100A0000AF759F202220120FC2AFC294D29275D52B
:100A1000FCD2AF759F3022C2AFC290D29275D5CFB3
:100A2000D2AF759F102220120FC2AFC29175D5CFE1
:100A3000D292D2AF759F1022C2AFC29575D5FCD2AB
:100A400092D2AF759F30227432A28540032085F781
:100A500050033085F2D5E0F3922722E55C70012245
:100A6000F8C39406500FC2AF12049A120435120351
:100A70008FD2AF8078C3E55D94064077B80704C293
:100A800021806AB80804D2218063B80904C2228098
:100A90005CB80A04D2228055B80D0A7565007566E7
:100AA0000ED2248048B80E0A7565FF75660EC22402
:100AB000803BB8140A7988E714A2E09221802EB80E
:100AC000150B7988E714A2E0B392218020B80C1DA1
:100AD000E4A22192E0A22292E1047988F77555A55B
:100AE0007556F1B169755500755600D2AF755C0049
:100AF000755D0022C0D075D010BE0039E566702E3D
:100B0000C2AFE542854327D2AFA23813F9A2391309
:100B100029FAE52703C2E7F903C2E739FBE52723F2
:100B20002354FCFCC3EA9CF526EB9400F5270E2029
:100B30001803D0D022BE0124E5667010E527705D51
:100B4000E526701175270F7526FF800985652685B6
:100B500066277566000E201803D0D022BE0215E568
:100B600026C465266527F478D0A65E911A0E201853
:100B700003D0D022BE030BE526911A0E201803D015
:100B8000D022BE040CE526C4911A0E201803D0D042
:100B900022E527911A087E00D0D0D2282220E7161D
:100BA00020E61D20E52720E43420E34120E2502008
:100BB000E15CE5266155A23733F52675270F6155AF
:100BC000A23733A23633F52675270D6155A2373388
:100BD000A23633A23533F52675270B6155E5265429
:100BE000F0C23C4527C4F5267527096155E526A2C4
:100BF0003813A23913A23A13F5267527076155E574
:100C000026A23813A23913F5267527056155E52666
:100C1000A23813F5267527036155540F23900C2134
:100C2000738141814B8158816981738180818A817F
:100C30009E81AB81BF81C681D781E181F8A102A1EC
:100C40001608A66008A65E08A65E2208A65E08A68C
:100C50005F08A65E08A65E2286F0E55FB5F002E5B5
:100C600060F608A66008A65E2208A65E08A66008D0
:100C7000A65E2208A65F08A65E08A65E08A65E22FB
:100C800008A65F08A65F08A65E2286F0E55FB5F0BD
:100C900002E560F608A65E08A65F08A65E2208A622
:100CA0005E08A65E08A65F08A65E2286F0E55FB530
:100CB000F002E560F608A65F08A65E08A65E2208B8
:100CC000A66008A65F2286F0E55FB5F002E560F653
:100CD00008A65F08A65F2208A65E08A65F08A65FB2
:100CE0002286F0E55FB5F002E560F608A65E08A68C
:100CF0005E08A65E08A65E2208A65F08A65E08A695
:100D00005F2286F0E55FB5F002E560F608A65E08B2
:100D1000A65E08A65F2208A65E08A65E08A65E0874
:100D2000A65F22901A0D7820B1A9E520B4550AA338
:100D3000B1A9E520B4AA0280127555A57556F1D166
:100D400030B169755500755600801D901A03788082
:100D50007B0AB1A9A308DBFA901A0F788C7B1BB130
:100D6000A9A308DBFA901A2A22C2AFB1ECD10EB1C6
:100D7000C9901A007400B1AEA37413B1AEA374CEBF
:100D8000B1AE901A0378807B0AB1ADA308DBFA906C
:100D90001A0F788C7B1BB1ADA308DBFAB1FFD12110
:100DA000B1DD901A2A12038F22E493F622E6438FD4
:100DB00001538FFDFFC3E583941C400122EF85554D
:100DC000B78556B7F0538FFE22438F02438F0185BC
:100DD00055B78556B7901A0DF0538FFC22901A0D17
:100DE0007455B1AE901A0E74AAB1AE227A3079D091
:100DF0007820901A40B1A9E520F709A3DAF7227A02
:100E00003079D0901A40E7B1AE09A3DAF9227A8C92
:100E100079007820901A70B1A9E520F309A3DAF7D8
:100E2000227A8C7900901A70E3B1AE09A3DAF92224
:100E3000788076FF087633087601087601087619FF
:100E40000876FF0876090876180876010876FF0804
:100E5000080876FF0876FF0876FF0876FF0876FF19
:100E60000876FF0876040876FF0876FF0876FF0804
:100E700076FF0876FF08762808765008760408760C
:100E8000FF0876020876FF0876FF0876FF087607E7
:100E90000876FF0876FF0876FF08760008760008D7
:100EA0007602227888E614A2E19222A2E0922178CA
:100EB00084745096500276507886740D965002765F
:100EC0000D863B789CE6753AFFB40203753AA0B4F0
:100ED0000303753A8275520078A0E6F9600F78A690
:100EE000B601047453800274282409D9FCF55278A1
:100EF000988654788DE62323F95403F551E954FC80
:100F0000F550B6FF037550FF7883E624FF922978E9
:100F1000C07600087655227555007556007597DE27
:100F20007597AD7581B043FF8075EF0675A9001206
:100F3000049A7580FF75F1F075A4007580FF75D473
:100F4000FF75900075F23F75A53F75900075D5FF50
:100F500075A60175A72075F30175CC0175A70075FD
:100F6000E34075E20212049AE4F8F6D8FDD130B1FC
:100F700023D1A3C2AF12038912045C1204821203AC
:100F800089C2AF75550075560012049A75A913757C
:100F9000A71075C10075A700780979007A0030851F
:100FA0000CDAFBD9F9D8F7120429021C00302A0EFA
:100FB000120422120395120395120395C22A758812
:100FC00051758E017589AA758C00758D0075C804E0
:100FD00075910475D84075D90875F782759E0775A7
:100FE000960175DB4275DA42759B80759D0078A687
:100FF000B6010575D11C800375D10C75BCB975BBE4
:101000001075E88075B201120377120A4775E4D5AE
:1010100030270375E45DC213C214C215C228C2246E
:1010200075A82D75E68075B803D2AF758E0C75580E
:1010300080755710755B50755EF7755FE77560D604
:101040007564E17561EB7562CA7563A975300A1242
:101050000389E530602B7558C0755708755B287596
:101060005EFF755FF77560EF7564E17561FB756232
:10107000EB7563DA75300A120389E5306003020FFD
:1010800081C0D075D010AF8ED0D0D22A753700C2B3
:10109000AF1203CBD2AFC3E532940A40F9C2AF120C
:1010A00003D1D2AFE4F542F543F55CF55DF533F5D8
:1010B0003CC3E53C945E4033753C000533789AE6CA
:1010C0007814146012782814600D7864146008781D
:1010D000C8146003753300C3E53398400E153378A8
:1010E00004C2AF12049A120435D2AF202806120AA5
:1010F000F41204F130250CE5317003020F81120A5D
:101100005B80AE1203892025A8C2AF12049AD2AF29
:10111000E4F522F523F538F539120377756600C238
:10112000AF7984874F854F4D854F4E854F5375A7B7
:101130001075C13075A70075A903C3E55833F5587C
:10114000C3E55B33F55BC3E55733F557E55EC56132
:10115000F55EE55FC562F55FE560C563F5607564E2
:101160003CD2AFA2219212302204A2269212D210B7
:10117000D21175340075360C120A05120A261205B2
:10118000BD1205C41205BD1205C41205BD12084CDE
:1011900012092C1209811205C41208411204AA1264
:1011A000092C1209A21205C412084C12092C1209AA
:1011B000C31205C412084112092C1209E41205C415
:1011C00012084C12092C120A051205C41208411209
:1011D000092C120A261205C41204F1301135301000
:1011E0001A854F4DC3E5349418500530259F807EF5
:1011F000C210754DFF754EFF7553FF201D15E53666
:1012000014600AF5363025852022828061C211D211
:101210001C218D753700D21B30251320220C79A498
:10122000E76007C3E53294035044E5316040202273
:1012300009C3E54394F05036218D201D122012057C
:1012400020260580EC2026E9D21D854F4D21B4854E
:101250004F4DC3E5439420400EC21DA2269212D2E8
:1012600011753612854F4D218D201B020537C2AFF7
:10127000C22412049A75220075230075A91375A75C
:101280001075C10075A700D3E55813F558C3E55B89
:1012900013F55BC3E55713F557E55EC561F55EE5EC
:1012A0005FC562F55FE560C563F5607564E1D2AF67
:1012B000202519D215C3E53794045006120389027C
:1012C0001109C2AF12042ED2AF0210817537007817
:0D12D000A4E66006D290D292D2940210A43F
:1019FD00020F170013CEFF33010119FF091801FF64
:101A0D0055AAFFFFFFFFFFFF04FFFFFFFFFF285059
:0E1A1D0004FF02FFFFFF07FFFFFF000002FFB4
:101A4000234E5F485F353023202020202020202097
:101A500023424C48454C492445464D3842323123B7
:101A6000426C75656A61792020202020202020208A
:101A7000023A042034420D00452D0D0034420D0081
:0B1A80004E27D300452DD0193419006B
:101C0000C2AFC2D37597DE7597AD7581C075A90057
:101C100043FF80752438752503B1DB7529A5752A26
:101C2000F143F12053A4DFD28575D4FF75E3407DE5
:101C3000FA780379E67C10752200752300901DE880
:101C40007B0675249875250130850281482085081A
:101C5000D8FBD9F9DCF781BA308508D8FBD9F9DC93
:101C6000F781BAB19BE493A3C39A6004DDC381BA40
:101C7000DBDBB18D600281317B08E493FAA3B16EA6
:101C8000DBF87A30B16E752200752300B18DEAFC65
:101C9000EBFDC3ED94FE400EB18D8A278B28ED300D
:101CA000E0048A828B83B18D7AC270D8C3ED94FE32
:101CB000601950CEBD0029EC600F7520007521FF22
:101CC000752900752A000200008100A827A92808AC
:101CD00009D804D90281DDB191EAF281D10D81A642
:101CE000C3ED94035051EDA2E092007AC5C3E582A2
:101CF0009400E583941C508C200010438F02438F86
:101D0000018529B7852AB7F0300027A827A9280818
:101D100009438F01538FFDD804D902A132C3E58353
:101D2000941C4003A3A117E28529B7852AB7F0A325
:101D3000A117538FFC81827AC1BD030CE493A3FAEF
:101D4000B152DCF8B14A81828184AA22AB23B16E00
:101D5000EBFAEA6222752608C3E52313F523E52290
:101D600013F52250066323A0632201D526EAB1DBD6
:101D7000B1DB75260AEAF4200102D285300102C2E5
:101D800085B1DBC3134002C201D526EB22B191EA33
:101D9000FB208502A191308502A196752608AE240C
:101DA000AF25C3EF13FFEE13FEB1DFB1DBC3EA13C0
:101DB0003085024480FA30E703632201C3E5231330
:101DC000F523E52213F52250066323A0632201D5F3
:101DD00026D9E52265236523F52222AE24AF250E00
:101DE0000FDEFEDFFCD20122424C48656C693437BD
:061DF0003164E8B20601B7
:00000001FF
