:060000000219FD020311CC
:03000B0002008070
:03001300020324C1
:03001B000200B030
:03002B000202DFEF
:03005B000203336A
:030073000202FE88
:10008000C0D075D01018B8CF0408208107B281867F
:100090008AD0D03253A4FDD281C2A98F8E7589AA8D
:1000A000C289C28B758A00D2A8D2AAC228D0D03207
:1000B000C2A8C28E85588BC0D075D008C0E0C0F0F1
:1000C000C2CAA9CCAACDD2CAC3E99559F9EA955AB0
:1000D0007049C3E9955B4043955B503FB8103C784D
:1000E00000A9577D00E2FEC39DC399402E99EC33D1
:1000F000FC08E2FDC39EC399402199EC33FC08E261
:10010000FEC39DC399401499EC33FC08E2FDC39EE5
:10011000C399400799EC33FC088002806AE2FEC371
:100120009DC399406299EB33FB08E2FDC39EC399DE
:10013000405599EB33FB08E2FEC39DC399404899B3
:10014000EB33FB08E2FDC39EC399403B99EB33FBC5
:1001500008E2FEC39DC399402E99EB33FB08E2FDF4
:10016000C39EC399402199EB33FB08E2FEC39DC3B4
:1001700099401499EB33FB08E2FDC39EC3994007F5
:1001800099EB33FB08801E0530E53070021530C353
:10019000E5309432400AD225755C00755D0041CF90
:1001A00075310A41CFE2FEC39DC39940DA99EA3323
:1001B000FA08E2FDC39EC39940CD99EA33FA08E2FA
:1001C000FEC39DC39940C099EA33FA08E2FDC39E7D
:1001D000C39940B399EA33FA08EBC46B6C6A3027D1
:1001E00001F4540F70A1C3EBF4FA9460FBECF454E7
:1001F0000F9400FC5018EA7C007B00600CC3135085
:1002000007B55C05055D8006E4F55C755D00302290
:100210001BC3EB94D0F5F0EC94074003ABF0FC303B
:100220002101B39226C3EB33FBEC33FCEB54F04CCF
:10023000C475F00584FAEC13FCEB132AFBEC3400D4
:10024000FC30E3047BFF7C07201C27301124EC707A
:100250000C798187F0C3EB95F05002ABF0E5376085
:100260001175F028A42BFBEC3400FC30E3047BFF79
:100270007C07EB54F84CC423F97007EB7004D225CB
:100280008005753200C225E53060021530C3E54DAA
:10029000FD954E4002AD4EC3ED995008ED75F00846
:1002A000A4FBACF0ECF45407FAEBF4F989FB8AFCFC
:1002B00075310A302719302816758E017589A2D23A
:1002C0008143A402780085648AC28DD2A98009780E
:1002D00000758A00D2A8D2AAD0F0D0E0D0D032C027
:1002E000E0C2CF053CD223E5317004D2258002154F
:1002F00031302507E5320460020532D0E032C2AF6A
:1003000053E67F53917F7592FA7593FFC218D2AF6F
:1003100032C0E0E58A85588BC0D075D008F208D08D
:10032000D0D0E032C2AAD28EC2CA85CC5985CD5A6D
:10033000D2CA32327A007901801E7A00790580189B
:100340007A00790A80127A007964800C7A0079C880
:1003500080067A0079FA8000090A8009781874FF0B
:10036000D5E0FDD8F9D9F5DAF3227A427B3580243D
:100370007A2D7B4D801E7A267B5C80187A197B8CC7
:1003800080127A147BAF800C7A427B1E80067A2D15
:100390007B2C8000E5547001227902E4C291D5E003
:1003A000FDD286D291D5E0FDC291D5E0FDC286D2C4
:1003B00091D5E0FDE920E004D285D29030E004D26E
:1003C00087D292E554D5E0FDE920E002C29030E00A
:1003D00002C2927496D5E0FDD9C1EA78C8D8FED59C
:1003E000E0F9DBB5C29122716A7170717622718E6B
:1003F000716A2271767170716A2279998754B80195
:1004000004716A8017B8020471708010B803047117
:10041000768009B80404717C8002718279988754CF
:1004200022901A70E493F4601D7C3E901A74E49359
:10043000A3FB6012E493FA600471948006EBF97AEE
:10044000007158A3DCE82278A5E6F95403D2837042
:1004500002C283E9540CD2847002C284E954307021
:1004600000E954C0700022C290C291C292C290C2F0
:1004700091C29275D4FF75D5FF22201E2E78FF20E1
:100480001026E53B6022E543601E74FF30110274C4
:100490007F8543F084853BF0A4F8C5F0600278FFC7
:1004A000C3E8954F5002A84F884E22C3E54294A05E
:1004B000E5439400E54E5003148001046002F54EBC
:1004C00022102301220567E56720E037E552602608
:1004D0007553FFE5BE601FE5BDC3955240187553C7
:1004E000C8940440117553969404400A755364945B
:1004F000044003755332202402A18C85386575664B
:100500000CA18CE552600FC3E54D95536008400483
:10051000154D8002054D302470E5675407B401275E
:10052000C3E53994785003E4800475F00984A2137C
:1005300092E7A21492E6A21592E5C213C214C21564
:10054000F56575660E8042B40308756588756608A2
:100550008037B405087565AA75660A802CB407292A
:1005600078A6B6010DE5BE7003E48018E5BD9414CD
:100570008012E5BE700AE5BDC394EB5007E4800429
:10058000E5BD2414F56575660275E8902275420094
:100590007543F022C2AFC2CAA8CCA9CDAA3C30CFC5
:1005A000010AD2CAD2AFC3EA13FAE913F9E813F881
:1005B000201014C3E8953D883DF8E9953E893E54E6
:1005C0007FF9301E36C1AEAB3DAC3EAD3F883D89B4
:1005D0003E8A3FC3E89BE99CEA9D547F60087542D0
:1005E000FF7543FFC17DAE40AF418B408C41C3E8F6
:1005F0009EF8E99FF9AA42AB438011AA42AB43C3DC
:10060000EB9404404894044013201126C3EB13FDDF
:10061000EA13FCC3ED13FDEC13FC804AEBC423FC8E
:10062000EAC423541F4CFC7D00C3E913F9E813F816
:100630008034EBC423FC541FFDEC54E0FCEAC423DB
:10064000541F4CFCC3E913F9E813F88019EBC4FC00
:10065000EAC4540F4CFC7D00C3E913F9E813F8C356
:10066000E913F9E813F8C3EA9CFAEB9DFBEA28F5D5
:1006700042EB39F54350067542FF7543FFC3E5432E
:1006800094025002D21EE543C4FA540FFBEA54F020
:10069000FAE542C4540F4AFAC3EA9402FAEB940012
:1006A000FB40057048EA70457A017B00803FAA4212
:1006B000AB43EBC4FCEAC4540F4CFCC3EA9CFAEB1A
:1006C0009400FBE80303543F2AFAEB3400FB8A4210
:1006D0008B43C394024002C21EEBC4FE7B00EAC4FB
:1006E000540F4EC39402FA400270027A0120280689
:1006F000301808120B1D30180280FB854992854A7C
:1007000093D21843E6807892E6FFC3E49AF8E49B1C
:10071000F9C3E833F8E933F9201E7F3010047F0372
:100720008015C3E5389482400E0F941E40010FC31C
:10073000EF940640027F05E8FAE9FBD3E913FDE8F0
:1007400013FC8C478D488849894AC3EF9403602B7A
:10075000EF20E00CE82CF8E93DF9ECFAEDFB800B1A
:10076000E8D338F8E939F97AFF7BFFC3EF94034007
:100770000A8A4B8B4C884589468050884B894C8A25
:10078000458B46301045754BF0754CFF7547F0753D
:1007900048FF7549F0754AFF8031E8FAD313FC8CA5
:1007A000478849C3EF9403601EEF20E007E82CF868
:1007B000ECFA8007E8282401F87AFFC3EF9403409D
:1007C000068A4B88458004884B8A452028063018C5
:1007D00008120B1D30180280FB753502D21843E653
:1007E0008030112DA842A943C3E913F9E813F8306A
:1007F0001004E92440F9C2AF53E67F759100C3E4C9
:1008000098F594E499F595759104D21843E680D251
:10081000AF2275F000301D0E75F040800975F04074
:10082000301D0375F000D2197544007A027B022056
:100830001E1D301102C2193010067A367B36800F29
:100840007B28E543700104FAC3942840027A2820EB
:100850001811E544600D301003D53504D21A8067B5
:100860001207DC0544E5BF5440B5F00DE53460BB2C
:100870002019B8DADAC21A804E20100B2019110A9A
:10088000C3EA9B40CA80A40AC3EA9B40011A80BF06
:10089000C21953E67F759100301E1175940075954D
:1008A000F0759104D21843E68002082BE5437EFFE1
:1008B000C3334009C3334005C3334001FEC3E49E44
:1008C000759400F59580DAC2AF53E67F8545928531
:1008D0004693759100854B94854C95759104D2187B
:1008E00043E680D2AF201013301A1220110F201DC2
:1008F0000C2019091581158102128C053422E53866
:1009000075F007A430190405F0D213A2F013A2F178
:1009100013A2F213F538C394785003753878C3E501
:100920003895394003853839C3E538953A400ED2B9
:1009300014C290C291C29275D4FF75D5FF202805CC
:10094000301807711D30180280FB85479285489347
:10095000D21843E68022201216C2AFC291C285D2BD
:1009600090D29275D47F75D5FFD2AF75AA5322C2AB
:10097000AFC291C287D292D29075D4DF75D5FFD223
:10098000AF75AA5322201216C2AFC292D29175D46B
:10099000BF75D5FFC285D290D2AF75AA4322C2AF30
:1009A000C290D29175D4BF75D5FFC287D292D2AF13
:1009B00075AA6322201216C2AFC290C287D292D209
:1009C0009175D4BF75D5FFD2AF75AA6322C2AFC2ED
:1009D00092C285D290D29175D4BF75D5FFD2AF7532
:1009E000AA4322201216C2AFC291D29075D4DF75ED
:1009F000D5FFC287D292D2AF75AA5322C2AFC2919D
:100A0000D29275D47F75D5FFC285D290D2AF75AA28
:100A10005322201216C2AFC292C286D291D29075D2
:100A2000D4DF75D5FFD2AF75AA4322C2AFC290C240
:100A300086D291D29275D47F75D5FFD2AF75AA6355
:100A400022201216C2AFC290D29275D47F75D5FF04
:100A5000C286D291D2AF75AA6322C2AFC292D2909F
:100A600075D4DF75D5FFC286D291D2AF75AA432265
:100A70007432A28140032081F750033081F2D5E027
:100A8000F3922722E55C700122F8C39406500FC24E
:100A9000AF1204671203FA12034CD2AF8078C3E599
:100AA0005D94064077B80704C221806AB80804D272
:100AB000218063B80904C222805CB80A04D2228073
:100AC00055B80D0A75650075660ED2248048B80EBB
:100AD0000A7565FF75660EC224803BB8140A7988D2
:100AE000E714A2E09221802EB8150B7988E714A2B2
:100AF000E0B392218020B80C1DE4A22192E0A22252
:100B000092E1047988F77555A57556F1B19275553E
:100B100000755600D2AF755C00755D0022C0D075BF
:100B2000D010BE0039E566702EC2AFE5428543277E
:100B3000D2AFA23813F9A2391329FAE52703C2E785
:100B4000F903C2E739FBE527232354FCFCC3EA9CE5
:100B5000F526EB9400F5270E201803D0D022BE0115
:100B600024E5667010E527705DE526701175270F86
:100B70007526FF80098565268566277566000E2027
:100B80001803D0D022BE0215E526C465266527F4D9
:100B900078D0A65E91430E201803D0D022BE030B5E
:100BA000E52691430E201803D0D022BE040CE52682
:100BB000C491430E201803D0D022E5279143087E2C
:100BC00000D0D0D2282220E71620E61D20E52720DD
:100BD000E43420E34120E25020E15CE526617EA27E
:100BE0003733F52675270F617EA23733A23633F5EA
:100BF0002675270D617EA23733A23633A23533F531
:100C00002675270B617EE52654F0C23C4527C4F5C6
:100C100026752709617EE526A23813A23913A23A68
:100C200013F526752707617EE526A23813A239132E
:100C3000F526752705617EE526A23813F52675276A
:100C400003617E540F23900C4A73816A8174818101
:100C50008192819C81A981B381C781D481E881EF90
:100C6000A100A10AA121A12BA13F08A66008A65EB0
:100C700008A65E2208A65E08A65F08A65E08A65E15
:100C80002286F0E55FB5F002E560F608A66008A6EA
:100C90005E2208A65E08A66008A65E2208A65F0877
:100CA000A65E08A65E08A65E2208A65F08A65F08E4
:100CB000A65E2286F0E55FB5F002E560F608A65E66
:100CC00008A65F08A65E2208A65E08A65E08A65FC4
:100CD00008A65E2286F0E55FB5F002E560F608A69C
:100CE0005F08A65E08A65E2208A66008A65F2286A8
:100CF000F0E55FB5F002E560F608A65F08A65F22A2
:100D000008A65E08A65F08A65F2286F0E55FB5F03C
:100D100002E560F608A65E08A65E08A65E08A65E66
:100D20002208A65F08A65E08A65F2286F0E55FB5EA
:100D3000F002E560F608A65E08A65E08A65F220837
:100D4000A65E08A65E08A65E08A65F22901A0D7829
:100D500020B1D2E520B4550AA3B1D2E520B4AA024D
:100D600080127555A57556F1D159B192755500751A
:100D70005600801D901A0378807B0AB1D2A308DB4D
:100D8000FA901A0F788C7B1BB1D2A308DBFA901A69
:100D90002A22C2AFD115D137B1F2901A007400B136
:100DA000D7A37413B1D7A374CEB1D7901A037880A8
:100DB0007B0AB1D6A308DBFA901A0F788C7B1BB1A3
:100DC000D6A308DBFAD128D14AD106901A2A1203F9
:100DD0004C22E493F622E6438F01538FFDFFC3E5D7
:100DE00083941C400122EF8555B78556B7F0538F89
:100DF000FE22438F02438F018555B78556B7901A5F
:100E00000DF0538FFC22901A0D7455B1D7901A0E25
:100E100074AAB1D7227A3079D07820901A40B1D212
:100E2000E520F709A3DAF7227A3079D0901A40E763
:100E3000B1D709A3DAF9227A8C79007820901A7058
:100E4000B1D2E520F309A3DAF7227A8C7900901A5F
:100E500070E3B1D709A3DAF922788076FF087633F8
:100E60000876010876010876190876FF08760908E1
:100E700076180876010876FF08080876FF0876FFDE
:100E80000876FF0876FF0876FF0876FF08760408E4
:100E900076FF0876FF0876FF0876FF0876FF08766B
:100EA000280876500876040876FF0876020876FF50
:100EB0000876FF0876FF0876070876FF0876FF08B1
:100EC00076FF087600087600087602227888E61415
:100ED000A2E19222A2E09221788474509650027688
:100EE000507886740D965002760D863B789CE67598
:100EF0003AFFB40203753AA0B40303753A827552FF
:100F00000078A0E6F9600F78A6B601047453800259
:100F100074282409D9FCF55278988654788DE623F4
:100F20002323F95407F551E954F8F550B6FF03753A
:100F300050FF7883E624FF922922755500755600EC
:100F40007597DE7597AD7581B043FF8075EF0675B7
:100F5000A90012046775800275F1FF75A4F8758009
:100F60000275D4FF75900075F20775A5077590009E
:100F700075D5FF75A60175A72075F30175CC0175B0
:100F8000A70075E34075E202120467E4F8F6D8FDA5
:100F9000D159B14CD1CCC2AF120346120421120474
:100FA00047120346C2AF75550075560012046775A7
:100FB000A91375A71075C10075A700780979007A83
:100FC0000030810CDAFBD9F9D8F71203EE021C00CD
:100FD000302A0E1203E7120352120352120352C2B6
:100FE0002A758851758E017589AA758C00758D00DA
:100FF00075C80475910475D84075D90875F783755F
:101000009E0075960275DA4A75DB0075BF8075AB78
:101010000078A6B6010575D11C800375D10C75BC8E
:10102000B975BB1075E88075B201120334120A70ED
:1010300075E49130270375E419C213C214C215C2B6
:1010400028C22475A82D75E68075B803D2AF758EB9
:101050000C755880755710755B50755EF7755FE7B6
:101060007560D67564E17561EB7562CA7563A975C3
:10107000300A120346E530602B7558C07557087565
:101080005B28755EFF755FF77560EF7564E17561EC
:10109000FB7562EB7563DA75300A120346E5306062
:1010A00003020FA4C0D075D010AF8ED0D0D22A7555
:1010B0003700C2AF120388D2AFC3E532940A40F9B9
:1010C000C2AF12038ED2AFE4F542F543F55CF55D95
:1010D000F533F53CC3E53C945E4033753C00053385
:1010E000789AE67814146012782814600D786414E5
:1010F000600878C8146003753300C3E53398400E68
:1011000015337804C2AF1204671203FAD2AF202855
:1011100006120B1D1204C130250CE5317003020FBD
:10112000A4120A8480AE1203462025A8C2AF12047E
:1011300067D2AFE4F522F523F538F539120334759B
:101140006600C2AF7984874F854F4D854F4E854FDE
:101150005375A71075C13075A70075A903C3E5586D
:1011600033F558C3E55B33F55BC3E55733F557E516
:101170005EC561F55EE55FC562F55FE560C563F577
:101180006075643CD2AFA2219212302204A2269252
:1011900012D210D21175340075360C120A12120ACE
:1011A0004112058D12059412058D12059412058DBC
:1011B00012081D1208FE1209561205941208121286
:1011C000047A1208FE12098512059412081D1208ED
:1011D000FE1209B41205941208121208FE1209E355
:1011E00012059412081D1208FE120A12120594121A
:1011F00008121208FE120A411205941204C130119D
:101200003530101A854F4DC3E534941850053025FC
:101210009F807EC210754DFF754EFF7553FF201DD8
:1012200015E53614600AF536302585202282806166
:10123000C211D21C21B0753700D21B3025132022D9
:101240000C79A4E76007C3E53294035044E53160AC
:1012500040202209C3E54394F0503621B0201D12EE
:1012600020120520260580EC2026E9D21D854F4D51
:1012700021D7854F4DC3E5439420400EC21DA226C1
:101280009212D211753612854F4D21B0201B0205E6
:1012900037C2AFC22412046775220075230075A9F6
:1012A0001375A71075C10075A700D3E55813F5583D
:1012B000C3E55B13F55BC3E55713F557E55EC56101
:1012C000F55EE55FC562F55FE560C563F560756471
:1012D000E1D2AF202519D215C3E537940450061288
:1012E000034602112CC2AF1203F3D2AF0210A47551
:1012F000370078A4E6600CC285D290C286D291C233
:0613000087D2920210C723
:1019FD00020F3A0013CEFF33010119FF091801FF41
:101A0D0055AAFFFFFFFFFFFF04FFFFFFFFFF285059
:0E1A1D0004FF02FFFFFF07FFFFFF000002FFB4
:101A400023515F485F303023202020202020202099
:101A500023424C48454C492445464D3842323123B7
:101A6000426C75656A61792020202020202020208A
:101A7000023A042034420D00452D0D0034420D0081
:0B1A80004E27D300452DD0193419006B
:101C0000C2AFC2D37597DE7597AD7581C075A90057
:101C100043FF80752438752503B1DB7529A5752A26
:101C2000F143F10253A4FDD28175D4FF75E3407DE9
:101C3000FA780379E67C10752200752300901DE880
:101C40007B06752498752501308102814820810822
:101C5000D8FBD9F9DCF781BA308108D8FBD9F9DC97
:101C6000F781BAB19BE493A3C39A6004DDC381BA40
:101C7000DBDBB18D600281317B08E493FAA3B16EA6
:101C8000DBF87A30B16E752200752300B18DEAFC65
:101C9000EBFDC3ED94FE400EB18D8A278B28ED300D
:101CA000E0048A828B83B18D7AC270D8C3ED94FE32
:101CB000601950CEBD0029EC600F7520007521FF22
:101CC000752900752A000200008100A827A92808AC
:101CD00009D804D90281DDB191EAF281D10D81A642
:101CE000C3ED94035051EDA2E092007AC5C3E582A2
:101CF0009400E583941C508C200010438F02438F86
:101D0000018529B7852AB7F0300027A827A9280818
:101D100009438F01538FFDD804D902A132C3E58353
:101D2000941C4003A3A117E28529B7852AB7F0A325
:101D3000A117538FFC81827AC1BD030CE493A3FAEF
:101D4000B152DCF8B14A81828184AA22AB23B16E00
:101D5000EBFAEA6222752608C3E52313F523E52290
:101D600013F52250066323A0632201D526EAB1DBD6
:101D7000B1DB75260AEAF4200102D281300102C2E9
:101D800081B1DBC3134002C201D526EB22B191EA37
:101D9000FB208102A191308102A196752608AE2414
:101DA000AF25C3EF13FFEE13FEB1DFB1DBC3EA13C0
:101DB0003081024480FA30E703632201C3E5231334
:101DC000F523E52213F52250066323A0632201D5F3
:101DD00026D9E52265236523F52222AE24AF250E00
:101DE0000FDEFEDFFCD20122424C48656C693437BD
:061DF0003164E8B20601B7
:00000001FF
