:060000000219FD020311CC
:03000B0002008070
:03001300020324C1
:03001B000200B030
:03002B000202DFEF
:03005B000203336A
:030073000202FE88
:10008000C0D075D01018B8CF0408208507B2858677
:100090008AD0D03253A4DFD285C2A98F8E7589AAA7
:1000A000C289C28B758A00D2A8D2AAC228D0D03207
:1000B000C2A8C28E85588BC0D075D008C0E0C0F0F1
:1000C000C2CAA9CCAACDD2CAC3E99559F9EA955AB0
:1000D0007049C3E9955B4043955B503FB8103C784D
:1000E00000A9577D00E2FEC39DC399402E99EC33D1
:1000F000FC08E2FDC39EC399402199EC33FC08E261
:10010000FEC39DC399401499EC33FC08E2FDC39EE5
:10011000C399400799EC33FC088002806AE2FEC371
:100120009DC399406299EB33FB08E2FDC39EC399DE
:10013000405599EB33FB08E2FEC39DC399404899B3
:10014000EB33FB08E2FDC39EC399403B99EB33FBC5
:1001500008E2FEC39DC399402E99EB33FB08E2FDF4
:10016000C39EC399402199EB33FB08E2FEC39DC3B4
:1001700099401499EB33FB08E2FDC39EC3994007F5
:1001800099EB33FB08801E0530E53070021530C353
:10019000E5309432400AD225755C00755D0041CF90
:1001A00075310A41CFE2FEC39DC39940DA99EA3323
:1001B000FA08E2FDC39EC39940CD99EA33FA08E2FA
:1001C000FEC39DC39940C099EA33FA08E2FDC39E7D
:1001D000C39940B399EA33FA08EBC46B6C6A3027D1
:1001E00001F4540F70A1C3EBF4FA9460FBECF454E7
:1001F0000F9400FC5018EA7C007B00600CC3135085
:1002000007B55C05055D8006E4F55C755D00302290
:100210001BC3EB94D0F5F0EC94074003ABF0FC303B
:100220002101B39226C3EB33FBEC33FCEB54F04CCF
:10023000C475F00584FAEC13FCEB132AFBEC3400D4
:10024000FC30E3047BFF7C07201C27301124EC707A
:100250000C798187F0C3EB95F05002ABF0E5376085
:100260001175F028A42BFBEC3400FC30E3047BFF79
:100270007C07EB54F84CC423F97007EB7004D225CB
:100280008005753200C225E53060021530C3E54DAA
:10029000FD954E4002AD4EC3ED995008ED75F00846
:1002A000A4FBACF0ECF45407FAEBF4F989FB8AFCFC
:1002B00075310A302719302816758E017589A2D23A
:1002C0008543A420780085648AC28DD2A9800978EC
:1002D00000758A00D2A8D2AAD0F0D0E0D0D032C027
:1002E000E0C2CF053CD223E5317004D2258002154F
:1002F00031302507E5320460020532D0E032C2AF6A
:1003000053E67F53917F7592FA7593FFC218D2AF6F
:1003100032C0E0E58A85588BC0D075D008F208D08D
:10032000D0D0E032C2AAD28EC2CA85CC5985CD5A6D
:10033000D2CA32327A007901801E7A00790580189B
:100340007A00790A80127A007964800C7A0079C880
:1003500080067A0079FA8000090A8009781874FF0B
:10036000D5E0FDD8F9D9F5DAF3227A427B3580243D
:100370007A2D7B4D801E7A267B5C80187A197B8CC7
:1003800080127A147BAF800C7A427B1E80067A2D15
:100390007B2C8000E5547001227902E4C292D5E002
:1003A000FDD293D292D5E0FDC292D5E0FDC293D2A8
:1003B00092D5E0FDE920E004D291D29030E004D261
:1003C00095D294E554D5E0FDE920E002C29030E0FA
:1003D00002C2947496D5E0FDD9C1EA78C8D8FED59A
:1003E000E0F9DBB5C29222716A7170717622718E6A
:1003F000716A2271767170716A2279998754B80195
:1004000004716A8017B8020471708010B803047117
:10041000768009B80404717C8002718279988754CF
:1004200022901A70E493F4601D7C3E901A74E49359
:10043000A3FB6012E493FA600471948006EBF97AEE
:10044000007158A3DCE82278A5E6F954037000E9AE
:10045000540C7000E954307000E954C0700022C29E
:1004600090C292C294C290C292C29475D5FF2220CB
:100470001E2E78FF201026E53B6022E543601E74A7
:10048000FF301102747F8543F084853BF0A4F8C5EA
:10049000F0600278FFC3E8954F5002A84F884E22C3
:1004A000C3E54294A0E5439400E54E500314800157
:1004B000046002F54E22102301220567E56720E063
:1004C00037E55260267553FFE5BE601FE5BDC39555
:1004D0005240187553C894044011755396940440C3
:1004E0000A75536494044003755332202402A18199
:1004F00085386575660CA181E552600FC3E54D95A1
:100500005360084004154D8002054D302470E567A6
:100510005407B40127C3E53994785003E480047587
:10052000F00984A21392E7A21492E6A21592E5C202
:1005300013C214C215F56575660E8042B4030875C2
:1005400065887566088037B405087565AA75660AFA
:10055000802CB4072978A6B6010DE5BE7003E480AF
:1005600018E5BD94148012E5BE700AE5BDC394EB96
:100570005007E48004E5BD2414F56575660275E84E
:1005800090227542007543F022C2AFC2CAA8CCA91E
:10059000CDAA3C30CF010AD2CAD2AFC3EA13FAE9DE
:1005A00013F9E813F8201014C3E8953D883DF8E9E5
:1005B000953E893E547FF9301E36C1A3AB3DAC3E1B
:1005C000AD3F883D893E8A3FC3E89BE99CEA9D5444
:1005D0007F60087542FF7543FFC172AE40AF418B2B
:1005E000408C41C3E89EF8E99FF9AA42AB438011D1
:1005F000AA42AB43C3EB9404404894044013201137
:1006000026C3EB13FDEA13FCC3ED13FDEC13FC80D2
:100610004AEBC423FCEAC423541F4CFC7D00C3E90D
:1006200013F9E813F88034EBC423FC541FFDEC5499
:10063000E0FCEAC423541F4CFCC3E913F9E813F8A7
:100640008019EBC4FCEAC4540F4CFC7D00C3E913D1
:10065000F9E813F8C3E913F9E813F8C3EA9CFAEBD5
:100660009DFBEA28F542EB39F54350067542FF75CC
:1006700043FFC3E54394025002D21EE543C4FA543B
:100680000FFBEA54F0FAE542C4540F4AFAC3EA9465
:1006900002FAEB9400FB40057048EA70457A017B52
:1006A00000803FAA42AB43EBC4FCEAC4540F4CFCAD
:1006B000C3EA9CFAEB9400FBE80303543F2AFAEBED
:1006C0003400FB8A428B43C394024002C21EEBC437
:1006D000FE7B00EAC4540F4EC39402FA400270023B
:1006E0007A01202806301808120AEB30180280FB25
:1006F000854992854A93D21843E6807892E6FFC3F3
:10070000E49AF8E49BF9C3E833F8E933F9201E7F53
:100710003010047F038015C3E5389482400E0F9497
:100720001E40010FC3EF940640027F05E8FAE9FB83
:10073000D3E913FDE813FC8C478D488849894AC3E7
:10074000EF9403602BEF20E00CE82CF8E93DF9EC86
:10075000FAEDFB800BE8D338F8E939F97AFF7BFF33
:10076000C3EF9403400A8A4B8B4C884589468050DE
:10077000884B894C8A458B46301045754BF0754C3B
:10078000FF7547F07548FF7549F0754AFF8031E8FD
:10079000FAD313FC8C478849C3EF9403601EEF2003
:1007A000E007E82CF8ECFA8007E8282401F87AFF43
:1007B000C3EF940340068A4B88458004884B8A45E2
:1007C000202806301808120AEB30180280FB753515
:1007D00002D21843E68030112DA842A943C3E91381
:1007E000F9E813F8301004E92440F9C2AF53E67F6A
:1007F000759100C3E498F594E499F595759104D248
:100800001843E680D2AF2275F000301D0E75F0401F
:10081000800975F040301D0375F000D21975440051
:100820007A027B02201E1D301102C2193010067A96
:10083000367B36800F7B28E543700104FAC3942889
:1008400040027A28201811E544600D301003D53598
:1008500004D21A80671207D10544E59B5440B5F0D5
:100860000DE53460BB2019B8DADAC21A804E2010C8
:100870000B2019110AC3EA9B40CA80A40AC3EA9B51
:1008800040011A80BFC21953E67F759100301E11D6
:100890007594007595F0759104D21843E6800208AE
:1008A00020E5437EFFC3334009C3334005C33340D3
:1008B00001FEC3E49E759400F59580DAC2AF53E65D
:1008C0007F854592854693759100854B94854C951F
:1008D000759104D21843E680D2AF201013301A125B
:1008E00020110F201D0C20190915811581021259A4
:1008F000053422E53875F007A430190405F0D21349
:10090000A2F013A2F113A2F213F538C394785003A6
:10091000753878C3E53895394003853839C3E538EB
:10092000953A400BD214C290C292C29475D5FF2062
:10093000280530180751EB30180280FB8547928557
:100940004893D21843E68022201213C2AFC292C24B
:1009500091D290D29475D5DFD2AF759F0322C2AFEA
:10096000C292C295D294D29075D5FDD2AF759F0335
:1009700022201213C2AFC294D29275D5F7C291D27F
:1009800090D2AF759F1322C2AFC290D29275D5F7A5
:10099000C295D294D2AF759F2322201213C2AFC248
:1009A00090C295D294D29275D5F7D2AF759F23227B
:1009B000C2AFC294C291D290D29275D5F7D2AF7520
:1009C0009F1322201213C2AFC292D29075D5FDC2DE
:1009D00095D294D2AF759F0322C2AFC292D29475C2
:1009E000D5DFC291D290D2AF759F0322201213C2DD
:1009F000AFC294C293D292D29075D5FDD2AF759FFB
:100A00001322C2AFC290C293D292D29475D5DFD2D4
:100A1000AF759F2322201213C2AFC290D29475D516
:100A2000DFC293D292D2AF759F2322C2AFC294D2BB
:100A30009075D5FDC293D292D2AF759F13227432B6
:100A4000A28540032085F750033085F2D5E0F3926C
:100A50002722E55C700122F8C39406500FC2AF1242
:100A6000045F1203FA12034CD2AF8078C3E55D94A1
:100A7000064077B80704C221806AB80804D22180F2
:100A800063B80904C222805CB80A04D2228055B837
:100A90000D0A75650075660ED2248048B80E0A7579
:100AA00065FF75660EC224803BB8140A7988E71486
:100AB000A2E09221802EB8150B7988E714A2E0B34A
:100AC00092218020B80C1DE4A22192E0A22292E1A2
:100AD000047988F77555A57556F1B160755500759F
:100AE0005600D2AF755C00755D0022C0D075D01085
:100AF000BE0039E566702EC2AFE542854327D2AF0E
:100B0000A23813F9A2391329FAE52703C2E7F9033A
:100B1000C2E739FBE527232354FCFCC3EA9CF526F6
:100B2000EB9400F5270E201803D0D022BE0124E557
:100B3000667010E527705DE526701175270F752624
:100B4000FF80098565268566277566000E201803D7
:100B5000D0D022BE0215E526C465266527F478D0DC
:100B6000A65E91110E201803D0D022BE030BE526FD
:100B700091110E201803D0D022BE040CE526C4919A
:100B8000110E201803D0D022E5279111087E00D045
:100B9000D0D2282220E71620E61D20E52720E434C5
:100BA00020E34120E25020E15CE526614CA237338E
:100BB000F52675270F614CA23733A23633F526751B
:100BC000270D614CA23733A23633A23533F5267593
:100BD000270B614CE52654F0C23C4527C4F5267529
:100BE0002709614CE526A23813A23913A23A13F55E
:100BF00026752707614CE526A23813A23913F5267E
:100C0000752705614CE526A23813F5267527036183
:100C10004C540F23900C187381388142814F8160AE
:100C2000816A81778181819581A281B681BD81CEE2
:100C300081D881EF81F9A10D08A66008A65E08A6FB
:100C40005E2208A65E08A65F08A65E08A65E22864B
:100C5000F0E55FB5F002E560F608A66008A65E2242
:100C600008A65E08A66008A65E2208A65F08A65E23
:100C700008A65E08A65E2208A65F08A65F08A65E14
:100C80002286F0E55FB5F002E560F608A65E08A6EC
:100C90005F08A65E2208A65E08A65E08A65F08A6F4
:100CA0005E2286F0E55FB5F002E560F608A65F0813
:100CB000A65E08A65E2208A66008A65F2286F0E56A
:100CC0005FB5F002E560F608A65F08A65F2208A6F9
:100CD0005E08A65F08A65F2286F0E55FB5F002E534
:100CE00060F608A65E08A65E08A65E08A65E220854
:100CF000A65F08A65E08A65F2286F0E55FB5F00253
:100D0000E560F608A65E08A65E08A65F2208A65E55
:100D100008A65E08A65E08A65F22901A0D7820B18C
:100D2000A0E520B4550AA3B1A0E520B4AA02801220
:100D30007555A57556F1D127B160755500755600EA
:100D4000801D901A0378807B0AB1A0A308DBFA907B
:100D50001A0F788C7B1BB1A0A308DBFA901A2A2209
:100D6000C2AFB1E3D105B1C0901A007400B1A5A320
:100D70007413B1A5A374CEB1A5901A0378807B0A31
:100D8000B1A4A308DBFA901A0F788C7B1BB1A4A343
:100D900008DBFAB1F6D118B1D4901A2A12034C220A
:100DA000E493F622E6438F01538FFDFFC3E583945E
:100DB0001C400122EF8555B78556B7F0538FFE22B0
:100DC000438F02438F018555B78556B7901A0DF0B2
:100DD000538FFC22901A0D7455B1A5901A0E74AA67
:100DE000B1A5227A3079D07820901A40B1A0E520C0
:100DF000F709A3DAF7227A3079D0901A40E7B1A543
:100E000009A3DAF9227A8C79007820901A70B1A0BF
:100E1000E520F309A3DAF7227A8C7900901A70E3BF
:100E2000B1A509A3DAF922788076FF08763308762F
:100E3000010876010876190876FF08760908761801
:100E40000876010876FF08080876FF0876FF08761E
:100E5000FF0876FF0876FF0876FF0876040876FF1D
:100E60000876FF0876FF0876FF0876FF08762808E0
:100E700076500876040876FF0876020876FF087632
:100E8000FF0876FF0876070876FF0876FF0876FFEA
:100E9000087600087600087602227888E614A2E137
:100EA0009222A2E092217884745096500276507873
:100EB00086740D965002760D863B789CE6753AFF57
:100EC000B40203753AA0B40303753A8275520078F0
:100ED000A0E6F9600F78A6B6010474538002742866
:100EE0002409D9FCF55278988654788DE62323237B
:100EF000F95407F551E954F8F550B6FF037550FF62
:100F00007883E624FF92292275550075560075975F
:100F1000DE7597AD7581B043FF8075EF0675A9004A
:100F200012045F7580FF75F1F075A4007580FF7580
:100F3000D4FF75900075F23F75A53F75900075D58B
:100F4000FF75A60175A72075F30175CC0175A70083
:100F500075E34075E20212045FE4F8F6D8FDD1278C
:100F6000B11AD19AC2AF12034612042112044712D9
:100F70000346C2AF75550075560012045F75A9137C
:100F800075A71075C10075A700780979007A00303F
:100F9000850CDAFBD9F9D8F71203EE021C00302ACF
:100FA0000E1203E7120352120352120352C22A75A1
:100FB0008851758E017589AA758C00758D0075C86C
:100FC0000475910475D84075D90875F783759E002E
:100FD00075960275DA4A75DB00759B80759D007801
:100FE000A6B6010575D11C800375D10C75BCB97509
:100FF000BB1075E88075B201120334513E75E4D51B
:1010000030270375E45DC213C214C215C228C2247E
:1010100075A82D75E68075B803D2AF758E0C75581E
:1010200080755710755B50755EF7755FE77560D614
:101030007564E17561EB7562CA7563A975300A1252
:101040000346E530602B7558C0755708755B2875E9
:101050005EFF755FF77560EF7564E17561FB756242
:10106000EB7563DA75300A120346E5306003020F50
:1010700072C0D075D010AF8ED0D0D22A753700C2D2
:10108000AF120388D2AFC3E532940A40F9C2AF125F
:10109000038ED2AFE4F542F543F55CF55DF533F52B
:1010A0003CC3E53C945E4033753C000533789AE6DA
:1010B0007814146012782814600D7864146008782D
:1010C000C8146003753300C3E53398400E153378B8
:1010D00004C2AF12045F1203FAD2AF202806120A2C
:1010E000EB1204B630250CE5317003020F72120AC0
:1010F0005280AE1203462025A8C2AF12045FD2AFC1
:10110000E4F522F523F538F539120334756600C28B
:10111000AF7984874F854F4D854F4E854F5375A7C7
:101120001075C13075A70075A903C3E55833F5588C
:10113000C3E55B33F55BC3E55733F557E55EC56142
:10114000F55EE55FC562F55FE560C563F5607564F2
:101150003CD2AFA2219212302204A2269212D210C7
:10116000D21175340075360C1209EC120A151205ED
:10117000821205891205821205891205821208124F
:101180001208F312094812058912080712046F1297
:1011900008F31209711205891208121208F31209D4
:1011A0009A1205891208071208F31209C312058959
:1011B0001208121208F31209EC120589120807121C
:1011C00008F3120A151205891204B63011353010D1
:1011D0001A854F4DC3E5349418500530259F807E05
:1011E000C210754DFF754EFF7553FF201D15E53676
:1011F00014600AF5363025852022828061C211D222
:101200001C217D753700D21B30251320220C79A4B8
:10121000E76007C3E53294035044E5316040202283
:1012200009C3E54394F05036217D201D122012059C
:1012300020260580EC2026E9D21D854F4D21A4856E
:101240004F4DC3E5439420400EC21DA2269212D2F8
:1012500011753612854F4D217D201B020537C2AF17
:10126000C22412045F75220075230075A91375A7A7
:101270001075C10075A700D3E55813F558C3E55B99
:1012800013F55BC3E55713F557E55EC561F55EE5FC
:101290005FC562F55FE560C563F5607564E1D2AF77
:1012A000202519D215C3E5379404500612034602CF
:1012B00010F9C2AF1203F3D2AF0210717537007884
:1012C000A4E6600CC291D290C293D292C295D294FD
:0312D00002109475
:1019FD00020F080013CEFF33010119FF091801FF73
:101A0D0055AAFFFFFFFFFFFF04FFFFFFFFFF285059
:0E1A1D0004FF02FFFFFF07FFFFFF000002FFB4
:101A400023535F485F303023202020202020202097
:101A500023424C48454C492445464D3842323123B7
:101A6000426C75656A61792020202020202020208A
:101A7000023A042034420D00452D0D0034420D0081
:0B1A80004E27D300452DD0193419006B
:101C0000C2AFC2D37597DE7597AD7581C075A90057
:101C100043FF80752438752503B1DB7529A5752A26
:101C2000F143F12053A4DFD28575D4FF75E3407DE5
:101C3000FA780379E67C10752200752300901DE880
:101C40007B0675249875250130850281482085081A
:101C5000D8FBD9F9DCF781BA308508D8FBD9F9DC93
:101C6000F781BAB19BE493A3C39A6004DDC381BA40
:101C7000DBDBB18D600281317B08E493FAA3B16EA6
:101C8000DBF87A30B16E752200752300B18DEAFC65
:101C9000EBFDC3ED94FE400EB18D8A278B28ED300D
:101CA000E0048A828B83B18D7AC270D8C3ED94FE32
:101CB000601950CEBD0029EC600F7520007521FF22
:101CC000752900752A000200008100A827A92808AC
:101CD00009D804D90281DDB191EAF281D10D81A642
:101CE000C3ED94035051EDA2E092007AC5C3E582A2
:101CF0009400E583941C508C200010438F02438F86
:101D0000018529B7852AB7F0300027A827A9280818
:101D100009438F01538FFDD804D902A132C3E58353
:101D2000941C4003A3A117E28529B7852AB7F0A325
:101D3000A117538FFC81827AC1BD030CE493A3FAEF
:101D4000B152DCF8B14A81828184AA22AB23B16E00
:101D5000EBFAEA6222752608C3E52313F523E52290
:101D600013F52250066323A0632201D526EAB1DBD6
:101D7000B1DB75260AEAF4200102D285300102C2E5
:101D800085B1DBC3134002C201D526EB22B191EA33
:101D9000FB208502A191308502A196752608AE240C
:101DA000AF25C3EF13FFEE13FEB1DFB1DBC3EA13C0
:101DB0003085024480FA30E703632201C3E5231330
:101DC000F523E52213F52250066323A0632201D5F3
:101DD00026D9E52265236523F52222AE24AF250E00
:101DE0000FDEFEDFFCD20122424C48656C693437BD
:061DF0003164E8B20601B7
:00000001FF
