:060000000219FD020311CC
:03000B0002008070
:03001300020324C1
:03001B000200B030
:03002B000202DFEF
:03005B000203336A
:030073000202FE88
:10008000C0D075D01018B8CF0408208707B2878673
:100090008AD0D03253A47FD287C2A98F8E7589AA05
:1000A000C289C28B758A00D2A8D2AAC228D0D03207
:1000B000C2A8C28E85588BC0D075D008C0E0C0F0F1
:1000C000C2CAA9CCAACDD2CAC3E99559F9EA955AB0
:1000D0007049C3E9955B4043955B503FB8103C784D
:1000E00000A9577D00E2FEC39DC399402E99EC33D1
:1000F000FC08E2FDC39EC399402199EC33FC08E261
:10010000FEC39DC399401499EC33FC08E2FDC39EE5
:10011000C399400799EC33FC088002806AE2FEC371
:100120009DC399406299EB33FB08E2FDC39EC399DE
:10013000405599EB33FB08E2FEC39DC399404899B3
:10014000EB33FB08E2FDC39EC399403B99EB33FBC5
:1001500008E2FEC39DC399402E99EB33FB08E2FDF4
:10016000C39EC399402199EB33FB08E2FEC39DC3B4
:1001700099401499EB33FB08E2FDC39EC3994007F5
:1001800099EB33FB08801E0530E53070021530C353
:10019000E5309432400AD225755C00755D0041CF90
:1001A00075310A41CFE2FEC39DC39940DA99EA3323
:1001B000FA08E2FDC39EC39940CD99EA33FA08E2FA
:1001C000FEC39DC39940C099EA33FA08E2FDC39E7D
:1001D000C39940B399EA33FA08EBC46B6C6A3027D1
:1001E00001F4540F70A1C3EBF4FA9460FBECF454E7
:1001F0000F9400FC5018EA7C007B00600CC3135085
:1002000007B55C05055D8006E4F55C755D00302290
:100210001BC3EB94D0F5F0EC94074003ABF0FC303B
:100220002101B39226C3EB33FBEC33FCEB54F04CCF
:10023000C475F00584FAEC13FCEB132AFBEC3400D4
:10024000FC30E3047BFF7C07201C27301124EC707A
:100250000C798187F0C3EB95F05002ABF0E5376085
:100260001175F028A42BFBEC3400FC30E3047BFF79
:100270007C07EB54F84CC423F97007EB7004D225CB
:100280008005753200C225E53060021530C3E54DAA
:10029000FD954E4002AD4EC3ED995008ED75F00846
:1002A000A4FBACF0ECF45407FAEBF4F989FB8AFCFC
:1002B00075310A302719302816758E017589A2D23A
:1002C0008743A480780085648AC28DD2A98009788A
:1002D00000758A00D2A8D2AAD0F0D0E0D0D032C027
:1002E000E0C2CF053CD223E5317004D2258002154F
:1002F00031302507E5320460020532D0E032C2AF6A
:1003000053E67F53917F7592FA7593FFC218D2AF6F
:1003100032C0E0E58A85588BC0D075D008F208D08D
:10032000D0D0E032C2AAD28EC2CA85CC5985CD5A6D
:10033000D2CA32327A007901801E7A00790580189B
:100340007A00790A80127A007964800C7A0079C880
:1003500080067A0079FA8000090A8009781874FF0B
:10036000D5E0FDD8F9D9F5DAF3227A427B3580243D
:100370007A2D7B4D801E7A267B5C80187A197B8CC7
:1003800080127A147BAF800C7A427B1E80067A2D15
:100390007B2C8000E5547001227902E453F2DFD512
:1003A000E0FDD29543F220D5E0FD53F2DFD5E0FD2C
:1003B000C29543F220D5E0FDE920E005D29643F254
:1003C0004030E005D29443F210E554D5E0FDE92039
:1003D000E00353F2BF30E00353F2EF7496D5E0FD33
:1003E000D9B9EA78C8D8FED5E0F9DBAD53F2DF22FF
:1003F000716A7170717622718E716A227176717074
:10040000716A2279998754B80104716A8017B80219
:100410000471708010B8030471768009B804047107
:100420007C800271827998875422901A70E493F448
:10043000601D7C3E901A74E493A3FB6012E493FA6F
:10044000600471948006EBF97A007158A3DCE8220D
:1004500078A5E6F954037000E9540C7000E95430B3
:100460007000E954C070002253F28F53F28F75D59B
:10047000FF22201E2E78FF201026E53B6022E54358
:10048000601E74FF301102747F8543F084853BF059
:10049000A4F8C5F0600278FFC3E8954F5002A84F5A
:1004A000884E22C3E54294A0E5439400E54E5003F4
:1004B000148001046002F54E22102301220567E535
:1004C0006720E037E55260267553FFE5BE601FE503
:1004D000BDC3955240187553C89404401175539686
:1004E0009404400A755364940440037553322024E5
:1004F00002A18485386575660CA184E552600FC33E
:10050000E54D955360084004154D8002054D30249B
:1005100070E5675407B40127C3E53994785003E4C4
:10052000800475F00984A21392E7A21492E6A21542
:1005300092E5C213C214C215F56575660E8042B409
:1005400003087565887566088037B405087565AA5F
:1005500075660A802CB4072978A6B6010DE5BE7031
:1005600003E48018E5BD94148012E5BE700AE5BD71
:10057000C394EB5007E48004E5BD2414F56575666B
:100580000275E890227542007543F022C2AFC2CADC
:10059000A8CCA9CDAA3C30CF010AD2CAD2AFC3EAB7
:1005A00013FAE913F9E813F8201014C3E8953D880D
:1005B0003DF8E9953E893E547FF9301E36C1A6AB21
:1005C0003DAC3EAD3F883D893E8A3FC3E89BE99CF8
:1005D000EA9D547F60087542FF7543FFC175AE40C8
:1005E000AF418B408C41C3E89EF8E99FF9AA42AB2A
:1005F000438011AA42AB43C3EB94044048940440A7
:1006000013201126C3EB13FDEA13FCC3ED13FDEC1D
:1006100013FC804AEBC423FCEAC423541F4CFC7D2A
:1006200000C3E913F9E813F88034EBC423FC541F2A
:10063000FDEC54E0FCEAC423541F4CFCC3E913F95D
:10064000E813F88019EBC4FCEAC4540F4CFC7D009D
:10065000C3E913F9E813F8C3E913F9E813F8C3EA97
:100660009CFAEB9DFBEA28F542EB39F54350067501
:1006700042FF7543FFC3E54394025002D21EE54397
:10068000C4FA540FFBEA54F0FAE542C4540F4AFA94
:10069000C3EA9402FAEB9400FB40057048EA704507
:1006A0007A017B00803FAA42AB43EBC4FCEAC4540E
:1006B0000F4CFCC3EA9CFAEB9400FBE80303543FA5
:1006C0002AFAEB3400FB8A428B43C394024002C2F5
:1006D0001EEBC4FE7B00EAC4540F4EC39402FA40E2
:1006E0000270027A01202806301808120B0F301809
:1006F0000280FB854992854A93D21843E68078921E
:10070000E6FFC3E49AF8E49BF9C3E833F8E933F968
:10071000201E7F3010047F038015C3E5389482408B
:100720000E0F941E40010FC3EF940640027F05E8B0
:10073000FAE9FBD3E913FDE813FC8C478D4888499F
:10074000894AC3EF9403602BEF20E00CE82CF8E912
:100750003DF9ECFAEDFB800BE8D338F8E939F97A8A
:10076000FF7BFFC3EF9403400A8A4B8B4C8845897B
:10077000468050884B894C8A458B46301045754BD6
:10078000F0754CFF7547F07548FF7549F0754AFFE5
:100790008031E8FAD313FC8C478849C3EF94036097
:1007A0001EEF20E007E82CF8ECFA8007E828240187
:1007B000F87AFFC3EF940340068A4B88458004888B
:1007C0004B8A45202806301808120B0F301802807B
:1007D000FB753502D21843E68030112DA842A9439B
:1007E000C3E913F9E813F8301004E92440F9C2AF63
:1007F00053E67F759100C3E498F594E499F59575F7
:100800009104D21843E680D2AF2275F000301D0E5D
:1008100075F040800975F040301D0375F000D21965
:100820007544007A027B02201E1D301102C219306D
:1008300010067A367B36800F7B28E543700104FA78
:10084000C3942840027A28201811E544600D301026
:1008500003D53504D21A80671207D40544E59B54AA
:1008600040B5F00DE53460BB2019B8DADAC21A8061
:100870004E20100B2019110AC3EA9B40CA80A40A1B
:10088000C3EA9B40011A80BFC21953E67F759100ED
:10089000301E117594007595F0759104D21843E6D9
:1008A00080020823E5437EFFC3334009C33340057C
:1008B000C3334001FEC3E49E759400F59580DAC20F
:1008C000AF53E67F854592854693759100854B949D
:1008D000854C95759104D21843E680D2AF20101351
:1008E000301A1220110F201D0C20190915811581B5
:1008F00002127E053422E53875F007A4301904058C
:10090000F0D213A2F013A2F113A2F213F538C3949C
:10091000785003753878C3E5389539400385383900
:10092000C3E538953A4008D21453F28F75D5FF20AD
:100930002805301807710F30180280FB8547928513
:100940004893D21843E68022201216C2AF53F2DF3A
:10095000C29643F24075D5EF43F210D2AF759F5364
:1009600022C2AF53F2DFC29443F21075D5BF43F2F7
:1009700040D2AF759F5322201216C2AF53F2EF75CB
:10098000D5DF43F220C29643F240D2AF759F632277
:10099000C2AF53F2BF75D5DF43F220C29443F210C9
:1009A000D2AF759F2322201216C2AF53F2BFC2945A
:1009B00043F21075D5DF43F220D2AF759F2322C2D8
:1009C000AF53F2EFC29643F24075D5DF43F220D227
:1009D000AF759F6322201216C2AF53F2DF75D5BFE9
:1009E00043F240C29443F210D2AF759F5322C2AF7C
:1009F00053F2DF75D5EF43F210C29643F240D2AF07
:100A0000759F5322201216C2AF53F2EFC29543F2E4
:100A10002075D5BF43F240D2AF759F6322C2AF535A
:100A2000F2BFC29543F22075D5EF43F210D2AF75F5
:100A30009F2322201216C2AF53F2BF75D5EF43F2A7
:100A400010C29543F220D2AF759F2322C2AF53F25A
:100A5000EF75D5BF43F240C29543F220D2AF759FE8
:100A600063227432A28740032087F750033087F255
:100A7000D5E0F3922722E55C700122F8C39406507A
:100A80000FC2AF12046812040312034CD2AF807875
:100A9000C3E55D94064077B80704C221806AB808B0
:100AA00004D2218063B80904C222805CB80A04D24F
:100AB000228055B80D0A75650075660ED2248048EF
:100AC000B80E0A7565FF75660EC224803BB8140A1D
:100AD0007988E714A2E09221802EB8150B7988E777
:100AE00014A2E0B392218020B80C1DE4A22192E070
:100AF000A22292E1047988F77555A57556F1B18463
:100B0000755500755600D2AF755C00755D0022C04A
:100B1000D075D010BE0039E566702EC2AFE54285B3
:100B20004327D2AFA23813F9A2391329FAE52703D4
:100B3000C2E7F903C2E739FBE527232354FCFCC3D2
:100B4000EA9CF526EB9400F5270E201803D0D0225E
:100B5000BE0124E5667010E527705DE5267011750D
:100B6000270F7526FF80098565268566277566002F
:100B70000E201803D0D022BE0215E526C4652665D6
:100B800027F478D0A65E91350E201803D0D022BE6F
:100B9000030BE52691350E201803D0D022BE040C9D
:100BA000E526C491350E201803D0D022E5279135D3
:100BB000087E00D0D0D2282220E71620E61D20E5AE
:100BC0002720E43420E34120E25020E15CE5266167
:100BD00070A23733F52675270F6170A23733A2361E
:100BE00033F52675270D6170A23733A23633A2354F
:100BF00033F52675270B6170E52654F0C23C452776
:100C0000C4F5267527096170E526A23813A23913A9
:100C1000A23A13F5267527076170E526A23813A2BC
:100C20003913F5267527056170E526A23813F526D8
:100C30007527036170540F23900C3C73815C8166AF
:100C400081738184818E819B81A581B981C681DA7E
:100C500081E181F281FCA113A11DA13108A66008E8
:100C6000A65E08A65E2208A65E08A65F08A65E0825
:100C7000A65E2286F0E55FB5F002E560F608A660A4
:100C800008A65E2208A65E08A66008A65E2208A640
:100C90005F08A65E08A65E08A65E2208A65F08A6F4
:100CA0005F08A65E2286F0E55FB5F002E560F60813
:100CB000A65E08A65F08A65E2208A65E08A65E08D5
:100CC000A65F08A65E2286F0E55FB5F002E560F655
:100CD00008A65F08A65E08A65E2208A66008A65FB2
:100CE0002286F0E55FB5F002E560F608A65F08A68B
:100CF0005F2208A65E08A65F08A65F2286F0E55F71
:100D0000B5F002E560F608A65E08A65E08A65E08D5
:100D1000A65E2208A65F08A65E08A65F2286F0E50A
:100D20005FB5F002E560F608A65E08A65E08A65F5D
:100D30002208A65E08A65E08A65E08A65F22901A94
:100D40000D7820B1C4E520B4550AA3B1C4E520B4A0
:100D5000AA0280127555A57556F1D14BB18475550F
:100D600000755600801D901A0378807B0AB1C4A3D9
:100D700008DBFA901A0F788C7B1BB1C4A308DBFA4E
:100D8000901A2A22C2AFD107D129B1E4901A007477
:100D900000B1C9A37413B1C9A374CEB1C9901A0329
:100DA00078807B0AB1C8A308DBFA901A0F788C7B95
:100DB0001BB1C8A308DBFAD11AD13CB1F8901A2AAA
:100DC00012034C22E493F622E6438F01538FFDFF7A
:100DD000C3E583941C400122EF8555B78556B7F0D3
:100DE000538FFE22438F02438F018555B78556B737
:100DF000901A0DF0538FFC22901A0D7455B1C990C2
:100E00001A0E74AAB1C9227A3079D07820901A408B
:100E1000B1C4E520F709A3DAF7227A3079D0901A25
:100E200040E7B1C909A3DAF9227A8C7900782090D9
:100E30001A70B1C4E520F309A3DAF7227A8C79009D
:100E4000901A70E3B1C909A3DAF922788076FF0815
:100E500076330876010876010876190876FF087659
:100E6000090876180876010876FF08080876FF0852
:100E700076FF0876FF0876FF0876FF0876FF08768B
:100E8000040876FF0876FF0876FF0876FF0876FFED
:100E90000876280876500876040876FF0876020857
:100EA00076FF0876FF0876FF0876070876FF087653
:100EB000FF0876FF08760008760008760222788818
:100EC000E614A2E19222A2E0922178847450965016
:100ED0000276507886740D965002760D863B789C8B
:100EE000E6753AFFB40203753AA0B40303753A827B
:100EF00075520078A0E6F9600F78A6B60104745325
:100F0000800274282409D9FCF55278988654788D8B
:100F1000E6232323F95407F551E954F8F550B6FFB9
:100F2000037550FF7883E624FF92292275550075DA
:100F300056007597DE7597AD7581B043FF8075EFEC
:100F40000675A9001204687580FF75F19375A400F9
:100F50007580FF75D4FF75900075F28F75A570755B
:100F6000900075D5FF75A60175A72075F30175CCA6
:100F70000175A70075E34075E202120468E4F8F613
:100F8000D8FDD14BB13ED1BEC2AF12034612042AE6
:100F9000120450120346C2AF755500755600120474
:100FA0006875A91375A71075C10075A70078097930
:100FB000007A0030870CDAFBD9F9D8F71203F70270
:100FC0001C00302A0E1203F01203521203521203B5
:100FD00052C22A758851758E017589AA758C007563
:100FE0008D0075C80475910475D84075D90875F7DA
:100FF00083759E0075960275DA4A75DB00759B80D5
:10100000759D0078A6B6010575D11C800375D10CBD
:1010100075BCB975BB1075E88075B2011203341246
:101020000A6275E4F730270375E47FC213C214C265
:1010300015C228C22475A82D75E68075B803D2AFF5
:10104000758E0C755880755710755B50755EF77509
:101050005FE77560D67564E17561EB7562CA7563AB
:10106000A975300A120346E530602B7558C07557D4
:1010700008755B28755EFF755FF77560EF7564E155
:101080007561FB7562EB7563DA75300A120346E52C
:10109000306003020F96C0D075D010AF8ED0D0D282
:1010A0002A753700C2AF120388D2AFC3E532940A63
:1010B00040F9C2AF12038ED2AFE4F542F543F55CBE
:1010C000F55DF533F53CC3E53C945E4033753C007B
:1010D0000533789AE67814146012782814600D7835
:1010E0006414600878C8146003753300C3E533984E
:1010F000400E15337804C2AF120468120403D2AF55
:10110000202806120B0F1204B930250CE5317003AC
:10111000020F96120A7680AE1203462025A8C2AFAF
:10112000120468D2AFE4F522F523F538F53912033D
:1011300034756600C2AF7984874F854F4D854F4E19
:10114000854F5375A71075C13075A70075A903C3E6
:10115000E55833F558C3E55B33F55BC3E55733F525
:1011600057E55EC561F55EE55FC562F55FE560C5A3
:1011700063F56075643CD2AFA2219212302204A2C2
:10118000269212D210D21175340075360C120A0450
:10119000120A3312058512058C12058512058C1270
:1011A00005851208151208F612094812058C120856
:1011B0000A1204721208F612097712058C12081529
:1011C0001208F61209A612058C12080A1208F61265
:1011D00009D512058C1208151208F6120A04120518
:1011E0008C12080A1208F6120A3312058C1204B97E
:1011F00030113530101A854F4DC3E5349418500521
:1012000030259F807EC210754DFF754EFF7553FFD0
:10121000201D15E53614600AF5363025852022821A
:101220008061C211D21C21A2753700D21B30251358
:1012300020220C79A4E76007C3E53294035044E50B
:10124000316040202209C3E54394F0503621A220AA
:101250001D1220120520260580EC2026E9D21D85CE
:101260004F4D21C9854F4DC3E5439420400EC21D0B
:10127000A2269212D211753612854F4D21A2201B43
:10128000020537C2AFC2241204687522007523001C
:1012900075A91375A71075C10075A700D3E558137C
:1012A000F558C3E55B13F55BC3E55713F557E55EEA
:1012B000C561F55EE55FC562F55FE560C563F56034
:1012C0007564E1D2AF202519D215C3E537940450D7
:1012D0000612034602111EC2AF1203FCD2AF021067
:1012E0009675370078A4E6600FC29643F240C29527
:0B12F00043F220C29443F2100210B938
:1019FD00020F2C0013CEFF33010119FF091801FF4F
:101A0D0055AAFFFFFFFFFFFF04FFFFFFFFFF285059
:0E1A1D0004FF02FFFFFF07FFFFFF000002FFB4
:101A400023575F485F303023202020202020202093
:101A500023424C48454C492445464D3842323123B7
:101A6000426C75656A61792020202020202020208A
:101A7000023A042034420D00452D0D0034420D0081
:0B1A80004E27D300452DD0193419006B
:101C0000C2AFC2D37597DE7597AD7581C075A90057
:101C100043FF80752438752503B1DB7529A5752A26
:101C2000F143F18053A47FD28775D4FF75E3407DE3
:101C3000FA780379E67C10752200752300901DE880
:101C40007B06752498752501308702814820870816
:101C5000D8FBD9F9DCF781BA308708D8FBD9F9DC91
:101C6000F781BAB19BE493A3C39A6004DDC381BA40
:101C7000DBDBB18D600281317B08E493FAA3B16EA6
:101C8000DBF87A30B16E752200752300B18DEAFC65
:101C9000EBFDC3ED94FE400EB18D8A278B28ED300D
:101CA000E0048A828B83B18D7AC270D8C3ED94FE32
:101CB000601950CEBD0029EC600F7520007521FF22
:101CC000752900752A000200008100A827A92808AC
:101CD00009D804D90281DDB191EAF281D10D81A642
:101CE000C3ED94035051EDA2E092007AC5C3E582A2
:101CF0009400E583941C508C200010438F02438F86
:101D0000018529B7852AB7F0300027A827A9280818
:101D100009438F01538FFDD804D902A132C3E58353
:101D2000941C4003A3A117E28529B7852AB7F0A325
:101D3000A117538FFC81827AC1BD030CE493A3FAEF
:101D4000B152DCF8B14A81828184AA22AB23B16E00
:101D5000EBFAEA6222752608C3E52313F523E52290
:101D600013F52250066323A0632201D526EAB1DBD6
:101D7000B1DB75260AEAF4200102D287300102C2E3
:101D800087B1DBC3134002C201D526EB22B191EA31
:101D9000FB208702A191308702A196752608AE2408
:101DA000AF25C3EF13FFEE13FEB1DFB1DBC3EA13C0
:101DB0003087024480FA30E703632201C3E523132E
:101DC000F523E52213F52250066323A0632201D5F3
:101DD00026D9E52265236523F52222AE24AF250E00
:101DE0000FDEFEDFFCD20122424C48656C693437BD
:061DF0003164E8B20601B7
:00000001FF
